:020000040800F2
:10000000B07B012049600108615501086355010872
:100010006555010867550108695501080000000091
:10002000000000000000000000000000A5830008A0
:100030006B55010800000000498300086D55010858
:1000400071550108916001089560010899600108E7
:100050009D600108A1600108A5600108A960010870
:10006000AD600108B1600108B5600108775501086D
:100070007D55010883550108895501088F550108F0
:10008000955501089B550108B9600108BD6001083C
:10009000C1600108C5600108C9600108CD600108A0
:1000A000D1600108D5600108D9600108DD60010850
:1000B000E1600108E5600108E9600108ED60010800
:1000C000F1600108F5600108F9600108A155010817
:1000D000A7550108AD550108FD600108B355010899
:1000E00001610108056101080000000009610108C3
:1000F0000D6101081161010815610108B955010878
:10010000BF550108D1550108196101081D61010899
:1001100021610108D7550108DD5501082561010855
:10012000EF550108F5550108FB5501080156010876
:1001300029610108075601082D6101083161010894
:1001400000000000000000000000000000000000AF
:1001500035610108396101083D610108416101080B
:1001600045610108496101084D61010851610108BB
:1001700055610108596101085D610108616101086B
:1001800065610108696101086D610108716101081B
:100190000D56010875610108796101087D6101084A
:1001A0008161010885610108896101088D6101088B
:1001B0009161010895610108996101089D6101083B
:1001C000A1610108A561010813560108155601082F
:1001D000A961010885560108AD610108B1610108F6
:1001E000B5610108B9610108BD610108C16101087B
:1001F000C5610108C9610108CD610108D16101082B
:10020000D5610108D9610108DD610108E1610108DA
:10021000E5610108E9610108ED610108F16101088A
:10022000F5610108F9610108FD61010800000000A5
:10023000016201080562010800000000096201086E
:100240000D620108116201081562010819620108B6
:100250001D62010821620108256201082962010866
:100260002D62010831620108356201083962010816
:100270003D6201084162010845620108000000007A
:1002800049620108000000004D6201080000000002
:100290000000000051620108F0B5044604F10C06AC
:1002A00081B040213046002501F064FEDFF83C0BB0
:1002B000006850B9DFF8380B00680005000DB0F594
:1002C0008A6F14BF0021022100E00121B26BDFF828
:1002D000240B82421CD002292ED1DFF81C1B0A6895
:1002E00042F400220A600A6822F40022C1F80020C9
:1002F000D1F8782712F1010FFAD1DFF8002BC1F8FD
:100300007827D1F87817DFF8F82A914213D1B06333
:10031000F5607560B5603560B5613561756160899E
:1003200030852089756370852088012814D00028C5
:1003300059D002259BE0FEE70129E9D1DFF8C41A74
:1003400001228A608A68002AFCD1DFF8BC2A0A6090
:1003500009688142DBD0FEE7DFF8B00A01780029A6
:1003600040F08580021D4023DFF81C1D17685B1ECE
:100370004FEA875C4FEA9C5C01EA070EC7F3095716
:100380000EEB0C5C674442F8047B17684FEA875C0D
:100390004FEA9C5C01EA070EC7F309570EEB0C5CB1
:1003A000674442F8047B17684FEA875C4FEA9C5C1D
:1003B00001EA070EC7F309570EEB0C5C674442F8DD
:1003C000047B17684FEA875C4FEA9C5C01EA070EE2
:1003D000C7F309570EEB0C5C674442F8047BC5D1A8
:1003E0000121017043E0DFF8240A017801293ED1A0
:1003F000021D4023DFF8901C17685B1E4FEA875CE4
:100400004FEA9C5C01EA070EC7F309570EEB0C5C40
:10041000674442F8047B17684FEA875C4FEA9C5CAC
:1004200001EA070EC7F309570EEB0C5C674442F86C
:10043000047B17684FEA875C4FEA9C5C01EA070E71
:10044000C7F309570EEB0C5C674442F8047B17684E
:100450004FEA875C4FEA9C5C01EA070EC7F3095735
:100460000EEB0C5C674442F8047BC5D105706088D4
:1004700030B1012811BF6D1C706B40F0200070631B
:10048000308D012804BF708D012803D1706B40F0BE
:1004900040007063606828B1706B40F010007063BA
:1004A000606830620020B08515B9706B8030706371
:1004B000284601B0F0BD0000F0B581B00C46002622
:1004C00000F10C052DED048BA96BDFF8282905F14F
:1004D0003400914218BF042040F0D680016821F416
:1004E00080722188052918BF06290BD0072918BF5B
:1004F000012907D0022918BF032903D0042918BFF6
:10050000082647D1AB8C8B4244D0120941EA021233
:1005100002F07007702F02F00F031DD15B1E062B37
:1005200038D8DFE803F00D10131604070A00DFF8CF
:100530005C3B2EE0DFF8583B2BE0DFF8583B28E02F
:10054000DFF8543B25E0DFF8543B22E0DFF8503B76
:100550001FE0DFF8503B1CE05B1E062B1AD8DFE8DB
:1005600003F00D10131604070A000FF2251310E014
:100570000FF211230DE00FF271330AE00FF2B143D5
:1005800007E00FF2716304E00FF6850301E00FF658
:100590002133EB630260B4F90470B5F92C20BA4240
:1005A00004BFAA8C8A4267D017F10C0FB8BF6FF056
:1005B0000B0002DB342F03DB3320A080403659E0F0
:1005C00000789FED6F8ADFED6E8A00F00F00401E0D
:1005D000062827D8DFE800F013181D2204090E00B2
:1005E000B3EE008ADFEDBB8A1CE0B2EE0C8ADFEDD1
:1005F000BA8A17E0B2EE0A8AF2EE008A12E0B2EE90
:10060000068ADFEDB68A0DE0B2EE048AF7EE008AC4
:1006100008E0B2EE028ADFEDB28A03E0B1EE0C8AA6
:10062000F4EE008A00EE107AB8EEC00AF3EE040A87
:10063000C0EE200AB2EE040A01F0CCFEB0EE409A01
:100640009FEDA80A70EE480AB0EE000A01F0C2FE63
:1006500069EE280A20EE800A10EE100A01F0BCFEB6
:1006600041EC100B01F0DCFE51EC100B01F009FF26
:100670002863AF852088A8846088E8841EB9686BE9
:1006800040F4807068633046BDEC048B01B0F0BD6F
:100690002DE9F24F156B82B0D2F810E0D2F8148039
:1006A0009169D2F81CA0D2F808C0D3680195556BA7
:1006B0000024DFF8F4990095D68CDFF8F059002E6D
:1006C0004FD0578D012F06D1009F50F8026BBF0607
:1006D0000AD576BA08E0FFB290F800B03E5C00EBB5
:1006E0004700360256FA8BF6DFF820775FFA86FB72
:1006F000C6F3072607EB8B0B07EB86067668DBF85D
:1007000004B0D3444FEA8B5A06EB9B264FEA9A5A21
:10071000B705BF0D47EA0A474FEA962A27FB09C6E5
:1007200027FB05FC009FA6F50066FF0609D5176AA2
:10073000B644AEEB080EB0465EFB17FE4FEA4E0E17
:100740007646019F360456FB17F6029F26F38F0B61
:10075000168D6643641CA4B227F816B0D68CB4423A
:10076000AFD3C2F808C00020D36003B0C2F81CA009
:10077000C2F810E0C2F814809161BDE8F08F00006B
:10078000000000002DE9F24F0146906983B0136923
:10079000D2F814800290106BD569D2F80890D2F884
:1007A0000CA00190506BDFF87CCCDFF8FCE80090E7
:1007B000D48C0020002C00F07F80568D0C78012E08
:1007C0001FD1009EB60614D500EBD077CE787F10EF
:1007D000B0EB470706D1240204EB06444E78891C8F
:1007E000A7191BE08F783602091D06EB0746A719EB
:1007F00014E04F788E78C91C3F0207EB0646A71914
:100800000CE0F6B211F8167016F801B04FEA0B2B97
:100810000BEB0747E71906EB46046118DFF8EC45D8
:10082000FEB204EB8606766806EB95263D0A5FFA73
:1008300085FB2D0A04EB8B0BB70504EB8505BF0D7B
:10084000DBF804B00BEB962B6D684FEA8B56B60DB8
:1008500005EB9B2546EA0746AF05BF0D26FB0EA418
:1008600007EB470A26FB0C99A4F5D85409EB4A0A72
:100870004FF0010926FB09F907EB4706B144009E3A
:10088000F60608D5166AE318A3EB0803A04653FB47
:1008900016F35B001C46019EA403178D54FB16F44F
:1008A000039E4743401C24F38F0480B226F8174070
:1008B000D48CA042FFF681AFC2F80890C2F80CA019
:1008C000D5611361C2F81480029804B090610020D1
:1008D000BDE8F08F0000804226B4974126B417404F
:1008E0006F12033F000000422DE9F24FD2F818804A
:1008F00083B011695369CDF80880166BD2F81CE0FB
:10090000D2F80880D2F80C900196566B4FF4803ADA
:10091000DFF8E4CCDFF8F4B40096D48C0026002C89
:1009200078D0558D012D06D1009D50F8044BAD06B1
:1009300012D564BA10E0EDB205EB450410F815705D
:10094000245C3F0407EB04642F5C04EB0724077866
:1009500000EB850054FA87F4E5B20BEB85056D6872
:1009600005EB9E254FEA142E5FFA8EF74FEA1E2EF6
:100970000BEB8707AC05A40D7F6807EB9525AF054A
:10098000BF0D47EA04445FFA8EF74FEA1E2E0BEBC9
:1009900087070BEB8E0E24FB0C997F68DEF804E0D2
:1009A00007EB95270EEB972EBD05AD0D4FEA8E5741
:1009B000BF0D47EA054525FB0A97DFF8409C24FB5D
:1009C0000988DFF83C9C25FB09894FF0010824FBCE
:1009D00008F8DFF8384D25FB0488009DA7F5804412
:1009E000ED0607D5156A6118C91A234651FB15F1A2
:1009F00049000C46019D6403178D54FB15F4039DBB
:100A00007743761C24F38F04B6B225F81740D48CB4
:100A1000A64286D3C2F80880C2F80C90C2F81CE047
:100A200011615361029804B090610020BDE8F08F1D
:100A30002DE9F24F946983B0116953690294166BE2
:100A4000D7699468D2F80C800196566BDFF8C0AC79
:100A5000DFF8B8B30096B2F826C00026BCF1000F4C
:100A600000F0BB80558D012D0BD1009D50F804EB9B
:100A7000AD0650F802CB23D59EFA9EFE9CFA9CFC54
:100A80001EE0EDB205EB450C10F815E010F82590CE
:100A90001CF800C04FEA0E4E0EEB0C6C15F800E08F
:100AA0000CEB0E2C90F800E05CFA8EFE05EB850C4A
:100AB0001CF800C009EB0C2C05EB450900EB4900C4
:100AC0005FFA8EF50BEB85056D6805EB97294FEA0C
:100AD0001E25EFB22D0A0BEB87074FEA895E4FEA1E
:100AE0009E5E7F6807EB99294FEA8957BF0D47EA59
:100AF0000E4EEFB22D0A0BEB87070BEB85052EFB95
:100B00000A887F686D6807EB99274FEA875905EBDC
:100B100097274FEA9959BD05AD0D45EA09455FFA9A
:100B20008CF9CCF3072C0BEB89090BEB8C0CD9F867
:100B30000490DCF804C009EB97274FEA87590CEBC7
:100B400097274FEA99594FEA875C4FEA9C5C4CEA39
:100B5000094CDFF8A49A25FB09884FF480392CFB57
:100B60000989DFF8B08B2EFB08444FF01B1825FBDA
:100B70000844DFF8A48B2CFB084801242EFB04F466
:100B8000DFF888EB25FB0E44DFF890EE2CFB0E44DB
:100B9000DDF800E0A9F5584C5FEACE6E08D5D2F832
:100BA00020E06144C91A634651FB1EF149008C469E
:100BB000DDF804E04FEACC2C158D5CFB1EFCDDF863
:100BC0000CE07543761C2CF38F0CB6B22EF815C0D2
:100BD000B2F826C06645FFF445AF9460C2F80C80B9
:100BE000D76111615361029804B090610020BDE8A3
:100BF000F08F000003464FF0000C2DE9F24F906992
:100C000082B0D2F81080D2F814900190106BD2F814
:100C10001CE0D2F808A0D2F80CB00090D08C0028CC
:100C200000F0D480518D012909D1F3E802010D466D
:100C300092F83410890624D540BA6DBA21E001EB50
:100C4000410013F8114001EB4105C05C24046D0024
:100C500004EB0060CC5CED5C00EB04201C7850FAE7
:100C600084F0C1EBC1042D04E45C05EB046401EBEA
:100C70008105ED5C04EB052413F8215003EBC1035F
:100C800065196249C4B2000AC6B201EB860601EBDF
:100C9000840476686468A6444FEA8E5406EB9E2668
:100CA0004FEA102EA40DB005800D40EA04405FFA13
:100CB0008EF44FEA1E2E01EB840401EB8E0E646865
:100CC000DEF804E004EB96260EEB962EB405A40D98
:100CD0004FEA8E56B60D46EA0444EEB201EB8606A4
:100CE000766806EB9E264FEA152E5FFA8EF74FEADE
:100CF0001E2E01EB8707B505AD0D7F6807EB962625
:100D0000B705BF0D47EA05455FFA8EF74FEA1E2E7D
:100D100001EB870701EB8E017F68496807EB962797
:100D200001EB972EBE05B60D4FEA8E51890D41EAB3
:100D30000641DFF8446B20FB06BBDFF8D4694FEABD
:100D40009E2E24FB06BBDFF8B06825FB06BB4FF4E4
:100D5000803621FB06B6DFF8C8BC20FB0BAA21FBBE
:100D60001BAADFF8C0BC24FB0BAA25FB1BAB4FF072
:100D7000010A20FB0AF0DFF894A924FB0A00DFF83F
:100D80009CAC25FB0A00DFF8A4AE21FB0A0A116A1D
:100D9000A6F5003041B18044A8EB090858FB11F1D9
:100DA00081464FEA4108404600998002148D50FB6D
:100DB00011F0029904FB0CF40CF1010C20F38F00EC
:100DC00021F81400D08C8445FFF62CAFC2F808A09F
:100DD000C2F80CB0C2F81CE0C2F81080C2F814903F
:100DE000019803B090610020BDE8F08F002004E07E
:100DF0000010005CCDB5E8B58844025801C3F2A3E9
:100E00009781CFE100300240C2A507F468010020BD
:100E10002DE9F24FD2F8188083B011695369CDF8EB
:100E20000880D2F830A0D2F81CE0D2F80890D2F8AE
:100E30000C80CDF804A0D68C4FF0000A002E00F0F4
:100E40001481548D012C0ED192F8344050F8046B6B
:100E500050F8047BA40650F802CB35D576BA7FBA99
:100E60009CFA9CFC30E0E4B204EB440610F81470E9
:100E700004EB440C10F83450365C3F044FEA4C0C41
:100E800007EB0666275C1CF800C006EB0726077810
:100E900056FA87F6C4EBC4074FEA0C4C3F5C0CEBE8
:100EA000076704EB840C1CF800C007EB0C2710F854
:100EB00024C0674404EBC40C1CF800C005EB0C2CE8
:100EC00004EB840500EB4500DFF85C4BF5B204EB66
:100ED00085056D68AE44350A5FFA85FB4FEA8E568C
:100EE00004EB8B0B2D0AB60DDBF804B00BEB9E2E3A
:100EF0004FEA8E5B4FEA9B5B4BEA064BEEB22D0A44
:100F000004EB860604EB8505CDF800B076686D68C5
:100F100006EB9E2E4FEA8E5605EB9E2EB60D4FEA3F
:100F20008E55AD0D45EA064BFEB23F0AFDB204EB0D
:100F300086063F0A04EB850576686D6806EB9E2EF3
:100F40004FEA8E5605EB9E2EB60D4FEA8E55AD0D2F
:100F500045EA0646FDB23F0A04EB850504EB870728
:100F60006D687F6805EB9E254FEA855E07EB95254A
:100F70004FEA9E5EAF05BF0D47EA0E475FFA8CFE53
:100F8000CCF3072C04EB8E0E04EB8C0CDEF804E0A3
:100F9000DCF804C00EEB95250CEB95244FEA855E3A
:100FA0004FEA9E5E4FEA845C4FEA9C5C4CEA0E4C32
:100FB0004FEA942E009DDFF8784C25FB0488DFF87B
:100FC000B8482BFB0488DFF8484726FB0488DFF885
:100FD000284627FB04884FF480342CFB0484DFF878
:100FE000548C25FB0898DFF8509C2BFB09884FF0A8
:100FF0004B1926FB0988DFF8449C27FB0988DFF89A
:10100000409C2CFB09884FF0010925FB09F5DFF80E
:10101000FC962BFB0959DFF8045A26FB0596DFF8EE
:101020000C9C27FB0966DFF8D47E2CFB0769176A46
:10103000A4F57A3637B17118C91A51FB17F1334646
:1010400049000E46019F7602B2F828C056FB17F6FB
:10105000039F0CFB0AFC0AF1010A26F38F0627F80E
:101060001C60D68CB245FFF6ECAEC2F80890C2F810
:101070000C80C2F81CE011615361029804B09061C9
:101080000020BDE8F08F000000FC0F0029140008CC
:10109000DD140008051600081D1700087D1800085B
:1010A0002D1A0008451C0008010003000300010080
:1010B0002DE9F24F0546144687B04FF000086069ED
:1010C000D4F810A00490A0690690216BE769D4F8C9
:1010D00008C0D4F80CE00591E08C002800F0938162
:1010E000B4F82A90B9F1010F0DD194F83490F5E8D5
:1010F00002015FEA8969F5E8022351D540BA49BA8D
:1011000052BA5BBA4CE05FFA89F909EB490015F86D
:10111000191009EB490209EB8903405D09045200EB
:101120005B00C9EBC90601EB006019F80510525DC0
:101130005B5D760000EB0120297812041B04765DCC
:1011400050FA81F0C9EBC901495D360402EB016137
:1011500009EB8902525D01EB022115F8292089185B
:101160000B2212FB0952127803EB026209EBC9034E
:101170005B5D02EB032215F83930D218C9EB091375
:101180005B5D06EB03630D2616FB0956367803EB11
:10119000062309EB4906B600765D05EB09159B1998
:1011A000DFF88498C6B209EB86067668F719060A56
:1011B0005FFA86FBB80509EB8B0B360A800DDBF86E
:1011C00004B00BEB97274FEA875B4FEA9B5B4BEA38
:1011D000004BF0B2360A09EB800009EB8606CDF829
:1011E0000CB04068766800EB9727B80506EB9727A8
:1011F000800DBE05B60D46EA0046C8B209EB800078
:101200000296406800EB9726080AC1B209EB8101FB
:10121000B705BF0D496801EB9626010AB005800DA0
:1012200040EA0747C8B2090A09EB800009EB8101CF
:1012300001974068496800EB962701EB9721B805B4
:10124000800D8F05BF0D47EA0047D0B209EB800043
:101250000097406800EB9127100AC2B209EB8202A6
:10126000B905890D526802EB9727020AB805800D6F
:1012700040EA0140D1B2120A09EB810109EB820276
:101280004968526801EB972702EB9722B905890D4F
:101290009705BF0D47EA0141DFB209EB87077F6879
:1012A00007EB92261A0AD3B209EB8303B705BF0DE9
:1012B0005B6803EB9626130AB205920D42EA0742D9
:1012C000DFB21B0A09EB870709EB83037F685B68C2
:1012D00007EB962603EB9629B705BF0D4FEA895316
:1012E0009B0D43EA07434FEA9927039EDFF8109CC2
:1012F00026FB09EE029EDFF80C9C26FB09EE019E00
:10130000DFF8049C26FB09EEDFF82499009EDDF847
:1013100008B026FB09EEDFF86095039E20FB09EE7E
:10132000DFF8EC9321FB09EEDFF8CC9222FB09EE0B
:101330004FF4803923FB09E9DFF8D0EB26FB0ECC14
:10134000029EDFF8CCEB26FB0ECC019EDFF8C4EB4F
:1013500026FB0ECC009EDFF8C0EB26FB0ECCDFF8A0
:10136000BCEB039E20FB0ECCDFF8B4EB21FB0ECCD4
:10137000DFF8B0EB22FB0ECCDFF8ACEB23FB0ECE9C
:101380004FF0010C26FB0CFCE04E2BFB06CCDDF8ED
:1013900004B0DFF888662BFB06CCDDF800B0DFF880
:1013A0008C682BFB06CCDFF8546B20FB06C0DFF803
:1013B0007CCB21FB0C00DFF8781B22FB0100DFF85F
:1013C000741B23FB010C206AA9F5801148B1049B12
:1013D00001EB0A020491D21A52FB10F04FEA400AC4
:1013E00051460598C901228D51FB10F0079902FB67
:1013F00008F208F1010820F38F0021F81200E08CB8
:101400008045FFF66DAEC4F808C0C4F80CE0E76193
:10141000C4F810A004986061069808B0A06100208C
:10142000BDE8F08F070006002DE9F04F8A46946969
:1014300083B0116953690294176BD2F81C909468B9
:10144000D2F80C800197D2F820E0D78CCDF800E0DC
:10145000012F35DBDFF8E0CADFF8E0EADFF8E0BAB9
:1014600050F8025B6DBAEEB2C5F307250BEB8606AA
:101470000BEB85056D6876684E444FEA865905EB9F
:1014800096254FEA9959AE05B60D46EA09464FEA48
:10149000952926FB0E4526FB0CF4009EA5F500655C
:1014A0006918C91A2B4651FB16F1019D49000E041B
:1014B00056FB15F57F1E25F38F052AF8025BCFD169
:1014C0009460C2F80C80C2F81C90116153610298BC
:1014D00003B090610020BDE8F08F00002DE9F04FCF
:1014E000956984B01369D2F814800395D2F830E07E
:1014F000D569D2F80890D2F80CA0CDF808E0B2F87F
:1015000026E04FF0000CCDF800E0D2F820E0CDF856
:1015100004E0DDF800E0BEF1010F5FDBDFF81CEA5C
:101520000CEBDC77C47806787F10BCEB470706D15C
:10153000360206EB04444678801CA61905E087783D
:101540002402001D04EB07443619DFF8DC44F7B22F
:1015500004EB87070CF1010C7F6807EB9527350A30
:101560005FFA85FB2D0A04EB8B0BBE0504EB8505AA
:10157000B60DDBF804B00BEB97276D684FEA875B7D
:101580004FEA9B5B4BEA064605EB972526FB0EA42C
:10159000DFF8B0A9AF05BF0D26FB0A9907EB470A94
:1015A000A4F5D854E31809EB4A0A4FF0010926FBC9
:1015B00009F907EB4706A3EB0803A046B144019ED7
:1015C000029C53FB16F35B009E0356FB14F424F3BA
:1015D0008F0421F8024B009CA445A1DBC2F80890BF
:1015E000C2F80CA0D5611361C2F81480039804B04E
:1015F00090610020BDE8F08F030006000C000A0097
:101600000A000C002DE9F04F8946946983B01169F6
:1016100053690294176BD2F81CE09468D2F80C80DE
:101620000197156AD78C0095012F61DBDFF818C987
:10163000DFF8F4B350F8045B6DBAEEB20BEB86063C
:10164000766806EB9E264FEA152E5FFA8EFA4FEA71
:101650001E2E0BEB8A0AB505AD0DDAF804A00AEBD5
:1016600096264FEA865A4FEA9A5A4AEA05455FFAA1
:101670008EFA4FEA1E2E0BEB8A0A0BEB8E0E25FB21
:101680000C88DAF804A0DEF804E00AEB962A0EEBE8
:101690009A2E4FEA8A56B60D4FEA8E5A4FEA9A5A58
:1016A0004AEA06464FF4803A26FB0A8ADFF89C880D
:1016B00025FB0844DFF8988826FB0848012425FB11
:1016C00004F4DFF8905826FB0544AAF58045009EF7
:1016D0006918C91A2B4651FB16F1019D49004E03AA
:1016E00056FB15F57F1E25F38F0529F8025BA1D166
:1016F0009460C2F80C80C2F81CE01161536102983A
:1017000003B090610020BDE8F08F000006000300E8
:101710000A000F0019001500150019002DE9F04FFF
:101720008A46946983B0116953690294176BD6692C
:101730009468D2F80C800197D2F820E0D78CDFF8BB
:10174000E8B2CDF800E0012FC0F2898050F804CB58
:1017500050F8025B9CFA9CFE95FA95FC5FFA8EF5B8
:101760000BEB85056D6805EB96294FEA1E25EEB259
:101770002D0A0BEB86064FEA895E4FEA9E5E76687D
:1017800006EB99294FEA8956B60D46EA0E4EEEB29F
:101790002D0A0BEB86060BEB850576686D6806EB6C
:1017A00099264FEA865905EB96264FEA9959B505D1
:1017B000AD0D45EA09455FFA8CF9CCF3072C0BEB2C
:1017C00089090BEB8C0CD9F80490DCF804C009EB08
:1017D00096264FEA86590CEB96264FEA99594FEA1E
:1017E000865C4FEA9C5C4CEA094CDFF86C972EFB58
:1017F0000988DFF8549725FB09884FF480392CFBC2
:101800000989DFF858872EFB08444FF01B1825FB89
:101810000844DFF84C872CFB084801242EFB04F415
:10182000DFF830E725FB0E44DFF838E72CFB0E44E9
:10183000A9F5584CDDF800E06144C91A634651FB34
:101840001EF1DDF804C049004FEAC12E5EFB1CFC0E
:101850007F1E2CF38F0C2AF802CB7FF477AF9460B5
:10186000C2F80C80D66111615361029803B0906197
:101870000020BDE8F08F000015001C0003462DE994
:10188000F04F906984B01469D2F814800390106B03
:10189000D2F81CE0D2F808A0D2F80CB00290156A79
:1018A000D08C01280195C0F2AA8000914FEA000C6B
:1018B000F3E8020145BA91FA91F95B48E9B200EB0D
:1018C000810149688E44290ACEB24FEA8E5500EB59
:1018D0008606AD0D766806EB9E264FEA112EB10501
:1018E000890D41EA05415FFA8EF54FEA1E2E00EBA5
:1018F000850500EB8E0E6D68DEF804E005EB96269C
:101900000EEB962EB505AD0D4FEA8E56B60D46EA96
:1019100005455FFA89F600EB8606766806EB9E269B
:101920004FEA192E5FFA8EF74FEA1E2E00EB87075B
:101930004FEA86594FEA99597F6807EB9626B70513
:10194000BF0D47EA09495FFA8EF74FEA1E2E00EBFA
:10195000870700EB8E007F68406807EB962700EB57
:10196000972EBE05B60D4FEA8E50800D40EA064018
:10197000DFF8F46521FB06BBDFF8DC654FEA9E2E3D
:1019800025FB06BBDFF8C06529FB06BB4FF480369C
:1019900020FB06B6DFF888B021FB0BAA20FB1BAAB0
:1019A000DFF880B025FB0BAA29FB1BAB4FF0010A27
:1019B00021FB0AF1DFF89CA525FB0A11DFF85CA0EA
:1019C00029FB0A11DFF8A4A520FB0A1AA6F50030AE
:1019D00001990419A4EB0804804654FB11F1029804
:1019E0004C00A10251FB10F00099891CBCF1010CC4
:1019F00020F38F00009121F8020D7FF459AFC2F857
:101A000008A0C2F80CB0C2F81CE01461C2F814803F
:101A1000039804B090610020BDE8F08F0F000A0029
:101A20002A00240030002E00680100202DE9F04F2C
:101A30008A46D2F8188086B011695369CDF81480AF
:101A4000176BD569D2F80880D2F80C900497D2F8B9
:101A500020E0D78CCDF80CE0012FC0F2D980CDF872
:101A600008A0BA4650F8047BDFF8D4B450F804CB91
:101A70007FBA9CFA9CFE5FFA87FC3F0A50F8024B43
:101A80000BEB8C0C64BA0194DCF804C0AC44FDB2DE
:101A90000BEB85054FEA8C54A40D6D6805EB9C2576
:101AA0004FEA172CAF05BF0D47EA04475FFA8CF4E5
:101AB0004FEA1C2C0BEB84040BEB8C0C6468DCF8F9
:101AC00004C004EB9525AC050CEB9525A40D4FEA5D
:101AD000855C4FEA9C5C4CEA044C5FFA8EF40BEB9D
:101AE0008404646804EB95254FEA1E24E6B2240AB8
:101AF0000BEB86064FEA855E4FEA9E5E766806EB44
:101B00009525AE05B60D46EA0E4EE6B2240A0BEB5D
:101B100086060BEB84047668646806EB9526B505AB
:101B200004EB9626AD0DB405A40D44EA0544019DD1
:101B3000EDB20BEB85056D6805EB96260096B505B5
:101B4000019EAD0DC6F307260BEB8606DDF800B04F
:101B5000766806EB9B2B4FEA8B56B60D46EA054698
:101B60004FEA9B25DFF8C8B027FB0B99DFF8F8B3E5
:101B70002CFB0B99DFF8E0B32EFB0B99DFF8C8B311
:101B800024FB0B994FF4803B26FB0B9BDFF8A490C2
:101B900027FB0988DFF8A0902CFB09884FF04B1930
:101BA0002EFB0988DFF8949024FB0988DFF89090D9
:101BB00026FB09894FF0010827FB08F7DFF894831B
:101BC0002CFB0878E74FDDF80CC02EFB0788174F79
:101BD00024FB0788C94F26FB0788ABF57A377918AD
:101BE000C91A51FB1CF13B46049F49004FEA412CA6
:101BF0005CFB17F7DDF808C0BAF1010A0CF1020C22
:101C000027F38F07CDF808C02CF8027D7FF42AAFA8
:101C1000C2F80880C2F80C90D56111615361059833
:101C200006B090610020BDE8F08F00001C00150098
:101C300024002D003F0037004900450045004900C1
:101C400037003F002DE9F54F906986B0D2F810902B
:101C5000D2F814A005900798026BC669D0F808B0B6
:101C6000D0F80CC007980492026AB0F826E00392FC
:101C7000BEF1010FC0F22C810291069A0832069241
:101C8000083ADDF81880D2E9000108F1080840BAE6
:101C9000CDF81880A8F10808C4B2000AD8E90023DA
:101CA00092FA92F85ABAC5B2A54B03EB850549BA28
:101CB00003EB84046D686468A619B40505EB9625EA
:101CC000060AA40DA805800D40EA0440F4B2360AC5
:101CD00003EB840403EB86066468766804EB9525C1
:101CE000AC0506EB9525A40DAE05B60D46EA0444F9
:101CF000CEB2090A03EB86060194766806EB9526B8
:101D0000CDB203EB8505B405A40D6D6805EB9625F2
:101D10000E0AA905890D41EA0444F1B2360A03EB23
:101D2000810103EB860600944968766801EB9524EF
:101D300006EB9426A105890DB405A40D44EA0141E2
:101D40005FFA88F403EB8404646804EB96244FEA9A
:101D50001826F5B2360A03EB85054FEA84584FEA98
:101D600098586D6805EB9424A505AD0D45EA084823
:101D7000F5B2360A03EB850503EB86066D687668D7
:101D800005EB942506EB9526AC05A40DB505AD0D28
:101D900045EA0444D5B203EB85056D6805EB96254D
:101DA000160AF7B2360A03EB8707AA05920D7F6879
:101DB00007EB9525AF05BF0D47EA0242F7B2360A99
:101DC00003EB870703EB86037F685B6807EB9527C8
:101DD00003EB9726BD05AD0DB3059B0D43EA054307
:101DE000474D20FB05CC019F464DB60A27FB05CC8D
:101DF000009F454D27FB05CC5D4D019F21FB05CC88
:101E0000594D28FB05CC544D24FB05CC4E4D22FBEF
:101E100005CC4FF4803523FB05C5DFF8F0C020FB6F
:101E20000CBBDFF8ECC027FB0CBB009FDFF8E4C065
:101E300027FB0CBBDFF8E0C0019F21FB0CBBDFF8E8
:101E4000DCC028FB0CBBDFF8D8C024FB0CBBDFF8E0
:101E5000D4C022FB0CBBDFF8D0C023FB0CBC4FF07E
:101E6000010B20FB0BF0DFF8ECB027FB0B00009F11
:101E7000DFF8F0B027FB0B00DFF8F0B021FB0B0020
:101E80001E4928FB0100294924FB0100284922FBA7
:101E90000100284923FB010BA5F58010039900EBF5
:101EA0000902A2EB0A02824652FB11F104984FEAA2
:101EB00041094FEAC91151FB10F00299891CBEF18A
:101EC000010E20F38F00029121F8020D7FF4D5AEB0
:101ED0000798C0F808B00798C0F80CC00798C6610A
:101EE0000798C0F810900798C0F814A005980799B3
:101EF00008B088610020BDE8F08F00002D002400AC
:101F0000690078004E005B003700420096008800B0
:101F1000AC00A200BA00B400C000BE00BE00C00009
:101F2000B400BA00A200AC0088009600420037005E
:101F30005B004E007800690003000100010003000F
:101F40006801002007000600030006000C000A00DC
:101F50000A000C00060003000A000F00190015001B
:101F6000150019000F000A0015001C001C001500C8
:101F700024002D00002200F08FBAF0B40246106851
:101F800095681318506803EB5004C0071DD54D44E5
:101F90001BE013F8017B05F8017B491EF9D1A0B1C4
:101FA000B60813F8011B06F00306032E08BF13F84A
:101FB000016B01EB06214942801C294405D011F830
:101FC000016B05F8016B401EF9D1A3420ED013F846
:101FD000016B16F0030104BF13F8011BC91C300983
:101FE0000F28DAD113F8010B0F30D6E7F0BC02F15D
:101FF0000C00704738B52DED028B82B00400B0EEB6
:10200000608A1CBF0020206018EE100A41001EBF2D
:10201000F7EE000AB4EE600AF1EE10FA0ED0BFEE51
:10202000001AB4EE410AF1EE10FA0BD118EE101AB4
:1020300048000016401C05D1490203D102B0B7EE9A
:10204000000AA9E110EE100A40000016401C0AD058
:1020500010EE100A400006D018EE100A40000016DC
:10206000401C40F0AE8010EE101A49000816401CCB
:1020700002D1090240F08F8118EE101A49000816AB
:10208000401C05D1090218BFB0EE480A40F0838118
:1020900018EE101A490001200916491C3BD018EE11
:1020A000102A510008BFF0EE480A0FD0090EC1F106
:1020B00096011829A8BF02F0004205DA0029C4BF22
:1020C00022FA01F303FA01F200EE902AB4EE608ADC
:1020D000F1EE10FA18BF002010EE902A510008BF50
:1020E000B0EE601A0FD0090EC1F197011829A8BFF0
:1020F00002F0004205DA0029C4BF22FA01F303FA14
:1021000001F201EE102A30B1F4EE410AF1EE10FABC
:102110000CBF0020012010EE102A51000916491CA6
:102120000AD1520208D110EE101AC90F1AD118EEB6
:10213000100AC00F41D037E018EE102A51000916DE
:10214000491C15D1520213D110EE101A21F0004093
:10215000B0F5000F16D200210091B0B1684600F032
:10216000D9F912E018EE101AC90F21D0E0B105E03C
:10217000B0B918EE101AC90F1AD1A8B102B09FED6C
:10218000880A09E1C00D7E38009018EE100AC00FD1
:10219000009802D1002810DC06E0002804DC0CE0E6
:1021A00010EE100AC00FE4E702B09FED7E0AF3E0E4
:1021B00018B102B09FED7C0AEEE002B09FED7B0A01
:1021C000EAE018EE101A480008BFF0EE488A0FD077
:1021D000000EC0F196001828A8BF01F0004105DAF2
:1021E0000028C4BF21FA00F202FA00F108EE901AAA
:1021F00010EE100AC00F1CBFB4EE688AF1EE10FAA0
:1022000005D0AFF3008002B09FED690AC4E010EE84
:10221000101A21F00040B0F5000F06D20021009105
:1022200060B1684600F076F908E0C00D21F0FF418A
:102230007E3841F07C51009000EE101A10EE100A2A
:10224000C00F21D010EE100A20F0004000EE100A5E
:1022500018EE901A480008BFF0EE680A0FD0000E82
:10226000C0F197001828A8BF01F0004105DA002846
:10227000C4BF21FA00F202FA00F100EE901AF4EE67
:10228000608AF1EE10FA01D1002500E00125DFEDB2
:10229000490AB4EE600AF1EE10FA06D50098B0EEE5
:1022A000001A401E20EE010A0090FFEE000A70EEB8
:1022B000200AB7EE001A30EE010A80EE800A20EE06
:1022C000001ADFED3D1A9FED3D2A01EE212ADFEDD8
:1022D0003C2A42EE012A62EE812A72EEE02A22EEC8
:1022E000800A30EE800ADDED000AF8EEE00A9FED8C
:1022F000351AF0EE601A40EE011A21EE881A9FEDB1
:10230000322AB4EE421AF1EE10FA41D4DFED2F2A50
:10231000B4EE621AF1EE10FA33DA11EE100AC00FC1
:1023200006D0FEEE001A31EE211ABDEEC11A05E00C
:10233000B6EE002A31EE022ABDEEC21A60EE880A1D
:10234000F8EEC11A70EEE10A20EE080ADFED201A5D
:1023500000EEA10A1CB184ED001A9FED121A11EED5
:10236000100AF7EE000A00F0F9F810EE100A41002A
:102370000ED010EE101A48000016401C03D149027E
:1023800001D19FED0A0A35B102B0B1EE400A03E077
:102390009FED040AF7E702B0BDEC028B31BD0000EF
:1023A0000000008000000000000080FF0000807F2F
:1023B000FFFFFF7FF304353F1502993E11AECC3E7F
:1023C000C0AA2A3F3BAAB83F000000C7010000474F
:1023D0001872313F00200DE600EE100AB7EEC00A79
:1023E00051EC100B704730B4002513E050F8042B6B
:1023F000D30744BFA9F101039A18091F042942F821
:10240000045BFAD213468C0744BF15809B1CC90796
:1024100048BF1D7050F8041B0029E7D130BC70473D
:1024200051EC100B00B500F003F841EC100B00BDAF
:1024300040F2FF7C0CEA115240F2FE33D21A17DD53
:10244000352A1DDAB2F1150308DA6FEA4C53D3408E
:1024500031EA5301C9189943002070476FF0000218
:10246000DA4030EA5200801841F100019043704791
:1024700001F0004104BF41F07C5141F470010020A3
:10248000704741EC100BBCEEC00B10EE100A704709
:1024900062F30F2262F31F42401810F0030308D0CA
:1024A000C91A1FD3DB0748BF00F8012D28BF20F849
:1024B000022D130030B414461546103928BF20E908
:1024C0003C00FAD8490728BF20E90C0048BF40F873
:1024D000042D890028BF20F8022D48BF00F8012DE7
:1024E00030BC7047C91818BF00F8012DCB0728BFB2
:1024F00000F8012D7047B1F5807F02D34FF0FF3017
:1025000070470170012070470078401E8041C04331
:10251000C00F7047034610EE100AF44600F004F8AE
:10252000196000EE100A6047C0F3C75129B1FF29B6
:1025300012D07E39A0EBC1507047C0420DD000F0E0
:1025400000424002B0FA80F188407E31494242EABE
:10255000102000F17A5070470021704710EE101AD9
:10256000490010B50916491C1AD010EE101A49007E
:1025700016D010EE901A49000916491C10D010EE22
:10258000901A49000CD09FED8B1AB4EE410AF1EE7F
:1025900010FA40F1808010EE901A01F000408AE0BD
:1025A00010EE102A52001116491C02D1120240F0FE
:1025B000FF8010EE902A52001116491C01D1120220
:1025C00041D110EE901A490008D110EE101A4800BF
:1025D0000016401C37D1490235D10EE00916491CBE
:1025E00010EE902A0ED152020CD110EE101A4800B3
:1025F0000016401C27D1490225D1AFF300809FED82
:102600006E0A10BD10EE101A49001FD110EE903A5C
:1026100023F00042D10D00EB010422D12AB1B0EE2B
:10262000600A00F0D9F8F0EE400A10EE900A41007E
:1026300007D010EE901A48000016401C03D1490242
:1026400001D1AFF30080B0EE600A10BD10EE101A99
:1026500048000016401C19D1490217D120EE200A6B
:1026600010BD002CDADDFF2C09DB10EE901A4FF0C4
:10267000FF4001F00041084300EE900AD5E723F047
:10268000FF4343EAC45300EE903ACEE710EE901AAF
:1026900001F000400FE09FED491AB4EE410AF1EE5F
:1026A00010FA0BDB10EE901AAFF300804FF0FF40F2
:1026B00001F00041084300EE100A10BD9FED401AE2
:1026C00020EE011A11EE102A4FF07C5102F0004268
:1026D000114301EE901A31EE211ABDEEC11A11EE2E
:1026E000101AB8EEC11ADFED371A01EE610A9FED3C
:1026F000362A01EE420A10EE102A22F0004201EEC4
:10270000102ADFED321AB4EE611AF1EE10FA48BF6A
:10271000B0EE600A1DD4DFED2E2AB6EE003A20EEB0
:10272000001A9FED2C2A01EE223A61EE021A23EEE6
:10273000000A31EE801A31EEC00AF7EE003AF7EEE9
:10274000001A71EE233A70EE211AC3EEA11A21EE9F
:10275000A00A10EE103A401823F00042D10D00EB11
:10276000010414D0002C12DDFF2C09DB10EE101A2E
:102770004FF0FF4001F00041084300EE100A09E06D
:1027800023F0FF4343EAC45300EE103A02E00AB1DB
:1027900000F022F810EE100A410007D010EE101AD7
:1027A00048000016401C03D1490201D1AFF300805C
:1027B00010BD00BF000065C3FFFFFF7F0100654340
:1027C0003BAAB83F0060313FBFBF903901000033E2
:1027D0001354083C9EBFCC3D010010EE100AC0F31C
:1027E000C7520AD4D2B3FF2A37D05218FF2A4CD28C
:1027F00000EBC15100EE101A7047494232B3FF2A74
:102800002BD0914204D2A0EBC15100EE101A7047B8
:10281000521E891AA0EBC25000EE100A192918D8CE
:10282000C1F17F01C90500EE901AF1EE101A21F0F6
:102830001F0020F4F850E1EE100A20EE200AF1EE1D
:10284000100AE1EE101A000925D27047C042E5D106
:10285000704700F0004000EE100A7047C042FCD004
:102860007F2906D87F31C90500EE901A20EE200A94
:1028700070474FF0FE4000EE900A20EE200A7F39AC
:1028800010EE100AC0F3C752AFE7C10D41F0FF01CF
:10289000C90500EE101AAFF30080704700F5E07034
:1028A0000268914203D343681A44914202D380687C
:1028B0000028F5D17047DFF86C17086890B94FF41D
:1028C000805048604FF480324FF0FF30C86008619C
:1028D0000420DFF854378A604861C3F8BC01DFF890
:1028E0004C0708600120704701F1080313F0070F3F
:1028F0000EBF0023C3F1080303F007031944D21AE3
:102900008161C26042F001034B60091D4FF0280C49
:1029100041F802C0DFF80C271369C36170472DE945
:10292000FC4B074601F1080010F0070F0FBF894666
:10293000C0F1080000F0070001EB000902F10801F6
:1029400011F0070F06D002F10800C0F1080000F0F6
:10295000070002441546A5EB090009EB0306A0EBAE
:10296000030B43F00303C9F80430AE4228BF01F063
:1029700005FA2879C10758BF01F000FABBF1100F22
:1029800038BF01F0FBF9B869854208D1F9688B447A
:10299000C7F80CB0BE614BF00100706051E178697E
:1029A00085420AD1B9688B44C7F808B07E614BF004
:1029B0000100706046F80BB043E1686800F0030165
:1029C000012940F0AC80C008C0000190C0081F2859
:1029D00039D8AC68D5F80C800090454508BF01F0A7
:1029E000CDF9A54208BF01F0C9F968680099C0088F
:1029F000C000B0EBC10F18BF01F0C0F9009907F19A
:102A0000280000EBC100844206D039698C42C0F036
:102A10008180E268AA427DD1A04506D1009839683C
:102A2000012383409943396076E0804506D03969B7
:102A300088456FD3D8F80800A8426BD1C4F80C8041
:102A4000C8F8084068E0EC68D5F81880AC420CD0B3
:102A5000A8683969884223D3C268AA4204BFA16822
:102A6000A9421DD1C460A0601CE005F114010C68EE
:102A700034B905F110010C68A4B101E011460C68ED
:102A800004F114021068002802BF04F1100210685B
:102A90000028F3D13869814202D300220A6001E0A4
:102AA00001F06CF9B8F1000F36D0E96907F59870BC
:102AB00000EB81000268954208D10460A4B9E8697E
:102AC0007968012282409143796025E03869804528
:102AD00008D3D8F81010A94214BFC8F81440C8F899
:102AE000104001E001F04AF9B4B139698C4211D3C8
:102AF000C4F81880286928B1884226BF2061846103
:102B000001F03CF9686938B13969884202D36061E3
:102B1000846101E001F032F901996D188B44696814
:102B20004908490069604BF0010070604FEADB041E
:102B300046F80BB01F2C23D807F1280000EBC4087F
:102B40004546BBF1100F38BF01F018F9386820FA7C
:102B500004F1CA0705D4012101FA04F404433C60DE
:102B600007E0D8F80800396988422CBF054601F013
:102B700005F9C8F80860EE60B560C6F80C8060E042
:102B80005FEA1B2008BF002123D0B0F5803F28BF9B
:102B90001F211ED2A0F58072120C02F00802904094
:102BA000A0F58051090C01F004018840A0F5804394
:102BB0001B0CC2F10E0203F00203521AD21A984003
:102BC00002EBD032D01D2BFA00F101F0010101EB34
:102BD0004201F161002307F59872736102EB8100F5
:102BE00033617A6822FA01F3DC0707D4012303FA80
:102BF00001F1114379600660B0611DE002681F2990
:102C00001DBF4908C1F119010BFA01F1594600E055
:102C100002465068C008C000584516D002F11003A3
:102C2000C80F03EB8003490018680028F0D1386909
:102C3000834204D31E60B261F660B66001E001F029
:102C40009DF809F10800BDE8F68B396990688A4261
:102C500028BF8842F3D3C6609660B060F26000205F
:102C6000B061EEE72DE9FE4F04468B46A5692E467E
:102C7000904699463146FFF711FE0268416802EB23
:102C8000010AAAF1270111F007000EBF0021C1F1CE
:102C9000080101F007010AEB0100A0F12F0706F17E
:102CA00010018F4238BF374607F118020021019208
:102CB0000091A8F1280259462046FFF715FE07F1BA
:102CC000080010F0070F18BF01F058F81B207860BB
:102CD00007F1080104F5E07090E80C5081E80C5011
:102CE000C0F800B0C0F80480C0F80C9081600722E2
:102CF0000198009900E0001D491C00F108035345AC
:102D00004260F8D30129D8BF01F038F8B74200F08B
:102D10009580BF1B301D321DC15949084900D15152
:102D200047F0010070604FEAD70BF751BBF11F0F5E
:102D300021D804EBCB0000F12805A846102F38BF9E
:102D400001F01CF8206820FA0BF1CA0705D4012114
:102D500001FA0BF10843206006E0A8682169884267
:102D60002CBF804601F00AF8AE60C8F80C60C6F8C7
:102D70000880F5606FE0380A08BF002123D0B0F565
:102D8000803F28BF1F211ED2A0F58072120C02F0D6
:102D900008029040A0F58051090C01F00401884020
:102DA000A0F580431B0CC2F10E0203F00203521A7D
:102DB000D21A984002EBD032D01D27FA00F101F070
:102DC000010101EB420104EB8102002302F598703E
:102DD000F16173613361626822FA01F3DB0707D4A2
:102DE000012303FA01F1114361600660B0611DE047
:102DF00002681F291DBF4908C1F1190107FA01F135
:102E0000394600E002465068C008C000B84216D0FB
:102E100002F11003C80F03EB800349001868002873
:102E2000F0D12069834204D31E60B261F660B560C0
:102E300011E003B0BDE8F04F00F0A0BF0BE0216946
:102E400090688A4228BF8842F3D3C6609560B0601C
:102E5000F2600020B06103B0BDE8F08F2DE9F041D1
:102E6000704F05463868884608B9FFF724FDB968F1
:102E700001EB08002F30491E20EA010188457DD270
:102E800005F5D876B06828B1326889188A4275D2BB
:102E9000884273D300F076FF01001CBF0C6811F16B
:102EA000010F6BD03068201805F5D8723060536878
:102EB000984238BF18467060A86960BB286908B19D
:102EC000814200D22961316174610020F0614FF0CC
:102ED000FF303A686A62286205F128020020D26059
:102EE000926002F1080757611761801C1032202898
:102EF000F5D34D48854208BFA4F1280228D055F8E3
:102F0000040CC00805EBC002A2F108000A19121A4D
:102F1000283A01461CE005F5E070024600E09268A0
:102F20007AB3136857681F44B942F8D1137B1F075F
:102F300027D4AB691768BB4223D3D2F804C06744D7
:102F4000BB421ED2A444C2F804C0E868A969221892
:102F50002846FFF7C9FC1FE08068C0B103689342B0
:102F6000FAD1027B130712D4026801604368E418A7
:102F7000446043462846BDE8F041D0E40020BDE867
:102F8000F0812A69914238BF29610A19E5E70023D7
:102F900022462846FFF766FEE8688045EED2A0EBA1
:102FA0000800A969E86001EB0802AA6140F001008D
:102FB000506048F00300486001F10800BDE8F0816E
:102FC00030B4184B1A6882B94FF480525A604FF4EB
:102FD00080344FF0FF32DA601A610422124D9C6097
:102FE0005A61C5F8BC21114A1A6011F1400F17D27D
:102FF0008269AAB1C368283199420BD200F5E07109
:103000000C68A24203D34D682C44A24202D38968C3
:103010000029F5D1C16999423CBF4FF0FF32C2612E
:1030200000F0A8BE306B0120C85601206859883CCA
:103030002DE9F84F00258946090AC9F1000B08BFA0
:10304000002323D0B1F5803F28BF1F231ED2A1F556
:103050008072120C02F008029140A1F580531B0C03
:1030600003F004039940A1F58044240CC2F10E0240
:1030700004F00204D21A121BA14002EBD132D11D7E
:1030800029FA01F303F0010303EB4203074607F5B6
:10309000987858F8230030B31F2B0FBF4C465C08BC
:1030A000C4F1190409FA04F4AC46594600E064007E
:1030B0004268D208D200A2EB09028A4203D2110070
:1030C000054600F06981426910304FEAD47B50F820
:1030D0002B00002A1CBF824294460028E7D18B4671
:1030E0006046B0BBBDBB012202FA03F35B0058424D
:1030F000796803430B4000F04E81584203405B1E49
:10310000180B00F01000C340590901F00801CB4032
:103110009A0802F00402D3405C0804F00204081884
:10312000E3401018C3F3400620183044F3401B1846
:1031300058F823000DE008464168C908C900A1EB12
:10314000090159453CBF8B46054601690029F2D16A
:1031500040690028F0D1002D00F01D81B868A0EB77
:103160000900834580F0178139698D42C0F01181D3
:103170006868C008C00009EB0B01884218BF00F066
:10318000FDFD05EB0906B54280F00381EC68D5F83A
:1031900018A0AC420CD0A8683969884223D3C26811
:1031A000AA4204BFA168A9421DD1C460A0601CE06E
:1031B00005F114010C6834B905F110010C68A4B1D3
:1031C00001E011460C6804F114021068002802BFE7
:1031D00004F1100210680028F3D13869814202D34B
:1031E00000220A6001E000F0C9FDBAF1000F36D0FC
:1031F000E86908EB800001688D4209D10460200075
:1032000014D1E8697968012282409143796026E00F
:103210003869824508D3DAF81010A94214BFCAF8F9
:103220001440CAF8104001E000F0A8FDBCB13869B4
:10323000844212D3C4F818A0286930B13969884291
:1032400026BF2061846100F099FD686938B1396951
:10325000884202D36061846101E000F08FFDBBF120
:10326000100F0CD2D94449F00300291D6860281DB5
:1032700051F8092042F0010240F8092088E049F0A5
:10328000030068604BF0010070604FEADB0046F815
:103290000BB01F281DD807EBC00101F128043968C5
:1032A00021FA00F2D307A34605D4012202FA00F066
:1032B0000843386006E0A068396988422CBF83461D
:1032C00000F05CFDA660CBF80C60C6F808B0F460B6
:1032D0005EE05FEA1B2008BF002123D0B0F5803FED
:1032E00028BF1F211ED2A0F58072120C02F0080226
:1032F0009040A0F58051090C01F004018840A0F530
:1033000080431B0CC2F10E0203F00203521AD21AC0
:10331000984002EBD032D01D2BFA00F101F00101F0
:1033200001EB4201F16100227261326108EB810020
:103330007A6822FA01F4E30707D4012404FA01F1C0
:10334000114379600660B0611DE002681F291DBF4E
:103350004908C1F119010BFA01F1594600E0024692
:103360005068C008C000584518D002F11003C80FBB
:1033700003EB8003490018680028F0D138698342C4
:1033800004D31E60B261F660B66001E000F0F6FCA6
:1033900014E100F0F3FC0EE18B46A2E63969906877
:1033A0008A4228BF8842F1D3C6609660B060F2605E
:1033B0000020B061ECE72DE9F84F064688467168B9
:1033C00048420140491E080B00F01000C1404A0964
:1033D00002F00802D1408B0803F00403D9404D08E5
:1033E00005F002051018E9401818C1F34004281828
:1033F00006F5987A2044E14009185AF821104868E7
:10340000C008C0000D46A0EB080909E00146486865
:10341000C008C000A0EB080048453CBF81460D46EF
:1034200008690028F2D149690029F0D13069854244
:10343000C0F0BF806968C90808EB090BC90059458D
:1034400018BF00F09BFC05EB08008542009080F05F
:10345000B080EF68AC69AF420CD0A868316988428F
:1034600023D3C268AA4204BFB968A9421DD1C7606C
:10347000B8601CE005F114010F6837B905F11001BF
:103480000F68A7B101E011460F6807F11402106838
:10349000002802BF07F1100210680028F3D130693C
:1034A000814202D300220A6001E000F067FC002C98
:1034B00031D0E8690AEB800001688D4208D10760CD
:1034C0008FB9E8697168012282409143716022E0FE
:1034D0003069844205D32169A94214BF676127611D
:1034E00001E000F04BFCB7B13069874211D3BC61F9
:1034F000286930B13169884226BF3861876100F0A0
:103500003DFC686938B13169884202D378618761CE
:1035100001E000F033FCB9F1100F0BD24BF00300C7
:10352000291D6860281D51F80B2042F0010240F867
:103530000B203DE048F003012A1D696049F00100BD
:1035400042F80800009941F80990D6F808804FEA3F
:10355000D80BBBF1200F28BF00F010FCB8F1000F12
:1035600022D006EBCB00776900F12804A246B8F11F
:10357000100F38BF00F002FC306820FA0BF1CA07C8
:1035800005D4012101FA0BF10843306006E0A06880
:10359000316988422CBF824600F0F0FBA760CAF870
:1035A0000C70C7F808A0FC60C6F80890009870611D
:1035B00004E000F0E3FB0020BDE8F28F05F1080015
:1035C000BDE8F28F2DE9FE4F0546AFF30080F52DE3
:1035D000DFF89C6780F004810B2D31BF10250B357F
:1035E000ED08ED003068EC08E04010F0030F46D025
:1035F000C04300F00100041906F1280000EBC408E4
:10360000E700D8F808506868C008C000B84218BF82
:1036100000F0B4FBD5F80890454508BF00F0AEFBBC
:103620004D4508BF00F0AAFB6868C008C000B8425A
:1036300018BF00F0A3FBC84507D13068012101FA8B
:1036400004F420EA040434600DE03069814508D3B5
:10365000D9F80C10A94204D1C8F80890C9F80C8018
:1036600001E000F08BFB47F00300291D6860281D76
:10367000CA5942F00102C25105F10804F8E0B168EC
:10368000A94280F0BE80002800F0A1804FF0010820
:1036900008FA04F1490000FA04F4484201430C40DE
:1036A00060420440641E200B00F01000C440610919
:1036B00001F00801CC40A20802F00402D4406308E3
:1036C00003F002030818DC401018C4F34007181870
:1036D0003818FC40241806F1280000EBC40AE70063
:1036E000DAF80890D9F80400C008C000B84218BF42
:1036F00000F044FBD9F808B0D14508BF00F03EFB0C
:10370000D94508BF00F03AFBD9F80400C008C00052
:10371000B84218BF00F032FBDA4506D1306808FA2B
:1037200004F420EA040434600DE031698B4508D3C9
:10373000DBF80C00484504D1CAF808B0CBF80CA05F
:1037400001E000F01BFB7F1B45F0030009F10402C0
:10375000C9F8040047F00101515109EB050201923B
:10376000D751B4684FEAD40ABAF1200F28BF00F04D
:1037700005FB34B3CDF800A006F12800756900EB15
:10378000CA0AD346102C38BF00F0F8FA3168009806
:1037900021FA00F2D30704D408FA00F0084330609D
:1037A00007E0DAF80800316988422CBF834600F050
:1037B000E5FACAF80850CBF80C50C5F808B0C5F8BF
:1037C0000CA0B76009F108040198706150E07068BE
:1037D000C0B329463046FFF7EEFD040011D047E0A4
:1037E00015F1400F28BF4FF0FF350AD20B35ED0819
:1037F0007068ED0028B129463046FFF719FC040037
:1038000036D1B068A8421DD3411B726910290AD372
:1038100050197061B16041F001034360415045F0BF
:10382000030555600BE00021B1607161131D40F08C
:1038300003015160111D1C5844F001040C5002F1A9
:10384000080415E0F06885420DD2401BB169F060B4
:103850004A19B26140F00100506045F003054D6027
:1038600001F1080404E029463046FFF7F7FA044660
:10387000AFF300802046FFF7EEBA002800D1704772
:103880002DE9F047A0F10805AFF30080DFF8E06410
:1038900031698D42C0F05982686800F00302012A44
:1038A00000F05382C2084FEAC209C20705EB0908BB
:1038B00039D42C6810F0030F00F0498260420544AF
:1038C0008D42A144C0F041827069854200F0C680FB
:1038D000E408202C5ED2D5F80CA0AF68554508BF8F
:1038E00000F04CFABD4208BF00F048FA6868C00812
:1038F000C000B0EBC40F18BF00F040FA06F128007A
:1039000000EBC400874205D031698F423FD3FA688B
:10391000AA423CD1BA452CD13068012101FA04F405
:1039200020EA04043460454580F00F82D8F8044052
:10393000E00740F10A82A10700F16881B069804583
:1039400040F09F80F168B5618944C6F80C9049F059
:103950000100686071698D4202D100207061B06021
:10396000F069484580F0F38100213046FFF728FBDD
:10397000EDE1824506D03069824508D3DAF80810B7
:10398000A94204D1C7F80CA0CAF80870CBE700F030
:10399000F5F9C8E7EC68AF69AC420BD0A86888427B
:1039A00022D3C168A94204BFA268AA421CD1C46044
:1039B000A0601BE005F11402146834B905F110028F
:1039C00014689CB101E01A46146804F114031868E5
:1039D000002802BF04F1100318680028F3D18A42BE
:1039E00002D30021116001E000F0C8F9002F9AD045
:1039F000E96906F5987000EB81000268954209D1EB
:103A00000460200011D1E86971680122824091436D
:103A1000716088E73069874205D33969A94214BFCC
:103A20007C613C6101E000F0A9F9002C3FF47BAF20
:103A300031698C42ABD3A761286928B1884226BF7F
:103A40002061846100F09AF9686900283FF46BAF47
:103A5000316988429BD36061846164E798F804000F
:103A600000F0030003287FF45EAFC6F8089049F029
:103A70000101D8F8040040084000C8F8040069605B
:103A80000AE0706980450AD1B16875618944C6F859
:103A9000089049F00100686045F8099057E1E40892
:103AA000E400A144E408202C3AD2D8F80CA0D8F8BD
:103AB0000870D04508BF00F061F9B84508BF00F0B4
:103AC0005DF9D8F80400C008C000B0EBC40F18BFFF
:103AD00000F054F906F1280000EBC400874207D03B
:103AE00031698F42C0F08580FA68424540F081809C
:103AF000BA4507D13068012101FA04F420EA040430
:103B0000346078E0824506D03069824571D3DAF8B6
:103B1000081041456DD1C7F80CA0CAF808706AE0DA
:103B2000D8F80C40D8F8187044450DD0D8F80800E3
:103B30003169884223D3C268424504BFA168414528
:103B40001DD1C460A0601CE008F114010C6834B9F8
:103B500008F110010C68A4B101E011460C6804F1F1
:103B600014021068002802BF04F110021068002837
:103B7000F3D13069814202D300220A6001E000F0F3
:103B8000FDF8002F37D0D8F81C1006F5987000EB20
:103B90008100026890450AD10460200012D1D8F853
:103BA0001C007168012282409143716023E03069FA
:103BB000874205D33969414514BF7C613C6101E00E
:103BC00000F0DCF8BCB131698C4212D3A761D8F89F
:103BD000100028B1884226BF2061846100F0CEF831
:103BE000D8F8140038B13169884202D36061846129
:103BF00001E000F0C3F849F00100686045F8099061
:103C000071698D420BD1C6F80890A0E06408640089
:103C1000C8F8044049F00100686045F809904FEA8F
:103C2000D907202F22D206F1280000EBC704A046B6
:103C3000B9F1100F38BF00F0A1F8306820FA07F191
:103C4000CA0705D4012101FA07F70743376006E0E8
:103C5000A068316988422CBF804600F08FF8A560CB
:103C6000C8F80C50C5F80880EC6070E05FEA1920D5
:103C700008BF002123D0B0F5803F28BF1F211ED2EE
:103C8000A0F58072120C02F008029040A0F580515D
:103C9000090C01F004018840A0F580431B0CC2F11F
:103CA0000E0203F00203521AD21A984002EBD032ED
:103CB000D01D29FA00F101F0010101EB420106F5E6
:103CC0009872002302EB8100E9616B612B617268DD
:103CD00022FA01F3DC0707D4012303FA01F11143AF
:103CE00071600560A8611DE002681F291DBF4908B9
:103CF000C1F1190109FA01F1494600E00246506894
:103D0000C008C000484526D002F11003C80F03EBDD
:103D10008003490018680028F0D13069834204D339
:103D20001D60AA61ED60AD6001E000F027F8306A27
:103D3000401E30620BD1D6F8C80100E08068002830
:103D4000FCD14FF0FF30306201E000F017F8AFF324
:103D50000080BDE8F087316990688A4228BF8842B8
:103D6000E3D3C5609560A860EA600020A861DEE743
:103D7000C856012030BC002070470000012000F030
:103D800017B800000749086808B1002070470648C6
:103D9000C008C00008600549C908C900091A0160C7
:103DA000704700BFA86B0120B77B0120B08B0120BA
:103DB00080B500F007F8024A11001820ABBEFBE7FF
:103DC0002600020080B500F054F802000023DB4317
:103DD0001068984204D011000220ABBE0020106091
:103DE0005068984204D0111D0220ABBE00205060E4
:103DF00001BD0000F0B583B0040000F03AF8A10066
:103E000047183D680026F643B54216D100F01AF86F
:103E10003D68B5420FD100BF09A00090002C01D130
:103E2000002000E004200190032002906946012058
:103E3000ABBE05003D6000F014F8280003B0F0BDF3
:103E40003A7474000C480121BFF35F8FD0E84F3FF4
:103E5000C0E8421F002AF9D1BFF35F8F002BF3D1D6
:103E600070470548BFF35F8F00210170BFF35F8F7C
:103E70007047024870470000AD6B0120E406002047
:103E80002DE9F04F0FF2A41CA1B0DCE90089CDE9C7
:103E900000892A9DDFF8109C049100248DF843507E
:103EA0000D944FF0FF38824616461F460FE0B3468A
:103EB0002C461BF8011B0498D0470028049000F002
:103EC000A2800D98401C641E0D90F2D176193078B6
:103ED000252808D1002100220791089209910A9211
:103EE0000B910C920DE06A464146304600F0B8FF57
:103EF000050001D10D98A1E0D9D50125E6E741F0F3
:103F0000010116F8010F2028F9D023280CD02B2806
:103F100004D02D2805D0302809D076E041F00201E8
:103F2000EFE741F00401ECE741F00801E9E741F077
:103F30001001E6E70F9209E00F98484505DA00EB1B
:103F4000800402EB4402303A0F92761C3278A2F1E0
:103F500030000A28F0D330782E2818BFCDF83880EA
:103F600022D116F8010F2A2807D138683860761C4C
:103F700050F8042B38600E9216E02D280CBF761CEA
:103F8000002000220E920AE040B90E9A4A4505DA56
:103F900002EB820403EB4403303B0E93761C337830
:103FA000A3F130020A2AEFD3ADF8401021A03178F6
:103FB00000F060FF08B116F8010B8DF842009DF883
:103FC0004200682804D1307868280AD1622105E0CF
:103FD0006C2804BF30786C2803D171218DF8421011
:103FE000761C12A806903A4616F8013B02A95046E4
:103FF00000F064F838B912AA02A9504600F0CAF9D4
:1040000000287FF564AF404618E02A2892D13A682C
:104010003A6052F8040B3A6000280F9003D54042F2
:104020000F9041F00401761C95E7000000000000AD
:1040300000000000686A6C747A4C000021B0BDE892
:10404000F08F622820D0682811D06A2803D06C280D
:1040500027D0712825D10868C01D20F0070008600E
:10406000D0E9002308300860194610467047002A3E
:104070000A680A60106803D0121D0A6000B217E0D7
:10408000121D0A6080B217E0002A0A680A601068F0
:1040900003D0121D0A6040B20AE0121D0A60C0B2CD
:1040A0000AE0002A0A680A60106803D0121D0A603C
:1040B000C1177047121D0A60002170477CB50D467C
:1040C00011461C462E69B4F1250200F051811C3ABC
:1040D00000F08680121F022A40F282800E3A00F021
:1040E0000B81521F5AD0093A7AD0921E16D0521E16
:1040F00035D0521E022A73D9121F30D0521F00F041
:104100009A80521E4AD0521E00F0E480D21E00F067
:104110000181921E42D0D21E40D02FE195F83A4044
:104120006C2C09D06869421C6A610A680A6052F8FE
:10413000043B0A6033542BE10A680A6052F8043BDE
:104140000A600093002201924FF0FF332B636A460E
:10415000294600F09AF9002840F11A8105E195F806
:104160003A000122FFF76DFFC5E9000100239942E3
:1041700004DA6869411C69612D220DE0288F8107EE
:1041800004D56869411C69612B2205E0C00722D56E
:104190006869411C6961202232541CE095F83A009C
:1041A0000022FFF74EFFC5E9000195F8380001072E
:1041B00011D5D5E900230020834208BF82420AD0EE
:1041C00044F02000782806D1686930213154401C21
:1041D000421C6A613454214668693044E86087E0D3
:1041E0000868C01D20F007000860D0E900230830EF
:1041F0000860C5E90023D5E90001C80F04D068694B
:10420000411C69612D220DE0288F810704D5686962
:10421000411C69612B2205E0C00704D56869411C77
:1042200069612022325468693044E860214628469A
:1042300000F03AFAACE005F13A02507820B14FF0C4
:10424000FF340FF6343074E01078622808D0682804
:1042500024D06A2812D06C282ED071280ED02BE0E2
:104260000A680A6052F8040B0A6020B94FF0FF3464
:104270000FF61C305DE0E96A017089E00A680A60A7
:1042800052F8040B0A6020B94FF0FF340FF60030EB
:104290004FE0EA6AD317C0E9002379E00A680A60B0
:1042A00052F8040B0A6020B94FF0FF340FF6E020FB
:1042B0003FE0E96A01806BE00A680A6052F8040B8B
:1042C0000A6020B94FF0FF340FF6C42031E0E96AEC
:1042D00001605DE00A680A6052F8040B0A60002180
:1042E00020F0000221F0FF33C5E90023EE607821C1
:1042F000284600F02DF94BE06C2285F83A200B6837
:104300000B6053F8042B0B6052BB4FF0FF340FF6D9
:10431000B4200EE095F83A206C2AF0D008680860C6
:1043200050F8044B0860EC603CB94FF0FF340FF6D6
:10433000782000F0ABFD201A76BD2E6B002E04D540
:10434000204600F0C3FD044608E032460021204626
:1043500000F0D8FD002814BF041B3446AC6117E000
:10436000294600F092F8002812D54FF0FF3076BDB4
:104370006869411C69612522325409E06969481C59
:10438000686125227254210002D0431C6B613454B1
:10439000002076BD2DE9F0410E4605469046726B31
:1043A0007069316AB46A121AB069521A716A121AC3
:1043B000F069521A121A96F83800141B41070DD4EE
:1043C000002C0BDD2746B0682021A8470028B060EC
:1043D00057D0F06A401C7F1EF062F4D173694246E8
:1043E0003146284600F0B0FC00284AD1376A002F39
:1043F0000ADDB0683021A8470028B06041D0F06ADB
:10440000401C7F1EF062F4D1B369F2683146284641
:1044100000F09AFCA8BB776A002F09DDB068302154
:10442000A847B06068B3F06A401C7F1EF062F5D107
:10443000F068B169F36942183146284600F084FCFF
:10444000F8B9B76A002F09DDB0683021A847B0601D
:10445000B8B1F06A401C7F1EF062F5D196F83800C2
:1044600041070BD5002C09DDB0682021A847B060BA
:1044700038B1F06A401C641EF062F5D10020BDE83E
:10448000F0814FF0FF30BDE8F0812DE9F8470D468F
:10449000A3B02F6B002F0646904648BF6FF0004731
:1044A0000FF63C1400F05AFDD4E90023696B401864
:1044B000CDE90123812828BF4FF0FF3042D20024EC
:1044C000002F33DDD8F8001001AA684600F0CAFCBE
:1044D0008146B9F1000F38D4D8F8000010B9B9F10D
:1044E000010932D44F4521DB6869484481280AD349
:1044F0000021696303AA29463046FFF74BFF0400F9
:1045000014D40020686103ABD5F814A04A4669466C
:1045100003EB0A0000F028FDCA44C5F814A058F8BF
:10452000040B002818BFA7EB0907C9D14CB903AA8F
:1045300029463046FFF72EFF044614B90020686173
:104540006863204624B0BDE8F0874FF0FF34F8E7F9
:104550002DE9FC4707468C463E69BCF16F0F08BF4A
:10456000082405D04CF02000782814BF0A24102419
:104570003C25D7E90023BCF1640F18BFBCF1690FDB
:104580009046994606D100218B4203DAD8F1000803
:1045900069EB49094FF0000AD14508BFD0451FD14A
:1045A000386BE8B9082C4BD197F83800010747D58C
:1045B00030203B2586F83B0042E000280ED597F8D6
:1045C000380000F01400102808D17B6B7969386A34
:1045D0005B1A1B1A9A1A002AC8BF3A62BDE8F38711
:1045E0008DF800C0404649462246E31700F010FD12
:1045F0003032D0B26D1E3A28019504DB9DF80000E0
:10460000A0F151018A187255404649462246E317E7
:1046100000F0FEFC89468046D14508BFD04503D056
:10462000F86871198842DDD3082C09D197F8380051
:10463000010705D5705D302802D06D1E3020705501
:10464000C5F13C02BA617119F960386B8242B4DA83
:10465000821A3A624FF6EF70398F01403987BDE810
:10466000F3872DE9D04306460F4614464FF0000865
:10467000DFF8389412E0E00707D542464B46304653
:10468000394600F0DDFD06460F46404649464246A3
:104690004B4600F0D5FD641080468946002CEAD1D7
:1046A00030463946BDE8D0832DE9F34F054641F049
:1046B00020048DB0D5E90089612C02AE09D0286BA9
:1046C000002848BF062003D408BF672C01D1012071
:1046D0002863D5E9002358004015401C0ED119036A
:1046E0000CD00320A8619DF8381061391A2902D234
:1046F0000FF2F46111E00FF2F4610EE05900491578
:10470000491C0FD118030DD10320A8619DF8381062
:1047100061391A2914D30FF2DC61E868032200F032
:1047200023FCD3E1194621F00043B3F5801F104666
:104730000DD20027BB4208BFBA42019703D111E056
:104740000FF2AC61E9E701AA00F084FD0AE0DFF8AE
:10475000607307EB1352DFF85C3301921940DFF806
:1047600058331943C5E90001612C0ED1E8683021A6
:104770000170821CEA609DF8381061290CBF782115
:10478000582141706869801C6861D5E900AB2BF045
:10479000004300202AF00002834204BF824200232B
:1047A00000F05B81612C40F0AA80286B002847BF95
:1047B00021210091401C0090009F7F1C40464946EB
:1047C0000022002300F07EFDD94601998DF80820D3
:1047D00038BF89F00049091F002FD04601910DF123
:1047E000090040F34981B349DFF8D0B20C91064685
:1047F000404649460022002300F07CFD80F03B81CA
:104800004800400D00F11C0211D0002A0FDD40F2DB
:10481000FF70824205DB09F0004040EA0B010020F6
:1048200013E00C98014041EA025140460DE029F0A6
:104830000043002028F00002834208BF82420FBFDD
:1048400040461C22404600F06DFD8046894600F03F
:10485000EBFDFF1F002F044609DD00F0ECFD0246D2
:104860000B464046494600F0EDFD80468946F01D66
:10487000072104E004F00F0200F8012D2411002CA0
:1048800001DD491EF6D5491E5CBF002200F8012D4E
:10489000F9D5ECE00020194602AA0A4400E05B1EAC
:1048A00012F80149491E8442F9D00F2804D10DF1B4
:1048B0000900425C521C4254002904D50198001D95
:1048C00002AE5B1C0190591E12D49DF8380072187C
:1048D000A0F13A07147804F130085FFA88F43A2C12
:1048E000A8BFB844491E02F80189F3D58DF83800F5
:1048F000286B002840F1B080591E2963ACE0404687
:1049000049460022002300F0DDFC019938BF89F000
:10491000004947F297504143694A91FBF2F20192F4
:10492000D2F1070204DD40464946FFF79AFE0AE04D
:10493000524200206349FFF794FE02460B46404670
:10494000494600F088FD8046662C286BDFF878B178
:1049500006BF019F0A3706273F18142FC8BF142728
:1049600030208DF8080089460DF1090000E030463E
:10497000002F34DD064640464946FDF782FD0146DC
:104980000A4606F1080304200A26B2FBF6F606EBF7
:10499000860EA2EB4E02303203F8012C0A22B6FB3F
:1049A000F2F202EB820EA6EB4E063036401E03F802
:1049B000026DE9D1083F002F03F10806D7DD084654
:1049C00000F052FD02460B464046494600F03AFDD3
:1049D00000225B4600F034FC80468946CBE70DF1AF
:1049E0000901401A0DF1090604E00199491E401E13
:1049F0000191761C31783029F7D0662C02D10199CB
:104A0000491C03E0652C0CBF012100212B6BCB1846
:104A10009842B8BF431E002B1ED4834204DAF05CD8
:104A20003528A8BF392000DA30201946721E02EB63
:104A3000010800E05B1E18F80199491E8145F9D074
:104A4000392802D1705C401C7054002904D50198AB
:104A5000401C16465B1C0190019800B200901BB2EE
:104A60009DF838103246284600F034F82EE0C61D76
:104A7000002F3FF7BDAE30460DF10901401A0099F5
:104A800003468842C8BF0B46002B0DF109063FF5CF
:104A90002FAF8342BFF6FEAE0DF10900C15C0729BE
:104AA0007FF7F8AE0F20F6E6CBCCCC0C000024400C
:104AB00002FCFFFFFFFF0F800000E03F0000F07FDF
:104AC000A08601000000F03F84D797410FB0BDE8F9
:104AD000F08F00002DE9F84783B006468A46174656
:104AE000984600F0C1F9B8F1000F406A356B90F8B4
:104AF000009002DC4FF00108BFA74AF02000BDF98A
:104B00003040662808BF641C15D0672840F08480B8
:104B100014F1040FC0F28680AC4280F2838096F8D4
:104B20003800641C010702D4A845B8BF454620B22E
:104B30002D1A48BF00250FFA84FAF068B169BAF15E
:104B4000000F25DC4A1C30234354002D03DC96F86B
:104B50003800010703D5F06800F80290521C15EBED
:104B60000A0FB8BF6C4220B2441941424445B8BF55
:104B7000A046B26171620FFA88F5F561F068B36919
:104B80002A463946184400F0EFF9641BB462C4E0C9
:104B900022B29045084417DA4246394600F0E4F95B
:104BA000B0694044B061AAEB0801002D716203DCDA
:104BB00096F838100A0705D5F16801F80090F069F9
:104BC000401CF061B562A8E0394600F0CDF9B0694B
:104BD000002D5044A8EB040803DC96F838100A07AF
:104BE00003D5F16801F80090401CB0610FFA88F01D
:104BF0008542F368B069B8BFA8460FFA88F207EBA0
:104C00000A01184400F0B0F9B1690FFA88F00144C4
:104C1000B161281A706280E0BAF1610F14D14FF0CF
:104C2000700A16E0A84504DA96F838100A0758BF4B
:104C300045466D1E48BF0025BAF1670F14BF4FF0FF
:104C4000450A4FF0650A04E0BAF1410F08BF4FF082
:104C5000500AB169F368481CB061002D17F8012BA8
:104C60005A5403DC96F838100A071BD5F168431C28
:104C7000B36101F80090002D14DDA8F101080FFACE
:104C800088F039468542F768B8BFA8460FFA88F21F
:104C9000F81800F069F9B0690FFA88F108446D1A44
:104CA000B0617562F068B1690844002C80F800A01A
:104CB00003D42B224270811C03E02D2141706442F9
:104CC000811C00206A460AE023460A2493FBF4F480
:104CD00004EB8405A3EB450302F8013B401C24B21E
:104CE000002CF1DC012806DC4AF02002652A04BF12
:104CF000302201F8012B48B9302001F8010B07E000
:104D0000401E1DF80030303301F8013B0028F7DC6D
:104D1000F268B0691044091AF16196F8380000F0A1
:104D2000140010280DD17269B169706A8A18F1698E
:104D30008218B06A8A188218706B8242BCBF821ACD
:104D4000326204B0BDE8F087F8B505460E46174656
:104D50001C46002074B117F8011BB068A847B0606A
:104D600030B1F06A401CF0620020641EF3D1F2BD45
:104D70004FF0FF30F2BD00007072696E74665F73B1
:104D80003A20256E20646973616C6C6F77656400EE
:104D90007072696E74663A2062616420256E2061CB
:104DA0007267756D656E74007072696E74665F739C
:104DB0003A2062616420257320617267756D656EAB
:104DC000740000007072696E74665F733A206261ED
:104DD0006420256C7320617267756D656E740000C8
:104DE00000000000000000006E616E004E414E00A9
:104DF000696E6600494E4600300000001B4870474F
:104E000070B45368D418042B09DA41B1057804F85A
:104E1000015B10F8016B16B15B1C491EF3E7536090
:104E200070BC704738B514461D4661B1FFF7E8FF06
:104E300061686A6B204690476FF00102811A02D0C8
:104E4000491E01D001E003E005E00021616032BDB0
:104E50006FF0010032BD4FF0FF3032BDDA6B10470A
:104E6000024BDFE7014BF9E701487047A40500203A
:104E70006C0500200278C9B28A421AB11CBF10F832
:104E8000012FF9E718BF00207047000080B500B976
:104E900006A005490B681BB122220021984701E0BA
:104EA000FEF76CFF222002BDA46B0120636F6E73BE
:104EB000747261696E742068616E646C65723A2008
:104EC000626164206D6573736167650000F10103C1
:104ED000810704D010F8011B820781B1FAD1026862
:104EE000A2F10131914311F0803104BF50F8042F39
:104EF000F6E709BAB1FA81F100EBD100401CC01A03
:104F000070470000C9B2830706D0521E22D310F8A2
:104F1000013B9942F7D11FE0083A13D302F1040292
:104F200041EA012141EA014150F8043B121F21BF2F
:104F30004B40A3F1013C2CEA030C1CF0803FF3D062
:104F4000C9B2001F083210F8013B521E28BF91EA77
:104F5000030FF8D818BF0120401E704780B5FFF737
:104F60004DFF006C02BD000062B38B0708D0521EDB
:104F700011F8013B00F8013B00F024808B07F6D1CB
:104F8000830740F0208000BF103A07D330B4B1E867
:104F90003810103AA0E83810F9D230BC530724BFBB
:104FA000B1E80810A0E8081044BF51F8043B40F8ED
:104FB000043BD20724BF31F8022B20F8022B44BF58
:104FC0000B7803707047121F17D35B0009D151F89B
:104FD000043B20F8023B1B0C121F20F8023BF6D2C8
:104FE0000BE051F8043B00F8013B1B0A20F8023BA0
:104FF0001B0C121F00F8013BF3D238BF121D521ECA
:1050000024BF11F8013B00F8013BF8D870470000BD
:10501000BBBBE1B1B2F5803F80F07E80022A1ED991
:105020008C46B1FBF2F102FB11C31B0443EA1043AF
:10503000B3FBF2FC02FB1C3380B240EA0343B3FB38
:10504000F2F002FB103240EA0C4000237047022AC3
:1050500005D98446B0FBF2F002FB10C270474AB19A
:1050600005D100F0010249085FEA300070470022D4
:105070000023704700F000BA0B000200002100205E
:105080007047904271EB030CF6D3B3F5803F2FD2FB
:10509000F0B5B3FA83F7B1FA81F4A7F10F0E3D1B17
:1050A0005340CEF1200602FA0EF2F3415340B5F11F
:1050B0000F0746D80F3C2C444140C4F12006A040C5
:1050C000F1414140B1FBF3F603FB1611A2FB06458B
:1050D000001BA94102D2761E8018594180EA0102C4
:1050E00021FA0EF362FA0EF200215A403046F0BD6A
:1050F00030B4B1FBF3FC03FB1C11A2FB0C45001BFD
:10510000A94103D2ACF1010C8018594130BC0246D0
:105110000B46604600217047B2F1807F65D3F0B541
:10512000B2FA82F7B1FA81F4C7F10F063D1B22FAF9
:1051300006F307F1110EF24120355A40B5F10F0781
:10514000B8D94140C4F12006A040F1414140B1FB33
:10515000F3FC03FB1C11A2FB0C45001BA94103D26D
:10516000BCF1010C801859410F2F12D30F3FC90316
:1051700041EA5041B1FBF3F603FB1611A2FB0645D1
:10518000D4EBC030A94102D2761E8018594146EABC
:10519000CC3C07B34140C7F12006B840F141414043
:1051A000B1FBF3F603FB1611A2FB0645001BA94158
:1051B00002D2761E8018594180EA010221FA0EF3CC
:1051C000C7F1200462FA0EF20CFA07F05A402CFAEA
:1051D00004F13043F0BD80EA010221FA0EF3002110
:1051E00062FA0EF260465A40F0BD8C46B1FBF2F115
:1051F00002FB11C31B0243EA1063B3FBF2FC02FB88
:105200001C331B024CEA002043EA1063B3FBF2FCA0
:1052100002FB1C331B024CEA002043EA1063B3FB81
:10522000F2FC02FB1C331B024CEA002043EA106331
:10523000B3FBF2FC02FB1C324CEA00200023704757
:1052400041EC100B43EC112B20EE010B51EC100B39
:105250007047000010B5144600F002F8226010BD3F
:10526000C1F30A5343B14A0012F5001F28D2A3F23A
:10527000FE32A1EB0251704750EA410C20D001F000
:10528000004C31EA0C01B1FA81F204BFB0FA80F3AC
:10529000D2180B3AB2F120032CBF00FA03F191406F
:1052A00041EA0C013EBFC2F1200C20FA0CF3194375
:1052B0009040524240F2FD33D21A01EB0351704745
:1052C000002270474FF4001C1CEB410F94BF1CEBF5
:1052D000430F09E041EA030C50EA4C0C52EA0C0C73
:1052E00003D2994208BF9042704714BF8B4282425A
:1052F000704700004FF4001C1CEB410F94BF1CEBE7
:10530000430F09E041EA030C50EA4C0C52EA0C0C42
:1053100003D28B4208BF8242704714BF9942904229
:105320007047000041EC100B104600B500F004F887
:1053300051EC100B00BD0000020030EE101B40F2DB
:10534000FF7C37D41CEA115313D063456BD09B18F4
:10535000634504D201EB025120EE101B704701F0AF
:10536000004141EA0C51002041EC100BAFF30080EA
:10537000704710EE100B50EA410054D0B2F57F7F19
:1053800008D202EB5C010905002041EC110B20EE74
:10539000010B70474FF0FE41002341EC113B20EE22
:1053A000010BB2F57E7230EE101B4FEA410342EB67
:1053B0005353CDE752421CEA115316D0634532D005
:1053C0009A4204D2A1EB025120EE101B70475B1EE3
:1053D000D21AA1EB035120EE101B372A0CD3002068
:1053E00001F0004141EC100BC0E710EE100B50EA49
:1053F000410018D0372AF2D2C2EB5C02110500201E
:1054000041EC110BF1EE100A20F01F0121F4F851CC
:10541000E1EE101A20EE010BF1EE101AE1EE100A87
:1054200011F0080FA2D1704741EC100BBDEEC00B7C
:1054300010EE100A704700EE100AB8EEC00B51ECE7
:10544000100B704741EC100B43EC112B30EE410B6D
:1054500051EC100B704741EC100B43EC112B80EE1C
:10546000010B51EC100B704700EE100AB8EE400B28
:1054700051EC100B704700007047000078B5040035
:1054800085B058D004F13005297819B90022227668
:1054900000F067FF03212046297000F055F800282E
:1054A00049D16946204600F056FB002843D19DF8BB
:1054B00010109DF81100AA68012A07D100290ABF1F
:1054C00000284FF400704FF4807002E00021A962C0
:1054D00000E0A862E168204600F0AFFB58BBA86A74
:1054E000B0F5007F1CBFA96801291CD12068426863
:1054F00042F480124260204600F091FED8B900F0DC
:1055000073FF0646204600F035FC042815D000F055
:105510006BFF00F028FDF5D14FF0004001216860DD
:10552000032029700EE0B0F5807FE8D1204600F01E
:1055300016FE0028E3D0012004E00020012268606C
:10554000E0622A7006B070BD78B587B000210023F4
:10555000FA220446069202911422039104930591C3
:10556000206802A9066846F01006066083B0684607
:10557000FFF70AFD0EBC206800F03CFF90B92068E0
:1055800000F051FF70B9204604F1300500F068FCCE
:1055900018B9204600F004FC28B1012129706A687E
:1055A00010436860012008B070BD07B0BDE8F0830B
:1055B0002DE9F0470C00054686B09046994605F166
:1055C000300603D1706840F0006008E031780129AE
:1055D00046D100F0B2F805D2706840F000707060FB
:1055E00001203EE000F0BEF86C62C5F828A0B0686B
:1055F0000128286818BF4FEA482800F04DFF10B175
:1056000000F092F82DE09022022302920022CDF8C1
:1056100004A04FF0FF310393049205920091286893
:1056200000F01DFD2868C16B41F4957100F08CF805
:1056300006D982204146E862286800F043FF05E071
:105640008121E9622868414600F031FF48B12968AC
:105650008F632968CA6B22F4957200F05EF800E04F
:10566000022057E02DE9F0470C00054686B0904631
:10567000994605F1300603D1706840F0006008E0FB
:105680003178012945D100F058F805D2706840F012
:105690000070706001203DE000F064F8EC61C5F836
:1056A00020A0B0680128286818BF4FEA482800F0F9
:1056B000F3FE10B100F038F82CE090220023CDF872
:1056C00004A04FF0FF3102920393049305930091DD
:1056D000286800F0C4FC2868C16B41F48D7100F0AB
:1056E00033F806D9A0204146E862286800F000FFA0
:1056F00005E09021E9622868414600F0EEFE48B1DD
:1057000029688F632968CA6B22F48D7200F005F84E
:1057100000E0022006B0BDE8F087CA637168084364
:105720007060012030707047296801238F637268B0
:1057300010437060012033707047002009EB0802AD
:105740007060316A91427047C1632868C26842F054
:105750004002C26001202968B9F1010F08652A687A
:105760009465704703214FEA492A31702A684FF443
:105770000071DFF89C74D06270472DE9FC4105464A
:1057800005F13006EF6A2868DFF81086416BCA051C
:1057900049D54FF4807307F0030483632968DFF869
:1057A000500BCA6B0240CA632868C16B21F080515C
:1057B000C16328683907C26822F04002C26013D56D
:1057C00017F0220F05D0286800F0ABFE08B100F0FA
:1057D000D8F828680121002CC0F83880284631709C
:1057E0001ED101F01DF9CAE03806FCD52A68002157
:1057F00091622868C1622A68F807116505D4286893
:1058000000F08FFE08B100F0BCF8012017F0300F57
:1058100030701CBF284601F003F9002C02D0284646
:1058200001F000F9ABE0416B4A041DD5EE69082494
:1058300016F8011B009116F8013B41EA0322009281
:10584000114616F8012B41EA024100910B4616F869
:10585000011B43EA016369460093286800F0DEFDFE
:10586000641EE5D1EE618AE0416B0A0410D56E6AD0
:105870000824286800F0D1FD3070010A020C000EE7
:105880007170B270F070361D641EF2D16E6276E0F7
:10589000416B426B11F03A0F56D0910703D57368F4
:1058A00043F002037360416B0A0703D5736843F04A
:1058B00008037360416B8A0603D5736843F02003C5
:1058C0007360416BCA0603D5736843F010037360BD
:1058D000C0F838802868C16B21F49D71C1632868C5
:1058E000C26822F04002C2602868C16A41F40051D7
:1058F000C1622868C26842F08002C260286800F075
:1059000010FE7168084370602868C26822F0800247
:10591000C26029683A074FF40060886302D501200D
:1059200030700DE039062AD5706840B32868C16B25
:1059300021F08051C1632A68002001211065317077
:10594000284601F071F81AE0D10018D5006D420721
:1059500009D4E96A8806284602D501F066F80AE00B
:1059600001F064F807E0B806284602D501F05FF8B8
:1059700001E001F05DF829684FF080508863BDE8D0
:10598000F381716808437060284601F04DB870B526
:1059900000F13003DA6A920F0A70DC6AA40E04F098
:1059A0000F044C70DA6A120E02F003028A70DC6A8D
:1059B000240CCC70DA6A120A0A71DC6A4C711A6B18
:1059C000120DCA801C6B240C04F00F040C721A6BAD
:1059D000D20B02F001024A721C6BA40B04F001040A
:1059E0008C721A6B520B02F00102CA721C6B0022FD
:1059F000240B04F001040C734FF400744A739A688A
:105A0000002A40F08D80186B40F6FC7202EA80029A
:105A10005D6B42EA95720A61586BC00E00F0070098
:105A200008755A6B120E02F007024A75586B400D4A
:105A300000F0070088755A6B920C02F00702CA75D5
:105A4000586B0122C00B00F0070008760869401C63
:105A500098610D7E05F00705AD1C02FA05F5684357
:105A600098610E7A06F00F06B240DA61520A50438E
:105A70001862586B5C62800B00F0010048765A6B2C
:105A8000D20902F07F028A7693F8340000F07F009A
:105A9000C8769A6BD20F0A77986B400F00F003001C
:105AA00048779A6B920E02F007028A77986B800D06
:105AB00000F00F00C8779A6B01F12100520D02F03F
:105AC000010281F82020002101709A6B120C02F073
:105AD00001024270996BC90B01F0010181709A6B50
