:020000040800F2
:10000000C00B0020F54E0008B14D0008B34D0008AC
:10001000B54D0008B74D0008B94D000800000000BC
:10002000000000000000000000000000BB4D0008C0
:10003000BD4D000800000000BF4D0008C14D000884
:10004000114F0008154F0008194F00081D4F0008F8
:10005000214F0008254F0008294F00082D4F0008A8
:10006000314F0008354F0008394F00083D4F000858
:10007000414F0008454F0008494F00084D4F000808
:10008000514F0008554F0008594F00085D4F0008B8
:10009000614F0008654F0008694F00086D4F000868
:1000A000714F0008754F0008794F00087D4F000818
:1000B000814F0008C54D0008854F0008894F000892
:1000C0008D4F0008914F0008954F0008994F000888
:1000D0009D4F0008CB4D0008A14F0008A54F000818
:1000E000A94F0008AD4F000800000000B14F000804
:1000F000B54F0008B94F0008BD4F0008C14F0008B8
:10010000C54F0008C94F0008CD4F0008D14F000867
:10011000D54F0008D14D0008D74D0008D94F000831
:10012000DD4F0008E14F0008E54F0008E94F0008E7
:10013000ED4F0008F14F0008F54F0008F94F000897
:1001400000000000000000000000000000000000AF
:10015000FD4F000801500008055000080950000834
:100160000D500008115000081550000819500008E3
:100170001D50000821500008255000080000000014
:10018000295000082D500008315000083550000853
:10019000395000083D500008415000084550000803
:1001A000495000084D5000085150000855500008B3
:1001B000595000085D500008615000086550000863
:1001C000695000086D500008715000087550000813
:1001D000795000087D5000088150000885500008C3
:1001E000895000088D500008915000089550000873
:1001F000995000089D500008A1500008A550000823
:10020000A9500008AD500008B1500008B5500008D2
:10021000B9500008BD500008C1500008C550000882
:10022000C9500008CD500008D1500008000000005F
:10023000D5500008D950000800000000DD5000082B
:10024000E1500008E5500008E9500008ED500008B2
:10025000F1500008F5500008F9500008FD50000862
:100260000151000805510008095100080D5100080E
:100270001151000815510008195100080000000034
:100280001D5100080000000021510008000000007E
:1002900000000000255100082DE9F0470446002623
:1002A0002068B046DFF8F058010122D5626E4AB1ED
:1002B000B2F5801F0BD0B2F5001F15D0B2F5401F6C
:1002C00009D014E0EB6943F40033EB6105E002214F
:1002D00000F08BFB064630000AD1296C606E21F4D9
:1002E00040110143296404E000F081FBF2E701269C
:1002F000B0462068C1051DD5626D042A17D8DFE815
:1003000002F0030E1205050000F065FB30000FD16E
:10031000296C606DC90840EAC10129640AE000F057
:1003200063FB0646F2E7002100F05BFBF9E70126DC
:1003300046EA08082068810521D5A26D4AB1402A05
:1003400012D0802A14D0C02A18BFB2F5807F02D004
:1003500012E000F040FB30000FD1296CA06D21F4B9
:10036000E071014329640AE000F03EFB0646F2E733
:10037000002100F036FBF9E7012646EA080820686C
:1003800004F18407410524D53A6A62B1B2F5001F31
:1003900014D0B2F5800F15D0B2F5C00F18BFB2F56A
:1003A000000F02D012E000F016FB30000FD1A96C54
:1003B000386A21F460010143A9640AE000F014FBEB
:1003C0000646F2E7002100F00CFBF9E7012646EAB9
:1003D00008082068010524D57A6A62B1B2F1807FED
:1003E00014D0B2F1007F15D0B2F1407F18BFB2F146
:1003F000806F02D012E000F0EEFA30000FD1A96C4D
:10040000786A21F0E0610143A9640AE000F0ECFAA7
:100410000646F2E7002100F0E4FAF9E7012646EA91
:100420000808206881011BD5A26C42B1102A04D0B3
:10043000202A0DD0302A02D00FE000F0CCFA300094
:100440000CD1E96BA06C21F030010143E96307E0B6
:10045000022100F0CAFA0646F1E7012646EA08083A
:100460002068C10424D5E26D62B1B2F5805F14D07A
:10047000B2F5005F15D0B2F5405F18BFB2F5804FFE
:1004800002D012E000F0A7FA30000FD1296CE06D25
:1004900021F4E041014329640AE000F0A5FA064690
:1004A000F2E7002100F09DFAF9E7012646EA080884
:1004B0002068810423D5226E92B1B2F5803F0BD023
:1004C000B2F5003F15D0B2F5403F1CBFB2F5802F0A
:1004D000B2F5A02F04D00FE0012100F086FA064605
:1004E00030000AD1296C206E21F4E02101432964F7
:1004F00005E000F075FAF2E7012646EA08082068F0
:10050000410423D5BA6A92B1B2F1805F0BD0B2F147
:10051000005F15D0B2F1405F1CBFB2F1804FB2F165
:10052000A04F04D00FE0012100F05FFA0646300032
:100530000AD1A96CB86A21F0E0410143A96405E041
:1005400000F04EFAF2E7012646EA080820680104A6
:100550001BD5E26E42B1B2F1805F03D0B2F1005F11
:100560000BD00FE000F037FA30000CD1296CE06EB0
:1005700021F040510143296407E0012100F035FAE0
:100580000646F1E7012646EA08082068C10119D5A8
:10059000626C032A13D8DFE802F004020D0400F0B5
:1005A0001AFA30000CD1E96B606C890840EA8101CD
:1005B000E96307E0022100F018FA0646F1E7012698
:1005C00046EA08082068410222D5DFF8F895D9F8F4
:1005D000002042F48072C9F8002000F0C5FB82467A
:1005E000D9F80000C10500F1C58100F0BDFBA0EB0A
:1005F0000A006528F4D308E000F0B6FBA0EB090080
:1006000041F289318842C0F0D381032646EA0808C6
:100610002278D10726D5A06F68B1082807D0102806
:100620001AD018281CBF2028282804D017E0012140
:1006300000F0DBF90646300012D1696CA06F21F0A2
:100640003801014369640DE02960286EF96AC1F33D
:100650000B0108432866DBE700F0C2F9EAE7012650
:1006600046EA080821788A071AD5606F052814D849
:10067000DFE800F0070310070707012100F0B5F9D4
:10068000064630000AD1696C606FC90840EAC101B2
:10069000696405E000F0A4F9F2E7012646EA0808DB
:1006A00021784A071AD5F868052814D8DFE800F041
:1006B000070310070707012100F097F906463000ED
:1006C0000AD1A96CF868C90840EAC101A96405E02B
:1006D00000F086F9F2E7012646EA080821788A0642
:1006E00022D5B86888B1B0F1805F0BD0B0F1005F5F
:1006F00014D0B0F1405F1CBFB0F1804FB0F1A04FFB
:1007000003D00EE000F070F9064630000AD1696CA3
:10071000B86821F0E0410143696405E000F067F941
:10072000F2E7012646EA080821784A0622D57869C8
:1007300088B1B0F5806F0BD0B0F5006F14D0B0F574
:10074000406F1CBFB0F5805FB0F5A05F03D00EE036
:1007500000F04AF9064630000AD1A96C786921F404
:10076000E0510143A96405E000F041F9F2E70126F8
:1007700046EA080821780A0622D5B86988B1B0F59A
:10078000005F0BD0B0F5804F14D0B0F5C04F1CBF48
:10079000B0F5004FB0F5204F03D00EE000F024F983
:1007A000064630000AD1A96CB86921F460410143C2
:1007B000A96405E000F01BF9F2E7012646EA080803
:1007C00021780A070ED5D4F88000B0F5805F04D1F7
:1007D00000F00DF940EA080804E0696C21F440518A
:1007E000084368642078C1060DD53869B0F5807F6C
:1007F00004D100F0FCF840EA080804E0A96C21F4F8
:1008000040710843A864206801031AD5FA6932B11F
:10081000B2F5803F0FD0B2F5003F03D00EE000F0FC
:10082000E3F8064630000AD1A96CF86921F440319A
:100830000143A96405E000F0DAF8F2E7012646EA90
:10084000080821684A031ED53868B0F5801F06D015
:10085000B0F5001F10D0B0F5401F04D010E0E969DA
:1008600041F40031E96130000BD1696C386821F442
:1008700040110143696406E000F0B2F80646F2E771
:10088000012646EA08082168CA031AD5E06C18B1A7
:10089000B0F5803F0DD011E0E96941F40031E96124
:1008A00030000CD1E96BE06C21F480310143E96345
:1008B00007E0022100F099F80646F1E7012646EA32
:1008C000080821688A0003D500F091F840EA08087A
:1008D0002068810319D5E26F5AB1B2F5807F06D046
:1008E000B2F5007F18BFB2F5407F02D00AE000F0F9
:1008F00072F8300007D1696CE06F21F44071014358
:10090000696402E0012646EA08082268D00205D59B
:10091000296C206F21F00041014329642168CA003D
:1009200005D52B68386B23F4804303432B60216883
:100930008A0205D52B6CA06E23F0807303432B64D1
:1009400021684A0007D52B6823F400432B602968EF
:10095000786B014329602268002A05D5EB6B206D76
:1009600023F040530343EB635FEA080018BF012004
:10097000BDE8F08730007FF449AE286EF96A00F4D4
:10098000407001F4407188420BD0286E296E41F40A
:10099000803129662A6E20F4407022F480322A6663
:1009A0002866F86AB0F5807F06D100F0DDF981464F
:1009B000286E81077FF520AEF86A296800F440723E
:1009C000B2F5407F21F47C5104D1DFF8782302EAAC
:1009D0001012114338E6E86940F40030E8617047CE
:1009E000012104F124003CE10021201DECE0022162
:1009F00004F1240035E180B500F0F7FADFF8581370
:100A0000DFF858230968C1F30211515CC84002BDE8
:100A100030B500F07AF8C1F30533D16B05F010055D
:100A200000F079F802D0022C06D008E000F09AF825
:100A3000916B00F042F807E0DFF80C4301E0DFF8CB
:100A40001043916B00F04AF8916B00F07CF8916BC9
:100A500000F06BF8916B22E030B500F056F8C1F36E
:100A60000553516C05F4807500F055F802D0022C46
:100A700006D008E000F076F8116C00F01EF807E0F0
:100A8000DFF8C44201E0DFF8C842116C00F026F83C
:100A9000116C00F058F8116C00F047F8116CC1F3BC
:100AA0000661491C00EE901AF8EE600A80EE200AFA
:100AB000BCEEC00A80ED020A30BDF7EE001AF8EE77
:100AC000600AC1F3080101EE101AB8EE411A31EEC6
:100AD000000A70EE211A20EEA10A7047DFED381AE5
:100AE000B4FBF3F300EE903AC1F30801F8EE600AAC
:100AF00001EE101AB8EE411A00EE211AB7EE000A04
:100B000031EE000A20EE800A7047DFF85422946A22
:100B1000916AD56A7047C1F3CC014D4314F00304C8
:100B200000EE105AB8EE400A7047C1F30641491C66
:100B300000EE901AF8EE600AC0EE200AFCEEE00A21
:100B4000C0ED010A7047C1F34621491C00EE901A1E
:100B5000F8EE600AC0EE200AFCEEE00AC0ED000AE2
:100B6000704700001468DFED160A20EE200AA10687
:100B70000AD51168DFF8D451C1F3C101CD40B5FBEE
:100B8000F3F100EE901A7047DFF8C041B4FBF3F3C5
:100B900000EE903A704700001044025880B500F013
:100BA000A7F9DFF8B011DFF8B4310968DFF8B42134
:100BB000C1F30321595CC8401060106802BD0000F9
:100BC0000000003900480258F8B500F0B2F801D131
:100BD0000120F2BD286820F0806000F08FF8074601
:100BE0002968080120D500F0BFF8C01B0328F7D3FF
:100BF0000320F2BD012C04D1E86A40F48010E862C1
:100C000003E0E96A41F40011E962286840F080607D
:100C100000F074F804462968080120D400F0A4F814
:100C2000001B0328F7D3E3E7A86A316820F47C307F
:100C300040EA013000F065F8A863E96A706921F0C4
:100C4000C0010143E962E96AB06921F02001014372
:100C5000002CE962CED1E96A41F40021D4E70020FA
:100C6000F2BDF8B500F065F801D10120F2BD2868A9
:100C700020F0805000F042F807462968880020D50F
:100C800000F072F8C01B0328F7D30320F2BD012C3B
:100C900004D1E86A40F40000E86203E0E96A41F048
:100CA0008071E962286840F0805000F027F804461F
:100CB0002968880020D400F057F8001B0328F7D3D8
:100CC000E3E7A86A316820F07C7040EA015000F048
:100CD00018F82864E96A706921F440610143E96207
:100CE000E96AB06921F400710143002CE962CED1B8
:100CF000E96A41F48001D4E70020F2BD286000F0E9
:100D000033B8A862B1687068F268491E4902401E93
:100D1000C0F30800521E01F47E41120408433169F9
:100D200002F4FE021043491E090601F0FE41084389
:100D3000704706460A4DA86A0C4600F003000328D7
:100D400070470000CFFFFF0000127A000090D00330
:100D500000093D001844025820440258A04D0008E4
:100D6000004402580C00002001484068704700BF52
:100D7000000000202DE9F8430546DFF808733868C5
:100D8000894600F00700484502D200F0A7F824D1B8
:100D90002878DFF8EC42810705D5A269E8681209D6
:100DA00040EA0212A2612978CA0740F18380A36950
:100DB000A86823F470630343A3616868022802D122
:100DC00021688A0308E0032802D121688A0103E030
:100DD000012803D12168CA0503D473E023685907A9
:100DE00070D5226941F28938D20840EAC2002061F8
:100DF000FFF7BAFF0646686802280BD1206900F0A9
:100E00003800102856D0FFF7AFFF801B4045F5D3C0
:100E100003204DE003280AD1206900F0380018288B
:100E200048D0FFF7A1FF801B4045F5D3F0E701282C
:100E30004AD1206900F0380008283BD0FFF794FF22
:100E4000801B4045F5D3E3E72878410705D5A26923
:100E5000286922F070020243A26129780A0705D5A9
:100E6000E369686923F070030343E3612978CA06E4
:100E700005D5E369A86923F4E0630343E3612978B6
:100E80008A0605D5236AE86923F0700303432362C9
:100E900000F02EF8A169DFF8F021DFF8F031C1F39E
:100EA0000321515CC8401860002000F023FB0020A3
:100EB000BDE8F283386800F007008145C4D200F035
:100EC0000DF8C1D00120F3E7206910F0380FF1D000
:100ED000FFF74AFF801B4045F6D399E73968C908F8
:100EE00049EAC10139603A6802F007024A45704791
:100EF00030B5634A6748116911F0380104D01029F0
:100F00000AD018290AD06EE013689C066CD51168C7
:100F1000C1F3C101C84030BD5F4830BD946A916AD9
:100F2000D56AC1F30513516B05F00105C1F3CC017E
:100F30004D4314F0030400EE105AB8EE400A02D0FC
:100F4000022C27D028E01468DFED4C0A20EE200A9E
:100F5000A10608D51168C1F3C101C840B0FBF3F088
:100F600000EE900A04E00146B1FBF3F100EE901AA6
:100F7000106BF7EE001AF8EE600AC0F3080001EEFD
:100F8000100AB8EE411A31EE000A70EE211A20EE76
:100F9000A10A19E0404900E04049106BDFED371A23
:100FA000B1FBF3F100EE901AC0F30800F8EE600A0E
:100FB00001EE100AB8EE411A00EE211AB7EE000A4F
:100FC00031EE000A20EE800A106BC0F34620401C70
:100FD00000EE900AF8EE600A80EE200ABCEEC00A2D
:100FE00010EE100A30BD2D4830BD10B5FFF7D6FD0C
:100FF0002B49254A09682B4C01F00F01535CD8405E
:10100000206010BD80B5FFF7F0FF00F00DF8C1F3D0
:10101000021106E080B5FFF7E8FF00F005F8C1F324
:101020000221515CC84002BD1F49174A0968704738
:1010300010B53F220260164A136803F007034360AD
:10104000946804F470648460936803F00F03C360D1
:10105000946804F070040461D36803F07003436182
:10106000D46804F4E0648461126902F07002C26121
:101070000448036803F007030B6010BD000000394B
:101080000044025800200052A04D00080C0000202F
:10109000104402580090D00300127A0000093D006D
:1010A00018440258100000201C440258F8B50546A8
:1010B000DFF834442878C1074DD5226902F03802A0
:1010C000102A09D0206900F03800182802BFA16A50
:1010D00001F00301022908D1226891033BD5686819
:1010E000002840F00D810120F2BD6868B0F5803F16
:1010F0000FD038B9216821F480312160206820F4B4
:10110000802009E0B0F5A02F08D1216841F48021AA
:101110002160206840F48030206007E0226822F4DB
:1011200080322260216821F480212160686868B1E2
:10113000FFF71AFE06462168880300F1E180FFF7F9
:1011400013FE801B6528F6D30320F2BDFFF70CFECB
:1011500006462068810340F1D380FFF705FE801B1F
:101160006528F6D3F0E7FFF7FFFD801B0328C0F0EA
:10117000E680E9E7FFF7F8FD801B0328C0F019813E
:10118000E2E7E86888B1216821F01901084320608E
:10119000FFF7EAFD06462068410700F1D480FFF71B
:1011A000E3FD801B0328F6D3CEE72068400840000B
:1011B0002060FFF7D9FD06462168480740F1CA8044
:1011C000FFF7D2FD801B0328F6D3BDE7E86980B1A5
:1011D000216841F080012160FFF7C6FD06462068C6
:1011E000C10500F1D180FFF7BFFD801B0328F6D3B6
:1011F000AAE7206820F080002060FFF7B5FD0646D2
:101200002168C80540F1C780FFF7AEFD801B0328A9
:10121000F6D399E7606F400840006067FFF7A4FDD0
:101220000646606F810740F1C880FFF79DFD801B77
:101230000328F6D388E7206820F480502060FFF769
:1012400093FD06462168880440F1CE80FFF78CFDAF
:10125000801B0328F6D377E7FFF786FD801B652800
:10126000C0F0CD8070E708B9206F09E00528206F35
:1012700006D140F004002067216F41F0010105E034
:10128000400840002067216F21F004012167A86811
:1012900041F2893660B1FFF767FD0746206F81078D
:1012A00000F1BA80FFF760FDC01BB042F6D34BE7F8
:1012B000FFF75AFD0746206F810740F1AD80FFF729
:1012C00053FDC01BB042F6D33EE7FFF74DFD801B38
:1012D0000328C0F0B48037E7FFF746FD401B032822
:1012E000C0F0FB8030E7FFF73FFD0546216888012D
:1012F00040F1F780FFF738FD401B0328F6D323E7C2
:101300002878810726D5226912F0380F09D0206984
:1013100000F03800182804BFA16A11F0030F7FF411
:1013200030AFE86821684A0701D500287BD02168E2
:1013300021F0190108432060FFF716FD06462068DA
:1013400041077FF510AF6068296920F47C3040EADE
:10135000013060602878C1061DD5226902F038028C
:10136000082A0AD0206900F03800182802BFA16AB4
:1013700001F0030101297FF429AF2068C10503D5DD
:10138000EA69802A7FF4AFAE6068296A20F0F840ED
:1013900040EA816060602A7811070ED568690028EC
:1013A0003FF438AF616F41F001016167FFF7DCFC8A
:1013B0000646606F81077FF5DDAE2A78930613D568
:1013C000A86900283FF437AF216841F480512160BB
:1013D000FFF7CAFC06462068810405D4FFF7C4FC69
:1013E000801B0328F7D3AFE62878410714D53F4F79
:1013F0003A6842F480723A60FFF7B6FC06463868F5
:10140000C1057FF529AFA86801287FF42CAF206FB4
:1014100040F0010020673AE7686A002861D021693E
:1014200001F0380118293FF45EAE0228206820F050
:10143000807020607FF457AFFFF796FC0646216866
:1014400088013FF542AFA26AA86A2949EB6A0A40BF
:10145000024342EA0312A262696B286BAA6B491E1F
:101460004902401EC0F30800521E01F47E411204DE
:101470000843E96B02F4FE021043491E090601F01D
:10148000FE4108432063606BA96C6FF3CF0040EA14
:10149000C1006063E26A286C22F00C020243E2623F
:1014A000E16A686C21F002010143E162E16A41F402
:1014B0008031E162E06A40F40030E062E16A41F4C8
:1014C0008021E162E06A40F00100E062216841F0C1
:1014D00080712160FFF748FC0546206881017FF597
:1014E000FBAE0020F2BD00BF004402580048025885
:1014F0000CFCFFFF10B501468AB00022362000F038
:101500004FF83620154C00F068F81548016841F096
:1015100010010160006800F010000090009902A81E
:1015200001A9FFF785FDFFF76DFD40000D4B0E494A
:1015300040F2E732B0FBF3F02160401E6060002112
:10154000E26020462161A16000F0A0F818B92046B1
:1015500000F0A9F800E001200AB010BDE803002067
:10156000E844025840420F00001000400901020008
:1015700002D43048815470472F4A00F00F001318EE
:1015800003F8041C70472D4B4FF6FF021968000248
:1015900000F4E0601140084329490843186070478F
:1015A00038B5264B1C68C4F30223C3F10704052C8D
:1015B00028BF04241D1D072D34BF0023DB1E012579
:1015C00005FA04F4641E2140994005FA03F35B1EFA
:1015D0001A401143BDE83440C8E7010008D4012295
:1015E00000F01F0002FA00F0164B490943F82100F1
:1015F0007047401EB0F1807F10B501D3012010BDAF
:10160000114C0F2160604FF0FF30FFF7AFFF002259
:101610000721A2600020216010BD04280A4904D1DE
:10162000086840F00400086070470A6822F004026D
:101630000A60704700E400E018ED00E00CED00E007
:101640000000FA0500E100E010E000E000F000B862
:10165000704730B4002513E050F8042BD30744BF83
:10166000A9F101039A18091F042942F8045BFAD270
:1016700013468C0744BF15809B1CC90748BF1D70CB
:1016800050F8041B0029E7D130BC704738B504007E
:1016900001D1012032BD00F01FF818B900F018F890
:1016A00000F05BFB0AE00068C16841F00101C16025
:1016B000028842F001020280002070470220211DB2
:1016C0006870206800F02FF901206870002032BD9A
:1016D000002120462970704704F13C056878704766
:1016E00038B50446206801698A0715D5C36899078B
:1016F00012D56FF00202012302612377806910F096
:10170000030F204602D000F01BFC03E000F019FCA0
:1017100000F092F800202077206801694A0715D56B
:10172000C368590712D56FF00402022302612377C0
:10173000806910F4407F204602D000F001FC03E0F5
:1017400000F0FFFB00F078F80020207720680169A6
:101750000A0715D5C368190712D56FF008020423CC
:1017600002612377C06910F0030F204602D000F019
:10177000E7FB03E000F0E5FB00F05EF800202077D7
:1017800020680169CA0615D5C368D90612D56FF05D
:101790001002082302612377C06910F4407F2046BD
:1017A00002D000F0CDFB03E000F0CBFB00F044F8EA
:1017B0000020207720680169CA0708D5C368D907C7
:1017C00005D56FF001020261204600F0A0FC206800
:1017D0006FF0800501690A0606D5C368190603D5AE
:1017E0000561204600F0B1FC20680169CA0506D5F4
:1017F000C368190603D50561204600F0A6FC2068E1
:1018000001694A0608D5C368590605D56FF040023C
:101810000261204600F09AFC206801698A060AD518
:10182000C368990607D56FF0200202612046BDE823
:10183000324000F08CBC31BD204600F089BC012054
:101840000021607000202170704738B500F065F805
:1018500001D1022032BD012202232270DFF8C8012B
:1018600063702A689368034093600A68002A3CD03A
:10187000102A3CD0202A3CD0302A3CD0402A30D0FC
:10188000502A23D0602A25D0702A0CD0B2F5805F70
:1018900003D0B2F5005F11D031E0296819488D6896
:1018A00005408D602BE000F02FF82968DFF87C01FF
:1018B0008A68024042F077028A6020E000F024F853
:1018C0002868816841F48041816018E000F021F8C7
:1018D000502111E0CA684968286800F088F8602142
:1018E0000AE000F016F8402106E0002104E0102193
:1018F00002E0202100E03021286800F08AF8FFF79C
:101900009EFF32BDF8FFFEFFCB684A6889682868F1
:101910009EE0CA684968286858E0054605F13C041D
:101920002078012870472DE9F043DFF8048105880D
:101930004045DFF80061DFF80071DFF800C1DFF833
:1019400000E1DFF8003118BFB0F1804FDFF8F84058
:10195000DFF8F89007D0484518BFA04203D098425E
:1019600018BF70450DD14A6825F0700515434045F4
:1019700018BFB0F1804F0CD048451CBFA042984220
:1019800007D0704518BF604503D0B84218BFB042B9
:1019900003D1CC6825F4407525434A694FF67F731F
:1019A0001D401543404505808C68C4620B6818BF14
:1019B0007045038504D060451CBFB842B04201D1D8
:1019C0000969018601224261BDE8F08330B5036AEE
:1019D000046A640864000462856923F00A031943F9
:1019E00025F0F00545EA02158561016230BD10B5AC
:1019F000036A23F0100303628369046A23F47043CB
:101A000043EA023324F0A004836144EA011404622F
:101A100010BD8368034A1340194341F007018160F8
:101A2000704700008FFFCFFF8800CEFF88FFCEFFFA
:101A300000000140004801400044014000400140D6
:101A400000040140000C0040000800400004004079
:101A500010B5846824F47F442143114341EA0321F3
:101A6000816010BDDFF82C04002130B5DFF8284478
:101A700087B000F0E8F810B14C2100F08EF800F0CB
:101A80006AF810B1522100F088F800F0D4F810B1D3
:101A90005A2100F082F807B030BD4FF0804000219D
:101AA00030B5DFF8F84387B000F081F810B16C2151
:101AB00000F073F800F04FF810B1722100F06DF8EB
:101AC00000F06EF810B1792100F067F807B030BD72
:101AD000DFF8CC0344F61F6130B5DFF8C8430022BD
:101AE000206041F2873387B06160A2602046E360E6
:101AF0000FF208452261A261FFF7C8FD10B18B21EA
:101B000000F04BF800F027F810B1912100F045F8F3
:101B100000F046F810B1982100F03FF807B030BD52
:101B2000DFF88403002130B5DFF8804387B000F090
:101B30003EF810B1AA2100F030F800F00CF810B116
:101B4000B02100F02AF800F02BF810B1B72100F016
:101B500024F807B030BD4FF4805003A9039020460D
:101B6000FFF773BEDFF84803002130B5DFF84443C8
:101B700087B000F01CF810B1C92100F00EF8FFF793
:101B8000EAFF10B1CF2100F008F800F009F810B119
:101B9000D62100F002F807B030BD284600F0D4BAD4
:101BA0000021204600910291694600F0D3BA2060DE
:101BB000204661600FF24435A160E1602161A161BE
:101BC000FFF764BD3EB5DFF8F0420021DFF8EC021C
:101BD000616020602046A1600FF22035E160A161C4
:101BE000FFF754FD10B1E621FFF7D7FFFFF7D8FF4D
:101BF00010B1ED21FFF7D1FF37BDDFF8C40200219E
:101C000030B5DFF8C04287B000F01DF818B14FF4CE
:101C10008071FFF7C2FFFFF79EFF18B14FF4837189
:101C2000FFF7BBFF00F007F818B14FF48771FFF71B
:101C3000B4FF07B030BD0021204600910191029110
:101C4000694600F087BA2060204661600FF2AC253B
:101C5000A160E16021616161A161FFF717BDDFF85B
:101C60006802002138B5DFF8644284B0FFF79FFFB7
:101C700018B140F21F11FFF790FF4FF480506946F2
:101C80000090FFF76CFF18B140F22511FFF785FFB8
:101C900005B030BD80B5DFF838020022DFF834121D
:101CA00000F014F800F04BF810B140F2351113E0D9
:101CB00001BD80B588480022884900F007F800F08F
:101CC0003EF810B140F2451106E001BD42600160EE
:101CD0008260C260026170470FF22020BDE80440BC
:101CE00000F032BA7E48002130B57E4C87B0FFF755
:101CF000AAFF18B14FF4AC71FFF74FFFFFF72BFFAE
:101D000018B14FF4AF71FFF748FFFFF749FF18B163
:101D100040F26511FFF741FF07B030BD80B5724852
:101D20000022724900F005F810B14FF4BB71D3E7FF
:101D300001BD426001608260C260026142618261F5
:101D4000FFF7A4BC80B56A4800226A49FFF7F1FF9B
:101D500010B140F28711BFE701BD4E4A80B501685E
:101D60006548914205D1816841F001018160806838
:101D700007E0B1F1804F07D1026842F00102026032
:101D8000006800F0010082E0454A914212D10368E8
:101D9000002243F002030360006800F0020000909C
:101DA00000991D200021FFF7FBFB1D20BDE802402C
:101DB000FFF713BC3C4A914207D1016841F004018E
:101DC0000160006800F0040061E0394A914207D1E7
:101DD000036843F008030360006800F0080056E061
:101DE000364A914207D1036843F02003036000683C
:101DF00000F020004BE0324A914207D1836843F063
:101E000002038360806800F0020040E02E4A9142A5
:101E100007D1036843F040030360006800F040000E
:101E200035E02C4A914207D1036843F080030360F8
:101E3000006800F080002AE0284A914207D1036838
:101E400043F480730360006800F480701FE0244A4C
:101E5000914207D1836843F480338360806800F443
:101E6000803014E0214A914207D1836843F4003363
:101E70008360806800F4003009E01E4A914208D176
:101E8000836843F480238360806800F4802000909E
:101E9000009901BD000001402804002068040020D2
:101EA00000040040A804002000080040E8040020CE
:101EB000000C0040280500206805002000140040A8
:101EC00000040140A805002000180040E80500209B
:101ED00028060020001C004068060020002000406A
:101EE00000400140A8060020E80600200044014010
:101EF0002807002000480140E8440258463A5C6F39
:101F0000746865725C626C645C53544D333248375C
:101F10005C70726F6A6563745C73746D33326837BA
:101F2000343369695C73746D3332483734335F74AA
:101F3000656D705C5372635C74696D2E63000000A4
:101F40007047704738B5754900200867BFF34F8F59
:101F5000CA6E734DC2F34E33C2F3C90443F6E07048
:101F600000EA431040EA847028602046441E00289E
:101F7000F4D11846431E0028EED1BFF34F8F0868F6
:101F800040F480300860BFF34F8FBFF36F8F00F0D5
:101F90000BF900F041F800F01FF900F075F900F0BE
:101FA000C1F900F01BFB00F038FB00F07BFB00F0F8
:101FB00017FC00F085FCFFF755FDFFF76EFDFFF7FE
:101FC00087FDFFF7ADFDFFF7CDFDFFF7FBFDFFF749
:101FD00014FEFFF744FEFFF75DFEFFF76AFEFFF712
:101FE00081FEFFF79BFEFFF7ADFE00F00EFD00F057
:101FF000FFFC4C4C4C4D01222946204600F089FE46
:102000000028F8D101224949494800F082FE002801
:10201000F8D100F0A2FDFCE700B5CBB0454801685F
:10202000002221F0040101600092C36843F44043A0
:10203000C360C16801F440410091009AC1688B04FB
:10204000FCD53D48012102684FF48033920892008C
:1020500042F00202026002220991C8210A93082379
:10206000129209A8139214921591042116921892B3
:102070000022179119931A921B92FFF717F800B1DB
:10208000FEE73F21032201910821029240220491A0
:1020900040210592002306914FF4806208910221AD
:1020A000039301A80792FEF765FE00B1FEE7012247
:1020B00022491D9213231F92022220921CA82192D2
:1020C000C0221C91202122920022239100212492DF
:1020D0004FF080521E932D91379239913A9144914D
:1020E000FEF7DAF800B1FEE715484FF47A7201689E
:1020F000B1FBF2F0FFF77DFA0420FFF78EFA002221
:1021000000214FF0FF30FFF74BFA4BB000BD0068E5
:102110000C49884208BF01F0ADBA704714ED00E0E9
:1021200060EF00E03C0200208C07002098070020B0
:10213000BC0100200C4802582844025803800801C2
:102140000C00002000100040FEE770477047704709
:1021500070470000F0B590F83C20012A01D1022020
:10216000F0BD01230E4A80F83C30046894421CBF45
:102170000C4FBC426568A66803D14B6825F4700516
:102180001D438A68096825F0700526F08006002343
:102190000D4316436560A66080F83C300020F0BD1A
:1021A000000001400004014080B50320FFF7EBF977
:1021B0000020FFF79FF908B1012002BD01F062FA8B
:1021C000002002BD034A136823EA000008431060A0
:1021D000704700000404005881B02A48016841F4A7
:1021E00080710160026802F48072009200990368B5
:1021F00043F020030360026802F02002009200997D
:10220000036843F080030360026802F080020092DA
:102210000099036843F004030360026802F00402BB
:1022200000920099036843F001030360026802F022
:10223000010200920099036843F002030360026800
:1022400002F0020200920099036843F04003036029
:10225000026802F0400200920099036843F0100304
:102260000360026802F0100200920099036843F0D4
:1022700008030360006800F008000090009901B0B6
:10228000704700BFE04402580022124880B58280A7
:1022900011494261826101220160026201F02EFA5D
:1022A00028B13D210EA0BDE80440FFF74DBF01BDA0
:1022B00081B000680849884209D10848026842F4A0
:1022C00000220260006800F400200090009901B034
:1022D0007047000068070020004C0258E044025894
:1022E000463A5C6F746865725C626C645C53544D12
:1022F000333248375C70726F6A6563745C73746DF7
:1023000033326837343369695C73746D33324837FC
:1023100034335F74656D705C5372635C6372632EFB
:10232000630000000020002100222DE9F8438E4CBC
:1023300096B004F13C058D4E6E600F23E8601020CE
:102340002961DFF82C92E961FF27A9624FF400416F
:102350006A610FF24428A86100202A62EA62696378
:102360001121AA636A64102268622863E863286402
:102370000492002205916946069004F14000C5F8D8
:102380000890009301930297039301F0F3F910B1C1
:102390005D2100F07CF8042000212E650022A86554
:1023A0001020E96504F1BC0668660020A9664FF4B8
:1023B0008051C5F8549010232A66EA662867696739
:1023C0000F21AA67E86730607260B060F060326128
:1023D0001122009101910297039169460592002212
:1023E000069004F18C00049301F0C4F910B180212F
:1023F00000F04DF800235F484FF48071E360022243
:1024000023616361A361E3616362A362E3622363A7
:102410006363A3632B70FC232060204661600BA9DB
:10242000A26007AA0B930C930D930E930793089346
:1024300009930A9301F0D0F910B1A32100F027F815
:1024400009F13C000021F0610820316240227162F4
:102450001021B0628020F16200213263102270638B
:1024600004F1D800B163F163316471640FA90F9274
:1024700010921192129213921492159201F0E0F9B7
:1024800010B1BF2100F003F817B0BDE8F08340465B
:10249000FFF75ABE38490868002800D0704710B5C9
:1024A000012286B00A60354801684FF63F020C24CD
:1024B00041F4805101600368314803F4805305936F
:1024C00005990223009201930021029103230393B3
:1024D0006946049401F0DAF9022104940191032180
:1024E000012200230391274C009269460293204663
:1024F00001F0CCF90C2100F028F8234801F0C6F9CE
:1025000048F27F3100F021F8204801F0BFF94FF682
:10251000837100F01AF81E4801F0B8F94FF63371D4
:1025200000F013F81B4801F0B1F9C021022200911C
:102530000321019200230391092202936946049228
:10254000204601F0A3F906B010BD0222009103213C
:102550000192002303910C22029369460492704772
:1025600098E797E796E7000014000020004000522B
:102570000441005280400052BC070020D44402585D
:102580000014025800080258001C02580018025893
:1025900000100258000C0258463A5C6F746865726D
:1025A0005C626C645C53544D333248375C70726FBC
:1025B0006A6563745C73746D333268373433696988
:1025C0005C73746D3332483734335F74656D705C9F
:1025D0005372635C666D632E6300000066480022E0
:1025E00038B5664C00F040F88AB000F047F810B1FA
:1025F000502100F027F8002007A90790204601F09D
:1026000041FA10B1582100F01DF800F01EF810B189
:10261000652100F017F80BB030BD5948002230B5E5
:10262000584C00F021F887B000F028F810B1832151
:1026300000F008F800F009F810B1902100F002F85D
:1026400007B030BD2846FFF77FBD0521002300916C
:102650004FF0804101220391019269460293204686
:102660000493059301F0A0BB4FF4402120600420A7
:1026700020610120A2600023A2827047A06100BFF8
:1026800046A522772062606204F13800A262E2620D
:102690002263626301220270437020466160E3603E
:1026A00001F064BA3848002230B5384CFFF7DCFF3F
:1026B00087B0FFF7E3FF10B1AE21FFF7C3FF0121A1
:1026C00000230091204601914FF08041039169461B
:1026D00002930493059301F067FB10B1BB21FFF750
:1026E000B1FF07B030BD10B5294986B00A6800684F
:1026F000214C284B521CA0420CD1012A0A6018D14F
:10270000186840F020001860196801F0200100915D
:1027100000980EE01A4CA04215D1012A0A6008D197
:10272000196841F0200119601A6802F02002009235
:10273000009900210322039101A9019216480292F7
:1027400001F0A4F815E0104A904212D1986840F0C8
:1027500080709860996801F08071009100984FF046
:1027600080610846FFF72EFD4FF000610846FFF735
:1027700029FD06B010BD000000200240BC02002070
:102780000021024020030020006002588403002042
:10279000B8070020D844025800040258463A5C6F3B
:1027A000746865725C626C645C53544D33324837B4
:1027B0005C70726F6A6563745C73746D3332683712
:1027C000343369695C73746D3332483734335F7402
:1027D000656D705C5372635C6164632E630000001E
:1027E00030B5224C224989B02160204623A501F052
:1027F000F5FC18B13D212846FFF7A6FC0021002278
:1028000000912046029101210391694601920492B0
:1028100001F02DFD18B149212846FFF795FC09B0BC
:1028200030BD00681249884200D0704780B586B03C
:102830001048026842F000520260036810220E48FD
:1028400003F00053009300990323019200210293A7
:10285000039101A901F01AF8002200213620FEF7A9
:102860009FFE3620FEF7B9FE07B000BDA40700208A
:1028700000740040E844025800000258463A5C6F79
:10288000746865725C626C645C53544D33324837D3
:102890005C70726F6A6563745C73746D3332683731
:1028A000343369695C73746D3332483734335F7421
:1028B000656D705C5372635C6461632E630000003D
:1028C00010B5354835494FF48072016082600122AD
:1028D0000221426182610024C1610023016200F192
:1028E000840142628262C26202630422C360048283
:1028F00044638463C463046442648464C26404659E
:1029000042658465C465046644668266C46604677D
:1029100044678467C467C0F880400C604C608C607A
:10292000CC604C6101F022FD28B15F211FA0BDE801
:102930001040FFF709BC10BD00681849884200D05C
:10294000704780B586B01648026842F48072026013
:1029500003684FF40072134803F4807305930599DC
:102960000223009200210193029103910921049115
:10297000694600F08BFF4FF40052022100920023C1
:10298000019109220293694603930748049200F0DB
:102990007DFF07B000BD00002001002000A0004026
:1029A000EC44025800200258001C0258463A5C6F62
:1029B000746865725C626C645C53544D33324837A2
:1029C0005C70726F6A6563745C73746D3332683700
:1029D000343369695C73746D3332483734335F74F0
:1029E000656D705C5372635C666463616E2E630038
:1029F0004FF4E132644880B542600023634900F03F
:102A000011F808B14E211DE001BD4FF4E1326048DC
:102A100080B5426000235F4900F004F808B16721E7
:102A200010E001BD83610C2201608360C36003611B
:102A30004261C361036243628362C36203634363AF
:102A400000F0D4B858A0BDE80440FFF77DBB10B536
:102A50004E4B86B001685048504A994217D11468CD
:102A6000694644F48014146012684FF4405402F430
:102A7000801200F038F803930E23049300F006FF51
:102A8000002200213520FEF78BFD352027E0414B49
:102A9000994226D191684FF4004441F010019160B1
:102AA0009268694602F0100200F01DF800240393BA
:102AB0000423049300F0EAFE4FF400720223009214
:102AC000072201936946029435480394049200F06A
:102AD000DDFE002200212520FEF762FD2520FEF705
:102AE0007CFD06B010BD0592059B022200940023D8
:102AF00001920293704738B50446264B2068294D51
:102B0000984212D101222946204600F002F90028FD
:102B1000F8D14FF47A7301222946204600F0A6F836
:102B20002068C1694A06FBD531BD184B9842FBD1DC
:102B3000012205F10C01204600F0EBF80028F7D146
:102B40004FF47A73012205F10C01204600F08EF853
:102B50002068C1694A06FBD531BD38B555200A4CFD
:102B60008DF800004FF47A7301226946204600F088
:102B70007DF82568EA695006FBD59DF80010491CD0
:102B80008DF80010EEE70000BC010020005000406E
:102B90003C0200200010014000040258E8440258A2
:102BA000000002588C070020463A5C6F746865721A
:102BB0005C626C645C53544D333248375C70726FA6
:102BC0006A6563745C73746D333268373433696972
:102BD0005C73746D3332483734335F74656D705C89
:102BE0005372635C75736172742E630038B50400B0
:102BF00009D004F17805697809B900F01FF800F0F0
:102C000022F8012801D1012032BD606B08B100F02B
:102C10002AF800F00BF822F02A02826000F01DF87A
:102C2000FFE72046BDE8324000F06CBC20684168F8
:102C300021F490414160206882687047002028702C
:102C40002046FFF704BF24216970206802685208FB
:102C500052000260204600F08FB92068016841F000
:102C6000010101607047204600F0E8BB2DE9F84300
:102C7000054605F16007787E884614461E462028E2
:102C800039D1B8F1000F14BF002C012034D0387EA8
:102C9000012830D00121002239762120FA6178768E
:102CA000FEF762F83C8081467C8005E038F8020B34
:102CB0002968C0F3080008857888F8B179884B4600
:102CC00028464A1E80217A800022009600F048FCA7
:102CD000E8B9A968B1F5805F04BF28690028E5D08C
:102CE0002A6818F8011B1185E6E720200021787674
:102CF0000020397600E00220BDE8F28300964B46C2
:102D000000224021284600F02BFC0028EDD00320B3
:102D1000F2E730B500F168039C7C202C42D109B168
:102D2000140001D1012030BD1C7C012C3AD00125BA
:102D30001D7441661A805A808168FF22B1F5805F58
:102D400004D1016961B940F2FF1209E011B90169CA
:102D500029B905E0B1F1805F06D1016911B97F227F
:102D60009A8001E03F219980002222245A619C74BC
:102D70001A7401688A6842F001028A6001680B686F
:102D80009A0009D50C6844F480740C60006881686E
:102D900041F08051816003E0086840F49070086061
:102DA000002030BD022030BD206881684A0670478F
:102DB000F8B5044604F174052168CA690B688E6889
:102DC00012F00F000AD1900670D59F0601D4F000D2
:102DD0006CD52046BDE8F24000F008BCDFF8F005F5
:102DE000064208BF13F4907F60D0D70707D5DF05F0
:102DF00005D501270F62A96841F00101A960970775
:102E000008D5F10706D5276802213962A96841F083
:102E10000401A960570708D5F10706D527680421E2
:102E20003962A96841F00201A96017070AD599061D
:102E300001D4064206D0276808203862A96841F00C
:102E40000801A960A86800282FD0910606D5980629
:102E500001D4F10002D5204600F0C8FBA8680107A4
:102E600003D42268906841061AD5204600F0A7FBDB
:102E7000FFF79AFF0FD500F079F860B10FF25D719E
:102E80000165286801F07EFC00286ED02868016D7D
:102E9000BDE8F44008472046BDE8F24001F0C2BC5E
:102EA000204601F0BFFC0020A860F1BDD7020CD580
:102EB00070020AD54FF4801220460A6220216971FF
:102EC000A971BDE8F24001F0AEBC170636D5180670
:102ED00001D4360232D56A79212A46D1B4F862008B
:102EE00088B90A68930004D5886820F400008860D7
:102EF00003E00A6822F080020A602068016841F05D
:102F000040010160F1BDA268B2F5805F04BF206995
:102F1000002808D1E26D1388C3F308030B85E06D28
:102F2000811CE16504E0E06D421CE26500780885E3
:102F3000B4F862104A1EA4F86220F1BD50060CD508
:102F40005E060AD50A68202022F040020A606871F5
:102F50002046BDE8F24001F067BC120205D55800DA
:102F600003D50B6823F080430B60F1BD836823F029
:102F700040038360286870472DE9F84386B0DFF886
:102F80005464802504462168002081460F68A268A9
:102F90002369374066691743E2691F43A36A3743D1
:102FA00017431F430F604E68E26826F440561643ED
:102FB000DFF824244E609142A769A66A1CBF236AE9
:102FC0001F43B6F1005F03D1E36A266B33431F430F
:102FD0008E68DFF808340FF2846833401F438F6037
:102FE000CE6A636ADFF8F873360943EA0616DFF83B
:102FF000F4339942CE62DFF8F06302D167E0042532
:1030000040E0DFF8E83399420AD100F012FA39D8EB
:10301000DFE803F0920304142537F0E7402531E0A0
:10302000DFF8CC3399420BD100F003FA2AD8DFE85D
:1030300003F0830403051628F0E7E0E7082521E004
:10304000DFF8B03399420CD100F0F3F91AD8DFE879
:1030500003F0730504030618F0E7DFE7CFE7102558
:1030600010E0DFF8943399422DD100F0E2F909D84D
:10307000DFE803F0620605040307F0E7DEE7CDE7CB
:10308000BDE72025914240F0E580022D0DD0042DB2
:1030900068D0082D00F06E80102D00F07680202D75
:1030A00000F07580402D61D08BE1FDF7A4FC002875
:1030B00000F08981626802EB4201884202D3130367
:1030C000834267D27DE1DFF83433994210D17B6DC2
:1030D00013F038030AD0082B1BD0102B9ED0182BCE
:1030E000ACD0202BBBD0282BCBD0CBE70125C9E718
:1030F000DFF80C3399420DD100F09BF9C2D8DFE81C
:1031000003F01B0807060504BCE7BAE7A7E795E745
:1031100084E774E7DFF8EC3299420FD100F089F9C7
:10312000B0D8DFE803F0090807060504AAE7A8E716
:1031300095E783E772E762E70025A3E79142A1D113
:10314000BB6D03F00703052B9CD8DFE803F00908EB
:103150000706050496E794E781E76FE75EE74EE729
:103160000225A2E700F062F90498A0E700F05BF9FD
:1031700001989CE73868810605D53868C0F3C1011D
:1031800026FA01F093E7304694E79F4892E74FF420
:1031900000408FE7022D0AD0042D0DD0082D1CD041
:1031A000102D2FD0202D3ED0402D0BD049E0FDF723
:1031B00022FCD4F824C00AE000F038F9D4F824C086
:1031C000049804E000F02FF9D4F824C00198626854
:1031D00038F81C60B0FBF6F61BE0D4F824C00021E0
:1031E000002338F81C003D68AD0603D53D68C5F3E3
:1031F000C107FE40B6FBF0F6370E360216EB520062
:1032000079410DE0D4F824C07F4B38F81C60B3FB43
:10321000F6F65008002110EB062051EB1661002352
:1032200001F004FB0FE0666A4FF4004138F8160025
:10323000B1FBF0F080B2510801EB0021B1FBF2F0DC
:1032400001E04FF00109A0F54072704B9A4272D232
:103250002168B4E0E269B2F5004F5FD165B1012D9C
:103260000DD0042D19D0082D21D0102D32D0202DB5
:103270003DD0402D16D046E0FDF7C4FE01E0FDF73D
:10328000C9FE626A616838F81230B0FBF3F04E088C
:1032900006EB4006B6FBF1F037E000F0C7F86068D7
:1032A000049919E000F0BFF86068019914E0606AC1
:1032B000616838F810003B684A089B0603D53B68F4
:1032C000C3F3C103DE40B6FBF0F002EB4002B2FBF9
:1032D000F1F01AE060684C49626A38F81230B1FBCC
:1032E000F3F3410801EB4301B1FBF0F00DE0616A3B
:1032F000606838F81130B2FBF3F3420802EB430286
:10330000B2FBF0F001E04FF001094FF6F07101401F
:10331000C0F3420001432068C16054E065B1012D53
:103320000DD0042D1BD0082D27D0102D37D0202DE7
:1033300038D0402D1AD044E0FDF764FE01E0FDF7DF
:1033400069FE626A6168246838F81230B0FBF3F0F5
:1033500000EB5100B0FBF1F189B2E16033E000F025
:1033600065F8626A049900F053F827E000F05BF812
:10337000626A019900F04CF820E0626A38F81200A5
:1033800062683C68A30603D53C68C4F3C104E64008
:10339000B6FBF0F000EB5203B3FBF2F00EE0606816
:1033A000194A02E060684FF40042636A38F813403B
:1033B000B2FBF4F404EB5004B4FBF0F080B2C8604C
:1033C00001E04FF00109484607B0BDE8F083000076
:1033D00001000010F369FFCF000C0058FFF4FF114B
:1033E00000440258001001400090D0030044004007
:1033F00000480040004C00400050004000140140D4
:1034000000780040007C004000093D0000FD0F00F6
:10341000606838F81230B1FBF3F303EB5003216816
:10342000B3FBF0F070476846FDF716BB03A8FDF745
:10343000EFBA7B6D03F00703052B704710B590F8CA
:103440003410CA0706D502685368816B23F4003331
:103450000B43536090F83420910706D502685368F7
:10346000C16B23F480330B43536090F83420510731
:1034700006D502685368016C23F480230B43536024
:1034800090F83420110706D502685368416C23F484
:1034900000430B43536090F83420D10606D50268F0
:1034A0009368816C23F480530B43936090F834202D
:1034B000910606D502689368C16C23F400530B4350
:1034C000936090F83420510610D502685368016D5E
:1034D00023F480130B435360036DB3F5801F05D1B4
:1034E0005468416D24F4C0040C43546090F83420B7
:1034F000110606D501684A68806D22F40022024355
:103500004A6010BDF8B5044604F1780500206FF05C
:103510007E476860FDF728FC2168064608680207B8
:1035200008D50097334600224FF40011204600F0E2
:1035300017F860B9206801684A070AD50097334632
:1035400000224FF48001204600F00AF808B1032061
:10355000F2BD202000226870A87000202A70F2BD01
:103560002DE9F04105460E4690461F46069C286808
:10357000C1693140B1420CBF0120002040451BD140
:1035800014F1010FF3D024B1FDF7EEFBC01B844210
:10359000EDD228680023016821F4D0710160286809
:1035A0002021826852085200826005F17800417043
:1035B00081700370032000E00020BDE8F081016805
:1035C0000A6822F490720A6001688B685B085B00ED
:1035D0008B60202180F87A1070470000806B0022F9
:1035E00000F162010A810A8001F01CB938B500F1CE
:1035F0006A0201685388147C222C28D18C8C85683F
:10360000B5F5805F04BF0169002906D12340446EEF
:103610002380416E8B1C436604E0416E23404D1CA9
:1036200045660B701188491E118089B269B901681D
:103630000B6823F490730B6001688C686408640065
:103640008C6020211174FFF756FA002032BD088BE0
:1036500040F008000883022032BD00000100020093
:103660000400060008000A000C00100020004000C2
:10367000800000010248416802788A184260704761
:103680000000002080B51C48016841F00201016083
:10369000006800F00200009000990320FDF773FF1E
:1036A000002200216FF00B00FDF77AFF00220021BD
:1036B0006FF00A00FDF774FF002200216FF009008F
:1036C000FDF76EFF002200216FF00400FDF768FF98
:1036D000002200216FF00300FDF762FF00220021AD
:1036E0006FF00100FDF75CFF002200214FF0FF307A
:1036F000BDE80840FDF754BFF444025810B504007B
:103700001FD0617F19B900222277FEF7D1FD022177
:103710006177207970B92268154951612068836802
:1037200023F018038360607968B922684FF0FF3195
:1037300011610BE0E268A168204601F08FF90028D2
:10374000F1D0012010BD21682069086121688A68D4
:10375000606922F0600202438A6021688A68A06979
:1037600022F08002024300208A600121617710BDAF
:10377000B71DC10470B504000D46164601D10120E5
:1037800070BD04F14401487820B9002220460A7037
:10379000FEF7E6FE206804F1080101F083F9A26853
:1037A0002068294601F0B8F9E36AA26860683146EA
:1037B00001F0DDF9A068216851F8202042F00102F3
:1037C00041F820200348016841F0004101600020D9
:1037D00070BD00000040005270B504000D46164652
:1037E00001D1012070BD94F8210028B900212046A4
:1037F00084F82010FEF7B5FE2068211D01F0D5F9F0
:1038000062682068294601F0E5F96268206831465F
:1038100001F0E7F92068016841F004010160DFF878
:103820001C00026842F00042026000F001F870BD26
:10383000012084F821000020704700000040005261
:1038400070B504000E4601D1012070BD04F12C05B5
:10385000287820B9002120466970FEF783FE0220F7
:10386000211D2870206801F0CEF962682068314679
:1038700001F004FA0448016841F0004101600120B0
:103880002870002070BD0000004000522DE9F8476C
:1038900002460B4600246E480F211D680127A740F1
:1038A0003D40BD4240F0C5805E684FEA8408022E6C
:1038B00018BF122E12D1E60802EB860C08F01C0687
:1038C00001FA06F9DCF820E0D3F810A02EEA090E80
:1038D0000AFA06F646EA0E06CCF82060166893F857
:1038E00004904FEA440C4FF0030E0EFA0CFE6FEA00
:1038F0000E0E0EEA060609F0030909FA0CF949EA68
:10390000060616605E68012E18BF022E03D0112E27
:1039100018BF122E12D19668D3F80C900EEA060644
:1039200009FA0CF949EA06069660566826EA07077E
:103930005E68C6F30016A64037435760D7680EEAA4
:1039400007069F6807FA0CF73E43D6605E68F600EC
:103950006FD50768DFF8FCC008F00C0801FA08FE14
:1039600047F002070760066806F002060096009F0F
:10397000A7085CF8276026EA0E0E374EB24208BF51
:1039800000262CD0354EB24208BF012627D0344E37
:10399000B24208BF022622D0324EB24208BF0326EE
:1039A0001DD0314EB24208BF042618D02F4EB2426D
:1039B00008BF052613D02E4EB24208BF06260ED0F1
:1039C0002C4EB24208BF072609D02B4EB24208BF88
:1039D000082604D0294EB2420CBF09260A2606FA50
:1039E00008F646EA0E064CF82760DFF894C0DCF8CB
:1039F00000706FEA05085E6808EA0707F60348BF2B
:103A00002F4300F01CF8B60348BF2F43CCF80470D6
:103A10004FF0B04CDCF800705E6808EA0707F60269
:103A200048BF2F4300F00BF8B60248BF2F43CCF835
:103A30000470641C0F2C7FF630AFBDE8F187CCF822
:103A40000070DCF804705E6808EA07077047000041
:103A5000F4440258080400580000025800040258B8
:103A600000080258000C02580010025800140258B6
:103A700000180258001C0258002002580024025866
:103A800080000058F0B500F1500400222378012B8B
:103A900001D10220F0BD01252A4E25700368B342F2
:103AA00026D1294F3B685B0740D4254DAE68770788
:103AB0003CD40B68254E264F13B33B6823F4404C8F
:103AC0004B6843EA0C033B6000F049F802D1006800
:103AD000C30730D4A86800F03EF802D12B68DD0798
:103AE00029D4386806400868896806430E431BE0FD
:103AF0006268002042F02002626020700120F0BD68
:103B0000396821F44041396000F029F802D1006899
:103B1000C10710D4AB6803F00303012B02D128685E
:103B2000C10708D43B681E403E6004E06068012283
:103B300040F020006060002110462170F0BD0000C0
:103B4000002102400020024008200240E0F0FFFF78
:103B500008230240B06800F00300012870470068A5
:103B6000836803F00303012B70470000F8B50026BB
:103B7000044600960CB90120F2BD04F13805E8694D
:103B800020B92046FEF7AFFD2E622E7620688168B0
:103B90008A0003D5836823F000538360206881681E
:103BA000CA0015D48368DFF8D821DFF8D8C10A210C
:103BB00043F0805383601768B7FBFCFC01FB0CF0FB
:103BC000009002E0009A521E009200980028F9D15D
:103BD00020688168CA0008D4EB69012643F010030D
:103BE000EB61296A41F001012962E969CA0601D441
:103BF0008368590700F1BD80EA69DFF88C71B8422B
:103C000042F00202EA61DFF88421836816BF904225
:103C1000DFF87C11DFF87C1103F00303012B02D1E4
:103C20000368DB0737D4B842DFF86C310CD100F001
:103C3000C1FA02D11268D0072DD49F6807F003079C
:103C4000012F20D118681BE09042B86800F00300F3
:103C50000CD1012802D13F68F8071CD4986800F005
:103C6000AAFA08BF186804D0002004E0012803D194
:103C7000386800F0010070B900F09CFA03D11068B8
:103C800000F0010000E0002028B90A68606822F412
:103C90007C1202430A60216B637DA068227F41EAA7
:103CA0004331014341EA0241012A03D1226A521EF3
:103CB00041EA4241626A012A1FBFA06A002802430A
:103CC00011432268DFF8D400D36803401943D16060
:103CD0002268916811F00C0F37D1D368DFF8C0105B
:103CE000277DE06A0B4043EA87330343D36069785A
:103CF000012911D12368DFF8AC001F69AA68E968BF
:103D00000740686847EA0047286917430F4307439D
:103D100047F001071F6104E0206801694908490074
:103D2000016121680A69606B22F0704202430A61F6
:103D300029782068012904D1826842F48072826067
:103D400003E0816821F480718160E06801282068C7
:103D5000016B05D1A2690909521E42EA011101E075
:103D6000090909010163E86920F0020040F001003F
:103D700003E0E869012640F01000E8613046F2BD3A
:103D80000C00002080841E00002002400021024020
:103D900008230240086302580060025803C0F0FF85
:103DA000FCBFFFFF1EF800FC024608462DE9F84361
:103DB000002102F1500400912578012D08BF022056
:103DC00000F0D681012323701568AE68770700F1F3
:103DD000C7810346E8691F6801264FF0060C06FA02
:103DE00007F73843E861D3F804E01F27186815681F
:103DF000BEF1040F0CD80CFB0EFED5F8308007FA8C
:103E00000EF728EA070700FA0EF03843286322E08D
:103E1000BEF1090F09D8AEF1050ED5F834801EFBAE
:103E20000CFC00F0BAF9686315E0BEF10F0F09D27F
:103E3000AEF10A0ED5F838801EFB0CFC00F0ADF98F
:103E4000A86308E0AEF10F09D5F83C8019FB0CFC23
:103E500000F0A3F9E863D2F800C00727DCF80800F7
:103E600010F00C0F52D11D68D3F808E0092D0DD9C0
:103E70000A3DDCF8180005EB450807FA08F5A843E9
:103E80000EFA08F52843CCF818000CE005EB4505C0
:103E9000DCF8148007FA05F00EFA05F528EA0000B0
:103EA0002843CCF814001068D3F814C0C568D3F8C0
:103EB00010E0AD086D0005F00E050CFA05F5AEF149
:103EC000010EBEF1030F00F27980DFE80EF0022050
:103ED0003D5AD0F860C0D3F800800CF0004C4CEA9A
:103EE000886C45EA0C0505661068056925F4006CC8
:103EF0001D7E45EA0C0500F03DF918B1286E40F032
:103F0000004002E0286E20F00040286679E0D0F8FA
:103F100064C0D3F800E00CF0004C4CEA8E6C45EA2B
:103F20000C05456600F041F925F4805545EA4C053D
:103F300000F020F918B1686E40F0004002E0686EB1
:103F400020F0004068665CE0D0F868C0D3F800E07C
:103F50000CF0004C4CEA8E6C45EA0C05856600F0CE
:103F600024F925F4005545EA8C0500F003F918B151
:103F7000A86E40F0004002E0A86E20F00040A86665
:103F80003FE0D0F86CC0D3F800E00CF0004C4CEAF5
:103F90008E6C45EA0C05C56600F007F925F48045EE
:103FA00045EACC0500F0E6F818B1E86E40F00040B4
:103FB00002E0E86E20F00040E86622E0056E00F0C6
:103FC000E5F803D1056E25F0004505661068456EDD
:103FD00000F0DCF803D1456E25F000454566106819
:103FE000856E00F0D3F803D1856E25F00045856617
:103FF0001068C56E00F0CAF803D1C56E25F0004503
:10400000C5661568A86800F0D6F802D12868C00710
:1040100037D418688640D868B0F1804FD5F8C00012
:1040200004D020EA0606C5F8C06014E00643C5F8CF
:10403000C0601E6898681568092E06D3093ED5F839
:1040400018C000F09BF8AF6105E0761CD5F814C0ED
:1040500000F094F86F611268DFF86C01DFF86C61B2
:104060001B68824216BFB242DFF85451DFF860513C
:10407000122B02D12F683F0203E0112B03D12F68CE
:10408000FF0172D404E0132B6FD12F687F026CD430
:10409000976807F00307012F02D11768FF075FD465
:1040A0008242DFF820710CD1B06800F084F802D1B0
:1040B0003668F00754D4B86800F07DF824D1386829
:1040C0001FE0D0F808C0B2420CF0030C0DD1BCF1D7
:1040D000010F02D10068C00742D4B86800F06BF845
:1040E00008BF386805D0002005E0BCF1010F03D1FE
:1040F000006800F0010098BBB06800F05CF803D1E4
:10410000306800F0010000E0002048BB122B15D100
:10411000BA422AD128682F4B2F4E782240F4000053
:1041200028601D68B5FBF6F65643009600980028F7
:104130001EBF009A521E0092F8D116E0112B06D134
:10414000BA4212D1286840F0807028600DE0132B2D
:1041500008BFBA4209D12A6842F480022A6004E00A
:104160006068012140F02000606000220846227053
:10417000BDE8F2830561587E1568704706EB460678
:10418000B7402CEA0707B04007437047D3F800C098
:1041900005F0F845B5EB8C6F704707FA0CF728EA85
:1041A000070700FA0CF0384370471068056993F868
:1041B00018C07047906800F00300012870470000A5
:1041C0000823024000600258002002400021024003
:1041D000086302580C00002080841E0010B5040003
:1041E00001D1012010BD207920B900212046617144
:1041F000FEF717FB0220002120710122216100201F
:10420000227110BD10B50446206801688A0413D5D8
:10421000436B990410D504224FF400512271236995
:1042200043F00103236141632068026822F4805255
:104230000260204600F068FD206801688A0015D5FC
:10424000436B990012D504224FF00051227123696B
:1042500043F00203236141632068026822F0805228
:1042600002602046BDE8104000F04FBD10BDF8B51B
:1042700005460E4668791446012801D10220F2BD98
:1042800001210220697128713268042A33D16CB986
:10429000FCF76AFD07462868334A416B114215D086
:1042A000FCF762FDC01B0128F5D907E02868416BC7
:1042B000002912D5FCF758FD0128F7D928690321F8
:1042C00040F00800286103202971F2BD012000F0B0
:1042D0001DFD2968B069086405E0012000F016FDA5
:1042E0002968B0694864F2692868A2408264316A2A
:1042F0002B68A140D9643069012808D128681F22A1
:10430000A240816B73699143A340194381632A687A
:104310000727A740D36B3068B1680143F068BB43FF
:104320000843A04003434FF48041D3632868A14071
:1043300040F6FE73A34002688A4302602868016861
:1043400072689943C026A24011430160286806FAAA
:1043500004F40022016821EA0404046001202871A9
:1043600000206A71F2BD000000800020F8B5040052
:1043700029D02068DFF8105204F19406A84204BF47
:10438000DFF808126160307820B900212046717092
:10439000FEF7D2FA00F0F0F80746206881690A07B4
:1043A00040F1C580FCF7E0FCC01B0B28F5D305E00D
:1043B000FCF7DAFCC01B0B28C0F0C080706800F06E
:1043C000E7F8706031700120F2BD826942F040026E
:1043D0008261607C0128206881690CBF41F48041C2
:1043E00021F480418161A07C0128206881690CBF93
:1043F00021F4805141F48051816121688A69A0686B
:1044000022F4407202438A61E068012804D12068E6
:10441000816941F0040113E0B8B12168022888697C
:1044200010D040F0800088612068016941F01001DF
:104430000161E068032808D12068816941F020010A
:10444000816102E040F020008861E069A169626951
:10445000401E0002491E40EA4160216A521E491E68
:104460000843216840EA0240C861A068B0F5407F77
:104470000FD1A16AE06A226B491E401E41EA002169
:10448000521E606A41EA02112268401E41EA004160
:10449000D160206E30B12068D0F8C020616E0A4330
:1044A000C0F8C020E06D216E2EA2081809D0206847
:1044B000D0F8C830A76ED15DDB0841EAC303C0F86D
:1044C000C830206C48B12068D0F8BC30676CD15D32
:1044D000DB0841EAC303C0F8BC30A06C50B12068CF
:1044E000D0F8BC10E36C21F07001D75C41EA0711F1
:1044F000C0F8BC10206D50B12068D0F8BC10636DBE
:1045000021F4E061D25C41EA0221C0F8BC102068CD
:10451000A84204D1606881688908890081602046CA
:1045200000F03AF80020012170603170F2BD82691C
:1045300042F001028261FCF717FC0746206881699E
:10454000CA077FF535AF836943F002038361207C9E
:10455000012820687FF439AF816921F04001816131
:1045600037E700000000000000010203040005001E
:1045700000000600000007002068816921F010019A
:104580008161FCF7F1BB000000A0004000A10040E9
:10459000032140F00100704770B5416B764AC16657
:1045A0000368D3F88440144044EA8104C3F884408B
:1045B0000168D1F88430846B23F47F0343EA044319
:1045C000C1F88430C36E816BCB1803670168D1F8E2
:1045D0008840144044EA8304C1F888400168D1F857
:1045E0008830C46B23F47F0343EA0443C1F8883066
:1045F000016FC36B01EB430141670368D3F8A0402F
:10460000144044EA8104C3F8A0400168D1F8A03006
:10461000046C23F4FE0343EA0443C1F8A030456F61
:10462000036C416C01FB035383670168D1F8B04010
:1046300024F0FC0444EA8304C1F8B0400168D1F8D6
:10464000B030846C23F4FE0343EA0443C1F8B03075
:10465000856F836CC16C01FB0353C3670168D1F89C
:10466000AC4024F0FC0444EA8304C1F8AC40C56FBC
:10467000036D416D01FB0353C0F880300168D1F830
:10468000F040224042EA8302C1F8F0200168D1F8EC
:10469000F020836D22F47C1242EA0342C1F8F0203C
:1046A000D0F88010826D01EB420100F184021160AC
:1046B0000368D3F8C04024F0FC0444EA8104C3F842
:1046C000C0400168D1F8C030C46D23F47C1343EAC4
:1046D0000443C1F8C0301368C56D816E01FB05331A
:1046E00053600168D1F8C030046E23F07C5343EA74
:1046F0000463C1F8C030846B056C416B1F4B03EB46
:104700008103C16BC36603EB8404046704EBC1043B
:10471000416C44674D4304EB8504856CC16C846730
:104720004D43416D04EB8504056DC4674D4304EBB7
:104730008504856DC0F8804004EBC5041460816E6B
:10474000C66D4E4304EB86045460006E414304EB97
:1047500081040B49D4608C4208D3506940F020009A
:104760005061012070BD002143F8041BD0688342D2
:10477000F9D3002070BD00000300FFFF00AC004033
:10478000FDB5004038B530B100F13402517802294E
:1047900003D080201062012032BD0168DFF87C4028
:1047A00040F2A94365189D4206D2042050700A6861
:1047B000520852000A602EE00D6825F00E050D60CB
:1047C000016864189C4204D20B685B085B000B60B4
:1047D00003E00C68640864000C60D16A0124DFF80F
:1047E00040500B6823F480730B60916A8C402C60FE
:1047F000146B536B6360916B31B10B6823F480735E
:104800000B60D46B116C6160002301211370517037
:10481000D16901B18847002032BD0000F0FFFDBF23
:10482000045402587047704770470000BBBBE1B1A9
:10483000B2F5803F80F07E80022A1ED98C46B1FB03
:10484000F2F102FB11C31B0443EA1043B3FBF2FC79
:1048500002FB1C3380B240EA0343B3FBF2F002FBDD
:10486000103240EA0C4000237047022A05D98446E2
:10487000B0FBF2F002FB10C270474AB105D100F064
:10488000010249085FEA30007047002200237047A8
:1048900000F050BA0B000200002100207047904247
:1048A00071EB030CF6D3B3F5803F2FD2F0B5B3FA1A
:1048B00083F7B1FA81F4A7F10F0E3D1B5340CEF1FF
:1048C000200602FA0EF2F3415340B5F10F0746D825
:1048D0000F3C2C444140C4F12006A040F14141402E
:1048E000B1FBF3F603FB1611A2FB0645001BA94121
:1048F00002D2761E8018594180EA010221FA0EF395
:1049000062FA0EF200215A403046F0BD30B4B1FBDD
:10491000F3FC03FB1C11A2FB0C45001BA94103D2B5
:10492000ACF1010C8018594130BC02460B46604680
:1049300000217047B2F1807F65D3F0B5B2FA82F7FB
:10494000B1FA81F4C7F10F063D1B22FA06F307F115
:10495000110EF24120355A40B5F10F07B8D9414048
:10496000C4F12006A040F1414140B1FBF3FC03FB40
:104970001C11A2FB0C45001BA94103D2BCF1010C88
:10498000801859410F2F12D30F3FC90341EA5041FC
:10499000B1FBF3F603FB1611A2FB0645D4EBC030C6
:1049A000A94102D2761E8018594146EACC3C07B391
:1049B0004140C7F12006B840F1414140B1FBF3F658
:1049C00003FB1611A2FB0645001BA94102D2761E6D
:1049D0008018594180EA010221FA0EF3C7F1200440
:1049E00062FA0EF20CFA07F05A402CFA04F1304346
:1049F000F0BD80EA010221FA0EF3002162FA0EF204
:104A000060465A40F0BD8C46B1FBF2F102FB11C387
:104A10001B0243EA1063B3FBF2FC02FB1C331B02D4
:104A20004CEA002043EA1063B3FBF2FC02FB1C33A8
:104A30001B024CEA002043EA1063B3FBF2FC02FBCA
:104A40001C331B024CEA002043EA1063B3FBF2FC68
:104A500002FB1C324CEA00200023704710B51F24D3
:104A600021FA04F3DB0703D423465C1E002BF7D1A5
:104A7000130007D0082A11D0102A0CD0182A0FD101
:104A8000072C0DD200684161816821F018010A43AA
:104A90008260002010BD082CF4D301E0102CF1D36B
:104AA000012010BDF0B50D68934B50F825704A6891
:104AB0008E68CC681F400B6917434A693743274308
:104AC0008C691F43CB6917430A6A27434C6A1F430B
:104AD0008B6A1743CA6A27430C6B1F438B6B1743C0
:104AE0004A6B27431F431743082E08BF47F0400770
:104AF00040F825700B6BB3F5801F05D10A684AB1E9
:104B0000036843F4801303600A681AB10368496BB1
:104B10000B4303600020F0BD70B5041D54F8224023
:104B20000B684D688E6804F040441C43CB6844EA2F
:104B300005140D6944EA06244E6944EA03448B696E
:104B40006D1E44EA0554B61E051D44EA06641C4366
:104B500045F822400268D40207D54268096922F468
:104B60007002491E42EA01524260002070BDB3F556
:104B7000804F70B513D150F822500B685F4C4E68CF
:104B800025408C681D43CB6845EA0615896945EACE
:104B9000042545EA03450D4340F8225003E06FF039
:104BA000704340F82230002070BD30B505684A6877
:104BB000534B8C681D40CB6815430A6925434C69EB
:104BC0001D438969154345EA442545EA4135056099
:104BD000002030BD10B5826800F00AF88360002024
:104BE00010BD10B5C26800F003F8C360002010BD0E
:104BF0000B684C688A6843EA0423C96843EA0243A5
:104C000043EA016370472DE9F0454A6A0B6ACC69B3
:104C10008D694E690F69D1F80CC0D1F808E0D1F860
:104C200004800968012910D048EA02024EEA020213
:104C30004CEA02023A43016832432A4322431A43B0
:104C4000C90B42EAC132026015E00168D0F804A045
:104C50004FEADA3A48EACA3821F4F8410C432343D0
:104C60001A434EEA080E4CEA0E0C47EA0C073E4384
:104C70003543026045600020BDE8F085F0B58B69E2
:104C80004C690D69CE688F68D1F804C009685B1E55
:104C9000641E6D1E761E7F1E491E012AACF1010C9A
:104CA000826810D041EA036302F0704243EA0C13B9
:104CB00043EA072343EA063343EA054343EA04533E
:104CC0001343836015E0D0F80CE00EF0704E41EA1B
:104CD0000E0141EA0C1141EA07270A490A4042EA5B
:104CE000063647EA054546EA045445EA036384600C
:104CF000C3600020F0BD00008004C0FF0000F0CFC2
:104D00008901F0FFFF0F0FFF7047704738B5044669
:104D1000FCF72AF814F1010F054602D00448017887
:104D20006418FCF721F8401BA042FAD331BD00BF44
:104D3000000000207047000010B5144800230168EF
:104D400041F47001016012490A68124842F0010200
:104D50000A60114A0B610C68044000200C600F4C83
:104D60008B61CB610B628862CB620B6348638B63A0
:104D7000CB6308644B640B6823F480230B604FF013
:104D80000063086601211160236010BD88ED00E01A
:104D9000004402587FEDF6EA0881005108ED00E07A
:104DA00000000000010203040102030406070809D1
:104DB0007047FEE7FEE7FEE7FEE770477047704783
:104DC000FCF744BC0848FCF78BBC0848FDF7F0BF73
:104DD0000748FDF7EDBF80B50648FFF713FA064810
:104DE000BDE80240FCF77CBCA80400203C02002087
:104DF000BC010020A4070020E803002030B450F8D4
:104E0000041B79B10268436802440830DC0744BFE0
:104E1000A9F10104E31852F8045B43F8045B091F8D
:104E2000F9D1ECE730BC704710B507497944183127
:104E3000064C7C44163404E00A68081D1144884777
:104E40000146A142F8D110BD2C0000004C0000002A
:104E50004EF68851CEF20001086840F470000860F8
:104E6000BFF34F8FBFF36F8F4FF00070E1EE100A6A
:104E700070470000DFC7FFFFAC07000014000020F0
:104E80000000000079FFFFFF140000005400000044
:104E9000000000200000000000F00DF8002801D004
:104EA000FFF7C2FFAFF300800020AFF30080FDF7F3
:104EB00049F800F002F80120704700F001B8000046
:104EC0000746384600F002F8FBE7000080B5AFF374
:104ED0000080024A11001820ABBEFBE7260002004A
:104EE0000100000000000000100000000090D0034E
:104EF0000090D0030148804701480047394D000821
:104F0000054F0008AFF30080FFF7A2FFFFF7C4FFD3
:104F1000FFF7FEBFFFF7FEBFFFF7FEBFFFF7FEBFC5
:104F2000FFF7FEBFFFF7FEBFFFF7FEBFFFF7FEBFB5
:104F3000FFF7FEBFFFF7FEBFFFF7FEBFFFF7FEBFA5
:104F4000FFF7FEBFFFF7FEBFFFF7FEBFFFF7FEBF95
:0400000508004F059B
:00000001FF
