:020000040800F2
:10000000081300204D6E00080D6D00080F6D0008EC
:10001000116D0008136D0008156D00080000000048
:10002000000000000000000000000000176D000844
:10003000196D0008000000001B6D00081D6D000810
:10004000696E00086D6E0008716E0008756E00081C
:10005000796E00087D6E0008816E0008856E0008CC
:10006000896E00088D6E0008916E0008956E00087C
:10007000996E00089D6E0008A16E0008A56E00082C
:10008000A96E0008AD6E0008B16E0008B56E0008DC
:10009000B96E0008BD6E0008C16E0008C56E00088C
:1000A000C96E0008CD6E0008D16E0008D56E00083C
:1000B000D96E0008216D0008DD6E0008E16E0008B1
:1000C000E56E0008E96E0008ED6E0008F16E0008AC
:1000D000F56E0008276D0008F96E0008FD6E000837
:1000E000016F0008056F000800000000096F00089C
:1000F0000D6F0008116F0008156F0008196F0008D8
:100100001D6F0008216F0008256F0008296F000887
:100110002D6F0008316F00082D6D0008356F000845
:10012000396F00083D6F0008416F0008456F0008F7
:10013000496F00084D6F0008516F0008556F0008A7
:1001400000000000000000000000000000000000AF
:10015000596F00085D6F0008616F0008656F000847
:10016000696F00086D6F0008716F0008756F0008F7
:10017000796F00087D6F0008816F000800000000A3
:10018000856F0008896F00088D6F0008916F000867
:10019000956F0008996F00089D6F0008516D000869
:1001A000A16F0008A56F0008A96F0008AD6F0008D7
:1001B000B16F0008B56F0008B96F0008BD6F000887
:1001C000C16F0008C56F0008C96F0008CD6F000837
:1001D000D16F0008D56F0008D96F0008DD6F0008E7
:1001E000E16F0008E56F0008E96F0008ED6F000897
:1001F000F16F0008F56F0008F96F0008FD6F000847
:100200000170000805700008097000080D700008F2
:100210001170000815700008197000081D700008A2
:1002200021700008257000082970000800000000F7
:100230002D700008317000080000000035700008C3
:10024000397000083D7000084170000845700008D2
:10025000497000084D700008517000085570000882
:10026000597000085D700008617000086570000832
:10027000697000086D7000087170000800000000CF
:100280007570000800000000797000080000000090
:10029000000000007D7000082DE9F04704460026AC
:1002A0002068B046DFF80C5A010122D5626E4AB1CF
:1002B000B2F5801F0BD0B2F5001F15D0B2F5401F6C
:1002C00009D014E0EB6943F40033EB6105E002214F
:1002D00000F08BFB064630000AD1296C606E21F4D9
:1002E00040110143296404E000F081FBF2E701269C
:1002F000B0462068C1051DD5626D042A17D8DFE815
:1003000002F0030E1205050000F065FB30000FD16E
:10031000296C606DC90840EAC10129640AE000F057
:1003200063FB0646F2E7002100F05BFBF9E70126DC
:1003300046EA08082068810521D5A26D4AB1402A05
:1003400012D0802A14D0C02A18BFB2F5807F02D004
:1003500012E000F040FB30000FD1296CA06D21F4B9
:10036000E071014329640AE000F03EFB0646F2E733
:10037000002100F036FBF9E7012646EA080820686C
:1003800004F18407410524D53A6A62B1B2F5001F31
:1003900014D0B2F5800F15D0B2F5C00F18BFB2F56A
:1003A000000F02D012E000F016FB30000FD1A96C54
:1003B000386A21F460010143A9640AE000F014FBEB
:1003C0000646F2E7002100F00CFBF9E7012646EAB9
:1003D00008082068010524D57A6A62B1B2F1807FED
:1003E00014D0B2F1007F15D0B2F1407F18BFB2F146
:1003F000806F02D012E000F0EEFA30000FD1A96C4D
:10040000786A21F0E0610143A9640AE000F0ECFAA7
:100410000646F2E7002100F0E4FAF9E7012646EA91
:100420000808206881011BD5A26C42B1102A04D0B3
:10043000202A0DD0302A02D00FE000F0CCFA300094
:100440000CD1E96BA06C21F030010143E96307E0B6
:10045000022100F0CAFA0646F1E7012646EA08083A
:100460002068C10424D5E26D62B1B2F5805F14D07A
:10047000B2F5005F15D0B2F5405F18BFB2F5804FFE
:1004800002D012E000F0A7FA30000FD1296CE06D25
:1004900021F4E041014329640AE000F0A5FA064690
:1004A000F2E7002100F09DFAF9E7012646EA080884
:1004B0002068810423D5226E92B1B2F5803F0BD023
:1004C000B2F5003F15D0B2F5403F1CBFB2F5802F0A
:1004D000B2F5A02F04D00FE0012100F086FA064605
:1004E00030000AD1296C206E21F4E02101432964F7
:1004F00005E000F075FAF2E7012646EA08082068F0
:10050000410423D5BA6A92B1B2F1805F0BD0B2F147
:10051000005F15D0B2F1405F1CBFB2F1804FB2F165
:10052000A04F04D00FE0012100F05FFA0646300032
:100530000AD1A96CB86A21F0E0410143A96405E041
:1005400000F04EFAF2E7012646EA080820680104A6
:100550001BD5E26E42B1B2F1805F03D0B2F1005F11
:100560000BD00FE000F037FA30000CD1296CE06EB0
:1005700021F040510143296407E0012100F035FAE0
:100580000646F1E7012646EA08082068C10119D5A8
:10059000626C032A13D8DFE802F004020D0400F0B5
:1005A0001AFA30000CD1E96B606C890840EA8101CD
:1005B000E96307E0022100F018FA0646F1E7012698
:1005C00046EA08082068410222D5DFF85C97D9F88E
:1005D000002042F48072C9F8002000F07BFC8246C3
:1005E000D9F80000C10500F1C58100F073FCA0EB53
:1005F0000A006528F4D308E000F06CFCA0EB0900C9
:1006000041F289318842C0F0D381032646EA0808C6
:100610002278D10726D5A06F68B1082807D0102806
:100620001AD018281CBF2028282804D017E0012140
:1006300000F0DBF90646300012D1696CA06F21F0A2
:100640003801014369640DE02960286EF96AC1F33D
:100650000B0108432866DBE700F0C2F9EAE7012650
:1006600046EA080821788A071AD5606F052814D849
:10067000DFE800F0070310070707012100F0B5F9D4
:10068000064630000AD1696C606FC90840EAC101B2
:10069000696405E000F0A4F9F2E7012646EA0808DB
:1006A00021784A071AD5F868052814D8DFE800F041
:1006B000070310070707012100F097F906463000ED
:1006C0000AD1A96CF868C90840EAC101A96405E02B
:1006D00000F086F9F2E7012646EA080821788A0642
:1006E00022D5B86888B1B0F1805F0BD0B0F1005F5F
:1006F00014D0B0F1405F1CBFB0F1804FB0F1A04FFB
:1007000003D00EE000F070F9064630000AD1696CA3
:10071000B86821F0E0410143696405E000F067F941
:10072000F2E7012646EA080821784A0622D57869C8
:1007300088B1B0F5806F0BD0B0F5006F14D0B0F574
:10074000406F1CBFB0F5805FB0F5A05F03D00EE036
:1007500000F04AF9064630000AD1A96C786921F404
:10076000E0510143A96405E000F041F9F2E70126F8
:1007700046EA080821780A0622D5B86988B1B0F59A
:10078000005F0BD0B0F5804F14D0B0F5C04F1CBF48
:10079000B0F5004FB0F5204F03D00EE000F024F983
:1007A000064630000AD1A96CB86921F460410143C2
:1007B000A96405E000F01BF9F2E7012646EA080803
:1007C00021780A070ED5D4F88000B0F5805F04D1F7
:1007D00000F00DF940EA080804E0696C21F440518A
:1007E000084368642078C1060DD53869B0F5807F6C
:1007F00004D100F0FCF840EA080804E0A96C21F4F8
:1008000040710843A864206801031AD5FA6932B11F
:10081000B2F5803F0FD0B2F5003F03D00EE000F0FC
:10082000E3F8064630000AD1A96CF86921F440319A
:100830000143A96405E000F0DAF8F2E7012646EA90
:10084000080821684A031ED53868B0F5801F06D015
:10085000B0F5001F10D0B0F5401F04D010E0E969DA
:1008600041F40031E96130000BD1696C386821F442
:1008700040110143696406E000F0B2F80646F2E771
:10088000012646EA08082168CA031AD5E06C18B1A7
:10089000B0F5803F0DD011E0E96941F40031E96124
:1008A00030000CD1E96BE06C21F480310143E96345
:1008B00007E0022100F099F80646F1E7012646EA32
:1008C000080821688A0003D500F091F840EA08087A
:1008D0002068810319D5E26F5AB1B2F5807F06D046
:1008E000B2F5007F18BFB2F5407F02D00AE000F0F9
:1008F00072F8300007D1696CE06F21F44071014358
:10090000696402E0012646EA08082268D00205D59B
:10091000296C206F21F00041014329642168CA003D
:1009200005D52B68386B23F4804303432B60216883
:100930008A0205D52B6CA06E23F0807303432B64D1
:1009400021684A0007D52B6823F400432B602968EF
:10095000786B014329602268002A05D5EB6B206D76
:1009600023F040530343EB635FEA080018BF012004
:10097000BDE8F08730007FF449AE286EF96A00F4D4
:10098000407001F4407188420BD0286E296E41F40A
:10099000803129662A6E20F4407022F480322A6663
:1009A0002866F86AB0F5807F06D100F093FA814698
:1009B000286E81077FF520AEF86A296800F440723E
:1009C000B2F5407F21F47C5104D1DFF8DC2402EA47
:1009D0001012114338E6E86940F40030E8617047CE
:1009E000012104F12400EEE10021201D9EE10221FD
:1009F00004F12400E7E100000021B0F5807F00B59C
:100A000089B0DFF8A824DFF8A8340CD0B0F5007F57
:100A100013D0B0F5806F1DD0B0F5006F2AD0B0F5BF
:100A2000805F3FD072E0586800F0070004286DD85E
:100A3000DFE800F0494E536A3000586810F4E07067
:100A400041D0402844D0802847D0C0285CD0B0F5A1
:100A5000807F1EE0D86810F4600034D0B0F5001F2D
:100A600036D0B0F5800F38D0B0F5C00F4CD0B0F50F
:100A7000000F0EE0D86810F0E06024D0B0F1807F65
:100A800026D0B0F1007F28D0B0F1407F3CD0B0F14B
:100A9000806F3BD1186810F0405027D0B0F1805FD4
:100AA0002AD02CE0586810F4E0400CD0B0F5805FFC
:100AB0000ED0B0F5005F10D0B0F5405F24D0B0F597
:100AC000804F0FD022E006A800F0F6F807991DE04D
:100AD00003A800F02BF8039918E0684600F04AF8E4
:100AE000009913E0186810F0405002D1DFF8C413E9
:100AF0000CE0B0F1805F02D1DFF8BC1306E0B0F18A
:100B0000005F03D1114601E0DFF8B013084609B0D9
:100B100000BD80B500F063FBDFF8A813DFF8A82361
:100B20000968C1F30211515CC84002BD30B500F044
:100B30007AF8C1F30533D16B05F0100500F079F8B0
:100B400002D0022C06D008E000F09AF8916B00F079
:100B500042F807E0DFF8544301E0DFF85C43916BB3
:100B600000F04AF8916B00F07CF8916B00F06BF8A4
:100B7000916B22E030B500F056F8C1F30553516C8B
:100B800005F4807500F055F802D0022C06D008E07C
:100B900000F076F8116C00F01EF807E0DFF80C4367
:100BA00001E0DFF81443116C00F026F8116C00F03E
:100BB00058F8116C00F047F8116CC1F30661491C3C
:100BC00000EE901AF8EE600A80EE200ABCEEC00A31
:100BD00080ED020A30BDF7EE001AF8EE600AC1F3AC
:100BE000080101EE101AB8EE411A31EE000A70EE5B
:100BF000211A20EEA10A7047DFED4A1AB4FBF3F385
:100C000000EE903AC1F30801F8EE600A01EE101A06
:100C1000B8EE411A00EE211AB7EE000A31EE000AD2
:100C200020EE800A7047DFF8A422946A916AD56AA0
:100C30007047C1F3CC014D4314F0030400EE105A89
:100C4000B8EE400A7047C1F30641491C00EE901A05
:100C5000F8EE600AC0EE200AFCEEE00AC0ED010AE0
:100C60007047C1F34621491C00EE901AF8EE600A65
:100C7000C0EE200AFCEEE00AC0ED000A704700005A
:100C80001468DFED280A20EE200AA1060AD51168B3
:100C9000DFF82052C1F3C101CD40B5FBF3F100EE06
:100CA000901A7047DFF80C42B4FBF3F300EE903A71
:100CB000704700001044025830B5FFF7B4FFC1F38D
:100CC0000513516B05F00105FFF7B3FF02D0022CAD
:100CD00006D008E0FFF7D4FF116BFFF77CFF07E0B9
:100CE000DFF8C84101E0DFF8D041116BFFF784FF66
:100CF000116BFFF7B6FF116BFFF7A5FF116B5CE7F8
:100D000080B500F0EFF9DFF8B811DFF8BC31096801
:100D1000DFF8BC21C1F30321595CC84010601068A2
:100D200002BD00000000003900480258F8B500F08C
:100D3000B2F801D10120F2BD286820F0806000F0F7
:100D40008FF807462968080120D500F0C3F8C01BBA
:100D50000328F7D30320F2BD012C04D1E86A40F444
:100D60008010E86203E0E96A41F40011E962286852
:100D700040F0806000F074F804462968080120D42F
:100D800000F0A8F8001B0328F7D3E3E7A86A31684E
:100D900020F47C3040EA013000F065F8A863E96A8D
:100DA000706921F0C0010143E962E96AB06921F08C
:100DB00020010143002CE962CED1E96A41F400210F
:100DC000D4E70020F2BDF8B500F065F801D10120AC
:100DD000F2BD286820F0805000F042F807462968EC
:100DE000880020D500F076F8C01B0328F7D3032035
:100DF000F2BD012C04D1E86A40F40000E86203E08F
:100E0000E96A41F08071E962286840F0805000F0A2
:100E100027F804462968880020D400F05BF8001BFE
:100E20000328F7D3E3E7A86A316820F07C7040EA32
:100E3000015000F018F82864E96A706921F44061F3
:100E40000143E962E96AB06921F400710143002CB1
:100E5000E962CED1E96A41F48001D4E70020F2BD15
:100E6000286000F037B8A862B1687068F268491E5F
:100E70004902401EC0F30800521E01F47E411204D4
:100E80000843316902F4FE021043491E090601F0CD
:100E9000FE410843704706460C4DA86A0C4600F018
:100EA0000300032870470000CFFFFF0000127A0004
:100EB0004C4402580090D00300093D000080BB0064
:100EC0001844025820440258FC6C000800440258A0
:100ED0000C00002001484068704700BF000000205F
:100EE0002DE9F8430546DFF890733868894600F02D
:100EF0000700484502D200F0A7F824D12878DFF88F
:100F00007443810705D5A269E868120940EA021214
:100F1000A2612978CA0740F18380A369A86823F4F5
:100F200070630343A3616868022802D121688A03C1
:100F300008E0032802D121688A0103E0012803D1D7
:100F40002168CA0503D473E02368590770D5226964
:100F500041F28938D20840EAC2002061FFF7BAFFA7
:100F60000646686802280BD1206900F03800102876
:100F700056D0FFF7AFFF801B4045F5D303204DE06F
:100F800003280AD1206900F03800182848D0FFF75C
:100F9000A1FF801B4045F5D3F0E701284AD1206925
:100FA00000F0380008283BD0FFF794FF801B404535
:100FB000F5D3E3E72878410705D5A269286922F02F
:100FC00070020243A26129780A0705D5E3696869BE
:100FD00023F070030343E3612978CA0605D5E3696A
:100FE000A86923F4E0630343E36129788A0605D501
:100FF000236AE86923F070030343236200F072F868
:10100000A169DFF87822DFF87832C1F30321515C5F
:10101000C8401860002000F06DFB0020BDE8F2839E
:10102000386800F007008145C4D200F00DF8C1D047
:101030000120F3E7206910F0380FF1D0FFF74AFFE5
:10104000801B4045F6D399E73968C90849EAC101D0
:1010500039603A6802F007024A457047F8B50C4615
:1010600086B01546874E8849C0B90A684FF4807328
:101070000327864842F001020A60096801F0010175
:1010800000F028F8029104916946039700F06EFB86
:10109000326822F0FE7214432C4318E00B687C483F
:1010A00043F004030B6009684FF4007301F004017E
:1010B00000F010F80322029104916946039200F0B7
:1010C00055FB306820F07E40044344EAC514346088
:1010D00007B0F0BD0591059A02210093019100210E
:1010E0007047000030B5634A6A48116911F0380151
:1010F00004D010290AD018290AD06EE013689C0683
:101100006CD51168C1F3C101C84030BD624830BD23
:10111000946A916AD56AC1F30513516B05F0010514
:10112000C1F3CC014D4314F0030400EE105AB8EEA5
:10113000400A02D0022C27D028E01468DFED4C0AC8
:1011400020EE200AA10608D51168C1F3C101C840EC
:10115000B0FBF3F000EE900A04E00146B1FBF3F1BE
:1011600000EE901A106BF7EE001AF8EE600AC0F36A
:10117000080001EE100AB8EE411A31EE000A70EED6
:10118000211A20EEA10A19E0434900E04349106BFF
:10119000DFED371AB1FBF3F100EE901AC0F308004F
:1011A000F8EE600A01EE100AB8EE411A00EE211ABC
:1011B000B7EE000A31EE000A20EE800A106BC0F391
:1011C0004620401C00EE900AF8EE600A80EE200AED
:1011D000BCEEC00A10EE100A30BD304830BD10B56C
:1011E000FFF78EFD2E49254A09682E4C01F00F01AC
:1011F000535CD840206010BD80B5FFF7F0FF00F0D1
:101200000DF8C1F3021106E080B5FFF7E8FF00F02A
:1012100005F8C1F30221515CC84002BD2249174ABA
:101220000968704710B53F220260164A136803F040
:1012300007034360946804F470648460936803F067
:101240000F03C360946804F070040461D36803F072
:1012500070034361D46804F4E0648461126902F0AD
:101260007002C2610448036803F007030B6010BDFD
:10127000000000390044025800200052FC6C0008B5
:101280000C00002010440258E044025800000258AC
:10129000000802580090D00300127A0000093D00B7
:1012A00018440258100000201C440258F8B50546A6
:1012B000DFF834442878C1074DD5226902F038029E
:1012C000102A09D0206900F03800182802BFA16A4E
:1012D00001F00301022908D1226891033BD5686817
:1012E000002840F00D810120F2BD6868B0F5803F14
:1012F0000FD038B9216821F480312160206820F4B2
:10130000802009E0B0F5A02F08D1216841F48021A8
:101310002160206840F48030206007E0226822F4D9
:1013200080322260216821F480212160686868B1E0
:10133000FFF7D0FD06462168880300F1E180FFF742
:10134000C9FD801B6528F6D30320F2BDFFF7C2FD5F
:1013500006462068810340F1D380FFF7BBFD801B68
:101360006528F6D3F0E7FFF7B5FD801B0328C0F032
:10137000E680E9E7FFF7AEFD801B0328C0F0198186
:10138000E2E7E86888B1216821F01901084320608C
:10139000FFF7A0FD06462068410700F1D480FFF763
:1013A00099FD801B0328F6D3CEE720684008400053
:1013B0002060FFF78FFD06462168480740F1CA808C
:1013C000FFF788FD801B0328F6D3BDE7E86980B1ED
:1013D000216841F080012160FFF77CFD064620680E
:1013E000C10500F1D180FFF775FD801B0328F6D3FE
:1013F000AAE7206820F080002060FFF76BFD06461A
:101400002168C80540F1C780FFF764FD801B0328F1
:10141000F6D399E7606F400840006067FFF75AFD18
:101420000646606F810740F1C880FFF753FD801BBF
:101430000328F6D388E7206820F480502060FFF767
:1014400049FD06462168880440F1CE80FFF742FD41
:10145000801B0328F6D377E7FFF73CFD801B652848
:10146000C0F0CD8070E708B9206F09E00528206F33
:1014700006D140F004002067216F41F0010105E032
:10148000400840002067216F21F004012167A8680F
:1014900041F2893660B1FFF71DFD0746206F8107D5
:1014A00000F1BA80FFF716FDC01BB042F6D34BE740
:1014B000FFF710FD0746206F810740F1AD80FFF771
:1014C00009FDC01BB042F6D33EE7FFF703FD801BCA
:1014D0000328C0F0B48037E7FFF7FCFC401B03286B
:1014E000C0F0FB8030E7FFF7F5FC05462168880176
:1014F00040F1F780FFF7EEFC401B0328F6D323E70B
:101500002878810726D5226912F0380F09D0206982
:1015100000F03800182804BFA16A11F0030F7FF40F
:1015200030AFE86821684A0701D500287BD02168E0
:1015300021F0190108432060FFF7CCFC0646206823
:1015400041077FF510AF6068296920F47C3040EADC
:10155000013060602878C1061DD5226902F038028A
:10156000082A0AD0206900F03800182802BFA16AB2
:1015700001F0030101297FF429AF2068C10503D5DB
:10158000EA69802A7FF4AFAE6068296A20F0F840EB
:1015900040EA816060602A7811070ED568690028EA
:1015A0003FF438AF616F41F001016167FFF792FCD2
:1015B0000646606F81077FF5DDAE2A78930613D566
:1015C000A86900283FF437AF216841F480512160B9
:1015D000FFF780FC06462068810405D4FFF77AFCFB
:1015E000801B0328F7D3AFE62878410714D53F4F77
:1015F0003A6842F480723A60FFF76CFC064638683D
:10160000C1057FF529AFA86801287FF42CAF206FB2
:1016100040F0010020673AE7686A002861D021693C
:1016200001F0380118293FF45EAE0228206820F04E
:10163000807020607FF457AFFFF74CFC06462168AE
:1016400088013FF542AFA26AA86A2949EB6A0A40BD
:10165000024342EA0312A262696B286BAA6B491E1D
:101660004902401EC0F30800521E01F47E411204DC
:101670000843E96B02F4FE021043491E090601F01B
:10168000FE4108432063606BA96C6FF3CF0040EA12
:10169000C1006063E26A286C22F00C020243E2623D
:1016A000E16A686C21F002010143E162E16A41F400
:1016B0008031E162E06A40F40030E062E16A41F4C6
:1016C0008021E162E06A40F00100E062216841F0BF
:1016D00080712160FFF7FEFB0546206881017FF5E0
:1016E000FBAE0020F2BD00BF004402580048025883
:1016F0000CFCFFFF10B501468AB00022362000F036
:101700004BF93620154C00F064F91548016841F09A
:1017100010010160006800F010000090009902A81C
:1017200001A9FFF77FFDFFF767FD0E4B0E49B0FBE8
:10173000F3F02160401E40F2E73260600021E26079
:1017400021612046A16000F09DF918B9204600F003
:10175000A6F900E001200AB010BD0000300A002008
:10176000E844025840420F00001000402DE9F847BD
:1017700002460B4600246E480F211D680127A74032
:101780003D40BD4240F0C5805E684FEA8408022EAD
:1017900018BF122E12D1E60802EB860C08F01C06C8
:1017A00001FA06F9DCF820E0D3F810A02EEA090EC1
:1017B0000AFA06F646EA0E06CCF82060166893F898
:1017C00004904FEA440C4FF0030E0EFA0CFE6FEA41
:1017D0000E0E0EEA060609F0030909FA0CF949EAA9
:1017E000060616605E68012E18BF022E03D0112E69
:1017F00018BF122E12D19668D3F80C900EEA060686
:1018000009FA0CF949EA06069660566826EA0707BF
:101810005E68C6F30016A64037435760D7680EEAE5
:1018200007069F6807FA0CF73E43D6605E68F6002D
:101830006FD50768DFF8FCC008F00C0801FA08FE55
:1018400047F002070760066806F002060096009F50
:10185000A7085CF8276026EA0E0E374EB24208BF92
:1018600000262CD0354EB24208BF012627D0344E78
:10187000B24208BF022622D0324EB24208BF03262F
:101880001DD0314EB24208BF042618D02F4EB242AE
:1018900008BF052613D02E4EB24208BF06260ED032
:1018A0002C4EB24208BF072609D02B4EB24208BFC9
:1018B000082604D0294EB2420CBF09260A2606FA91
:1018C00008F646EA0E064CF82760DFF894C0DCF80C
:1018D00000706FEA05085E6808EA0707F60348BF6C
:1018E0002F4300F01CF8B60348BF2F43CCF8047018
:1018F0004FF0B04CDCF800705E6808EA0707F602AB
:1019000048BF2F4300F00BF8B60248BF2F43CCF876
:101910000470641C0F2C7FF630AFBDE8F187CCF863
:101920000070DCF804705E6808EA07077047000082
:10193000F4440258080400580000025800040258F9
:1019400000080258000C02580010025800140258F7
:1019500000180258001C02580020025800240258A7
:10196000800000580901020002D4304881547047B9
:101970002F4A00F00F00131803F8041C70472D4B7A
:101980004FF6FF021968000200F4E06011400843BE
:10199000294908431860704738B5264B1C68C4F3C2
:1019A0000223C3F10704052C28BF04241D1D072DA5
:1019B00034BF0023DB1E012505FA04F4641E214018
:1019C000994005FA03F35B1E1A401143BDE8344009
:1019D000C8E7010008D4012200F01F0002FA00F05D
:1019E000164B490943F821007047401EB0F1807F33
:1019F00010B501D3012010BD114C0F2160604FF0D4
:101A0000FF30FFF7AFFF00220721A2600020216016
:101A100010BD04280A4904D1086840F00400086099
:101A200070470A6822F004020A60704700E400E090
:101A300018ED00E00CED00E00000FA0500E100E028
:101A400010E000E000F000B8704730B4002513E06B
:101A500050F8042BD30744BFA9F101039A18091FBA
:101A6000042942F8045BFAD213468C0744BF158060
:101A70009B1CC90748BF1D7050F8041B0029E7D103
:101A800030BC704738B5040001D1012032BD00F0F0
:101A90001FF818B900F018F800F05BFB0AE00068C6
:101AA000C16841F00101C160028842F00102028078
:101AB000002070470220211D6870206800F02FF977
:101AC00001206870002032BD002120462970704737
:101AD00004F13C056878704738B504462068016910
:101AE0008A0715D5C368990712D56FF00202012342
:101AF00002612377806910F0030F204602D000F0C6
:101B00001BFC03E000F019FC00F092F800202077A5
:101B1000206801694A0715D5C368590712D56FF0C7
:101B20000402022302612377806910F4407F20467B
:101B300002D000F001FC03E000F0FFFB00F078F8B9
:101B400000202077206801690A0715D5C3681907A6
:101B500012D56FF00802042302612377C06910F0E8
:101B6000030F204602D000F0E7FB03E000F0E5FBA6
:101B700000F05EF80020207720680169CA0615D5BC
:101B8000C368D90612D56FF01002082302612377CB
:101B9000C06910F4407F204602D000F0CDFB03E086
:101BA00000F0CBFB00F044F80020207720680169AA
:101BB000CA0708D5C368D90705D56FF001020261CD
:101BC000204600F0BCFC20686FF0800501690A0621
:101BD00006D5C368190603D50561204600F0C5FC8B
:101BE00020680169CA0506D5C368190603D50561D1
:101BF000204600F0BAFC206801694A0608D5C3688F
:101C0000590605D56FF040020261204600F0AEFC97
:101C1000206801698A060AD5C368990607D56FF05E
:101C2000200202612046BDE8324000F0A0BC31BD78
:101C3000204600F09DBC0120002160700020217032
:101C4000704738B500F065F801D1022032BD01229D
:101C500002232270DFF8C80163702A68936803408A
:101C600093600A68002A3CD0102A3CD0202A3CD03D
:101C7000302A3CD0402A30D0502A23D0602A25D0A8
:101C8000702A0CD0B2F5805F03D0B2F5005F11D09E
:101C900031E0296819488D6805408D602BE000F01F
:101CA0002FF82968DFF87C018A68024042F0770249
:101CB0008A6020E000F024F82868816841F48041BF
:101CC000816018E000F021F8502111E0CA684968ED
:101CD000286800F088F860210AE000F016F840213A
:101CE00006E0002104E0102102E0202100E0302184
:101CF000286800F08AF8FFF79EFF32BDF8FFFEFF6C
:101D0000CB684A68896828689EE0CA68496828687C
:101D100058E0054605F13C042078012870472DE97C
:101D2000F043DFF8048105884045DFF80061DFF803
:101D30000071DFF800C1DFF800E1DFF8003118BF03
:101D4000B0F1804FDFF8F840DFF8F89007D0484551
:101D500018BFA04203D0984218BF70450DD14A6801
:101D600025F070051543404518BFB0F1804F0CD0E9
:101D700048451CBFA042984207D0704518BF604537
:101D800003D0B84218BFB04203D1CC6825F44075E7
:101D900025434A694FF67F731D4015434045058032
:101DA0008C68C4620B6818BF7045038504D0604519
:101DB0001CBFB842B04201D10969018601224261CB
:101DC000BDE8F08330B5036A046A64086400046205
:101DD000856923F00A03194325F0F00545EA021549
:101DE0008561016230BD10B5036A23F01003036200
:101DF0008369046A23F4704343EA023324F0A004A5
:101E0000836144EA0114046210BD8368034A1340ED
:101E1000194341F007018160704700008FFFCFFF39
:101E20008800CEFF88FFCEFF00000140004801403F
:101E3000004401400040014000040140000C00400B
:101E4000000800400004004010B5846824F47F447A
:101E50002143114341EA0321816010BDDFF82C04C6
:101E6000002130B5DFF8284487B000F0E8F810B161
:101E70004C2100F08EF800F06AF810B1522100F009
:101E800088F800F0D4F810B15A2100F082F807B0B9
:101E900030BD4FF08040002130B5DFF8F84387B007
:101EA00000F081F810B16C2100F073F800F04FF8E9
:101EB00010B1722100F06DF800F06EF810B17921C8
:101EC00000F067F807B030BDDFF8CC0344F61F61BF
:101ED00030B5DFF8C8430022206041F2873387B075
:101EE0006160A2602046E3600FF208452261A261B2
:101EF000FFF7C8FD10B18B2100F04BF800F027F878
:101F000010B1912100F045F800F046F810B1982189
:101F100000F03FF807B030BDDFF88403002130B592
:101F2000DFF8804387B000F03EF810B1AA2100F03E
:101F300030F800F00CF810B1B02100F02AF800F0F1
:101F40002BF810B1B72100F024F807B030BD4FF4E2
:101F5000805003A903902046FFF773BEDFF84803C3
:101F6000002130B5DFF8444387B000F01CF810B111
:101F7000C92100F00EF8FFF7EAFF10B1CF2100F001
:101F800008F800F009F810B1D62100F002F807B007
:101F900030BD284600F0E8BA0021204600910291A9
:101FA000694600F0E7BA2060204661600FF24435D0
:101FB000A160E1602161A161FFF764BD3EB5DFF87A
:101FC000F0420021DFF8EC02616020602046A16051
:101FD0000FF22035E160A161FFF754FD10B1E62159
:101FE000FFF7D7FFFFF7D8FF10B1ED21FFF7D1FFC3
:101FF00037BDDFF8C402002130B5DFF8C04287B03A
:1020000000F01DF818B14FF48071FFF7C2FFFFF721
:102010009EFF18B14FF48371FFF7BBFF00F007F884
:1020200018B14FF48771FFF7B4FF07B030BD00213E
:102030002046009101910291694600F09BBA206010
:10204000204661600FF2AC25A160E1602161616111
:10205000A161FFF717BDDFF86802002138B5DFF88E
:10206000644284B0FFF79FFF18B140F21F11FFF7E1
:1020700090FF4FF4805069460090FFF76CFF18B155
:1020800040F22511FFF785FF05B030BD80B5DFF8C0
:1020900038020022DFF8341200F014F800F04BF898
:1020A00010B140F2351113E001BD80B5884800221F
:1020B000884900F007F800F03EF810B140F24511F1
:1020C00006E001BD426001608260C260026170474B
:1020D0000FF22020BDE8044000F046BA7E480021FF
:1020E00030B57E4C87B0FFF7AAFF18B14FF4AC7142
:1020F000FFF74FFFFFF72BFF18B14FF4AF71FFF75A
:1021000048FFFFF749FF18B140F26511FFF741FFA3
:1021100007B030BD80B572480022724900F005F862
:1021200010B14FF4BB71D3E701BD42600160826022
:10213000C260026142618261FFF7A4BC80B56A4857
:1021400000226A49FFF7F1FF10B140F28711BFE7A3
:1021500001BD4E4A80B501686548914205D181684C
:1021600041F001018160806807E0B1F1804F07D143
:10217000026842F001020260006800F0010082E0A3
:10218000454A914212D10368002243F002030360E2
:10219000006800F00200009000991D200021FFF768
:1021A000FBFB1D20BDE80240FFF713BC3C4A9142F7
:1021B00007D1016841F004010160006800F00400EB
:1021C00061E0394A914207D1036843F00803036094
:1021D000006800F0080056E0364A914207D10368D3
:1021E00043F020030360006800F020004BE0324A17
:1021F000914207D1836843F002038360806800F056
:10220000020040E02E4A914207D1036843F04003A8
:102210000360006800F0400035E02C4A914207D18D
:10222000036843F080030360006800F080002AE048
:10223000284A914207D1036843F480730360006821
:1022400000F480701FE0244A914207D1836843F470
:1022500080338360806800F4803014E0214A91422A
:1022600007D1836843F400338360806800F4003052
:1022700009E01E4A914208D1836843F480238360B9
:10228000806800F480200090009901BD00000140AA
:10229000700A0020B00A002000040040F00A00206C
:1022A00000080040300B0020000C0040700B0020A4
:1022B000B00B00200014004000040140F00B00208F
:1022C00000180040300C0020700C0020001C004062
:1022D000B00C00200020004000400140F00C002025
:1022E000300D002000440140700D002000480140E6
:1022F000E8440258463A5C6F746865725C626C64CC
:102300005C53544D333248375C70726F6A65637446
:102310005C73746D33326837343369695C73746D20
:102320003332483734335F74656D705C5372635C6D
:1023300074696D2E630000007047704738B583499B
:1023400000200867BFF34F8FCA6E814DC2F34E3332
:10235000C2F3C90443F6E07000EA431040EA847017
:1023600028602046441E0028F4D11846431E002849
:10237000EED1BFF34F8F086840F480300860BFF3A0
:102380004F8FBFF36F8F00F01FF900F049F800F096
:1023900033F900F095F900F09DF900F0B8F900F07C
:1023A000CAF900F0D2F900F05DFA00F0A9FA00F0E5
:1023B00003FC00F020FC00F061FC00F0FDFC00F0EC
:1023C0006BFD00F001FE00F05FFE00F0CFFE00F0BC
:1023D000D8FE00F0E6FE00F00FFFFFF73FFDFFF72D
:1023E00058FDFFF771FDFFF797FDFFF7B7FDFFF70A
:1023F000E5FDFFF7FEFDFFF72EFEFFF747FEFFF7B7
:1024000054FEFFF76BFEFFF785FEFFF797FE00F027
:10241000C3FF00F0CEFF00F0EEFF01F083F8FEE70F
:1024200000B5CBB04B480168002221F004010160E7
:102430000092C36823F4404343F48043C360C168FF
:1024400001F440410091009AC1688B04FCD54248D8
:10245000032102684FF480339208920042F0020296
:10246000026001220C92022209911021129209A805
:10247000139201220D911821149202220A930C2327
:1024800015910421169218920022179119931A920D
:102490001B92FEF70BFF00B1FEE73F2100230191E5
:1024A000032202920121039301A80493059306934A
:1024B00007930893FEF714FD00B1FEE701222749B8
:1024C0001D9213231F92022220923DA82192C02226
:1024D0001C912021229200222391002124922F92EC
:1024E00033924FF080522D913191349137920022E6
:1024F00039914FF48011826042618261C2611CA8EF
:102500001E933A923D91FDF7C7FE00B1FEE74FF4EE
:1025100080220021FEF7A2FD11484FF47A72016873
:10252000B1FBF2F0FFF761FA0420FFF772FA002224
:1025300000214FF0FF30FFF72FFA4BB000BD0068CD
:102540000849884208BF01F053B8704714ED00E015
:1025500060EF00E00C48025828440258E3B10D0136
:102560000C00002000100040FEE7704770477047E5
:1025700070470000F0B590F83C20012A01D10220FC
:10258000F0BD01230E4A80F83C30046894421CBF21
:102590000C4FBC426568A66803D14B6825F47005F2
:1025A0001D438A68096825F0700526F0800600231F
:1025B0000D4316436560A66080F83C300020F0BDF6
:1025C000000001400004014080B50320FFF7D7F967
:1025D0000020FFF78FF808B1012002BD01F010F8CC
:1025E000002002BD034A136823EA0000084310607C
:1025F000704700000404005880B586B02C4801687C
:1026000041F010010160026802F0100200F054F87D
:1026100043F480730360026802F4807200F04CF8A7
:1026200043F020030360026802F0200200F044F847
:1026300043F080030360026802F0800200F03CF87F
:1026400043F004030360026802F0040200F034F86F
:1026500043F001030360026802F0010200F02CF86D
:1026600043F002030360026802F0020200F024F863
:1026700043F040030360026802F0400200F01CF8DF
:1026800043F00803036002684FF48073094802F0C6
:102690000802009200990222019300210292039104
:1026A0000491059101A9FFF761F807B000BD000092
:1026B000E0440258000002580092009903687047F5
:1026C00010B54C4800224C4900F00EF808B14421E6
:1026D00018E010BD10B549480022494900F004F83F
:1026E00008B157210EE010BD02624FF6FF74016081
:1026F00042608260446142628262C262026300F0B0
:10270000BBBF000046A0BDE81040FFF72DBF10B5CD
:102710003C4800223C4902624FF6FF74016042606F
:102720008260446142628262C26200F0A5FF08B129
:102730006921E7E710BD10B534480022344900F0A4
:102740000EF808B17A21DDE710BD10B5314800223E
:10275000314900F004F808B18B21D3E710BD0262C3
:102760004FF6FF740160426082604461426282629F
:1027700000F082BF81B000681F4A2849904207D10B
:10278000086840F400700860096801F400712CE0EA
:102790001B4A904207D1CB6843F40073CB60C868F2
:1027A00000F4007014E0184A904207D1C86840F461
:1027B0008060C860C96801F4806116E0144A9042E4
:1027C00009D1CB6843F40063CB60C86800F40060B3
:1027D000009000990BE0104A904208D1C86840F47C
:1027E0008050C860C96801F480510091009801B020
:1027F00070470000B00D002000240040E80D0020CC
:1028000000240058200E002000280058580E0020F8
:10281000002C0058900E002000300058E844025868
:10282000463A5C6F746865725C626C645C53544DCC
:10283000333248375C70726F6A6563745C73746DB1
:1028400033326837343369695C73746D33324837B7
:1028500034335F74656D705C5372635C6C70746963
:102860006D2E63000022124880B5828011494261BA
:10287000826101220160026200F05CFF28B13D210B
:102880000EA0BDE80440FFF76FBE01BD81B0006837
:102890000849884209D10848026842F400220260CF
:1028A000006800F400200090009901B0704700001B
:1028B000C80E0020004C0258E0440258463A5C6FB3
:1028C000746865725C626C645C53544D3332483793
:1028D0005C70726F6A6563745C73746D33326837F1
:1028E000343369695C73746D3332483734335F74E1
:1028F000656D705C5372635C6372632E63000000ED
:102900000020002100222DE9F8438E4C96B004F1FE
:102910003C058D4E6E600F23E86010202961DFF8C2
:102920002C92E961FF27A9624FF400416A610FF21E
:102930004428A86100202A62EA6269631121AA631F
:102940006A64102268622863E863286404920022A3
:1029500005916946069004F14000C5F8089000937F
:1029600001930297039300F021FF10B15D2100F065
:102970007CF8042000212E650022A8651020E9655E
:1029800004F1BC0668660020A9664FF48051C5F8C2
:10299000549010232A66EA66286769670F21AA67A0
:1029A000E86730607260B060F060326111220091BF
:1029B000019102970391694605920022069004F165
:1029C0008C00049300F0F2FE10B1802100F04DF86D
:1029D00000235F484FF48071E3600222236163614A
:1029E000A361E3616362A362E36223636363A3633E
:1029F0002B70FC232060204661600BA9A26007AA0F
:102A00000B930C930D930E930793089309930A93DA
:102A100000F0FEFE10B1A32100F027F809F13C0000
:102A20000021F06108203162402271621021B06201
:102A30008020F162002132631022706304F1D8001B
:102A4000B163F163316471640FA90F921092119216
:102A5000129213921492159200F00EFF10B1BF2142
:102A600000F003F817B0BDE8F0834046FFF77CBDE7
:102A700038490868002800D0704710B5012286B098
:102A80000A60354801684FF63F020C2441F480513A
:102A900001600368314803F48053059305990223CC
:102AA0000092019300210291032303936946049449
:102AB000FEF75CFE02210494019103210122002310
:102AC0000391274C0092694602932046FEF74EFE82
:102AD0000C2100F028F82348FEF748FE48F27F3129
:102AE00000F021F82048FEF741FE4FF6837100F018
:102AF0001AF81E48FEF73AFE4FF6337100F013F84D
:102B00001B48FEF733FEC0210222009103210192EF
:102B10000023039109220293694604922046FEF79E
:102B200025FE06B010BD0222009103210192002370
:102B300003910C22029369460492704798E797E745
:102B400096E70000AC020020004000520441005211
:102B500080400052040F0020D44402580014025850
:102B600000080258001C02580018025800100258B1
:102B7000000C0258463A5C6F746865725C626C6463
:102B80005C53544D333248375C70726F6A656374BE
:102B90005C73746D33326837343369695C73746D98
:102BA0003332483734335F74656D705C5372635CE5
:102BB000666D632E630000006548012238B5654CE0
:102BC00000F031F88AB000F045F810B1502100F063
:102BD00027F8002007A90790204600F073FE10B1E7
:102BE000582100F01DF800F025F810B1652100F023
:102BF00017F80BB030BD5848012230B5574C00F0E3
:102C000012F887B000F026F810B1832100F008F820
:102C100000F010F810B1902100F002F807B030BDBC
:102C20002846FFF7A1BC002120600420206101207C
:102C3000A06170470521002300914FF080410122DF
:102C4000039101926946029320460493059300F094
:102C5000CBBF0000206200BF46A5606204F13800CF
:102C60000270417020466160A160E160A18221771D
:102C7000A162E1622163616300F098BE38480122DD
:102C800030B5384CFFF7CFFF87B0FFF7E3FF10B147
:102C9000AE21FFF7C5FF01210023009120460191DD
:102CA0004FF080410391694602930493059300F02D
:102CB0009BFF10B1BB21FFF7B3FF07B030BD10B5CC
:102CC000294986B00A680068214C284B521CA04252
:102CD0000CD1012A0A6018D1186840F02000186051
:102CE000196801F02001009100980EE01A4CA042F2
:102CF00015D1012A0A6008D1196841F02001196034
:102D00001A6802F020020092009900210322039128
:102D100001A9019216480292FEF728FD15E0104A1B
:102D2000904212D1986840F080709860996801F0E4
:102D30008071009100984FF080610846FFF752FCC7
:102D40004FF000610846FFF74DFC06B010BD0000D3
:102D500000200240040900200021024068090020F0
:102D600000600258CC090020000F0020D84402580F
:102D700000040258463A5C6F746865725C626C6469
:102D80005C53544D333248375C70726F6A656374BC
:102D90005C73746D33326837343369695C73746D96
:102DA0003332483734335F74656D705C5372635CE3
:102DB0006164632E6300000030B5224C224989B063
:102DC0002160204623A501F029F918B13D212846AC
:102DD000FFF7CAFB00210022009120460291012149
:102DE000039169460192049201F061F918B14921F9
:102DF0002846FFF7B9FB09B030BD00681249884288
:102E000000D0704780B586B01048026842F000528A
:102E10000260036810220E4803F0005300930099EB
:102E20000323019200210293039101A9FEF79EFC66
:102E3000002200213620FEF7AFFD3620FEF7C9FD47
:102E400007B000BDEC0E002000740040E8440258BA
:102E500000000258463A5C6F746865725C626C648C
:102E60005C53544D333248375C70726F6A656374DB
:102E70005C73746D33326837343369695C73746DB5
:102E80003332483734335F74656D705C5372635C02
:102E90006461632E6300000010B5354835494FF476
:102EA00080720160826001220221426182610024FD
:102EB000C1610023016200F1840142628262C26248
:102EC00002630422C360048244638463C4630464B1
:102ED00042648464C264046542658465C4650466B2
:102EE00044668266C466046744678467C467C0F842
:102EF00080400C604C608C60CC604C6101F056F9F5
:102F000028B15F211FA0BDE81040FFF72DBB10BD09
:102F100000681849884200D0704780B586B01648CE
:102F2000026842F48072026003684FF40072134832
:102F300003F4807305930599022300920021019305
:102F400002910391092104916946FEF70FFC4FF4A9
:102F50000052022100920023019109220293694646
:102F6000039307480492FEF701FC07B000BD000080
:102F7000B803002000A00040EC4402580020025892
:102F8000001C0258463A5C6F746865725C626C643F
:102F90005C53544D333248375C70726F6A656374AA
:102FA0005C73746D33326837343369695C73746D84
:102FB0003332483734335F74656D705C5372635CD1
:102FC000666463616E2E630038B51A481A49016061
:102FD000002200F134018260CA6001234A6140246A
:102FE0000261164A436000230C610124C261002281
:102FF0008B610025436184614FF48074C3608362F8
:103000000123C26208220B704D608C60CA610B62A2
:103010004D628D62CD620D634D638B63CD6301F0B4
:10302000D1FA30B15FF0500106A0BDE83440FFF79F
:103030009BBA31BD540400200458014000EE020048
:1030400070470000463A5C6F746865725C626C643D
:103050005C53544D333248375C70726F6A656374E9
:103060005C73746D33326837343369695C73746DC3
:103070003332483734335F74656D705C5372635C10
:103080007361692E6300000010B5224800222249B6
:1030900002614FF48044016042608260C46042611A
:1030A00001F022FC28B140211FA0BDE81040FFF72D
:1030B0005BBA10BD00681849884200D0704780B5DF
:1030C00086B01648026842F48032026003684FF40A
:1030D000F852134803F480330593059900920223B4
:1030E0000021032202910C2104916946019303926D
:1030F000FEF73CFB022104220191032100920023F0
:1031000003910C220293694604920648FEF72EFBB7
:1031100007B000BD8808002000700052D444025857
:1031200000080258000C0258463A5C6F74686572D9
:103130005C626C645C53544D333248375C70726F20
:103140006A6563745C73746D3332683734336969EC
:103150005C73746D3332483734335F74656D705C03
:103160005372635C73646D6D632E630000236B4860
:1031700010B583606A4900F01FF808B152210BE0D6
:1031800010BD0023674810B58360674900F014F84C
:1031900008B1722100E010BD6EA0BDE81040FFF73D
:1031A000E3B90023614810B58360614900F004F879
:1031B00008B19221F0E710BD4FF480024FF0806318
:1031C0000160002142600324836107224FF08043A5
:1031D000C46001614161C161016241628162C26298
:1031E00043638163C163016441648164C1640165B7
:1031F0004165816502F0D4B800234E4810B5836064
:103200004D49FFF7D9FF08B1B221C5E710BD10B590
:1032100086B00068424A494990421FD188686023BD
:10322000002440F4805088608968454801F480514A
:103230000591059A009302210191052302946946A4
:1032400003940493FEF792FA802202210092052251
:103250000191694602943B4803944EE0324A3A4C4D
:10326000904218D10B682046002443F480430B6041
:1032700009684FF4404301F4804100F043F80492A0
:10328000FEF774FA02220294009269460192052226
:1032900003942E4831E0264A904220D10868042346
:1032A00040F4004008600968204601F4004105919F
:1032B000059A02210093002201910292694603922D
:1032C00007220492FEF752FA0222182101920023EB
:1032D0000091062202936946039320460DE0164AA8
:1032E00090420DD18868642340F40050886089685A
:1032F000174801F4005100F005F80492FEF736FA81
:1033000006B010BD0591059A02210093002201919B
:10331000029269460392052270470000E8040020EB
:10332000003001407005002000380040F805002002
:10333000003C00408006002000340140E844025870
:1033400000000258000C02580004025800200258E5
:1033500000100258463A5C6F746865725C626C6477
:103360005C53544D333248375C70726F6A656374D6
:103370005C73746D33326837343369695C73746DB0
:103380003332483734335F74656D705C5372635CFD
:103390007370692E630000004FF4E132474880B536
:1033A00042600023464900F011F808B149211DE0B0
:1033B00001BD4FF4E132434880B5426000234249E9
:1033C00000F004F808B1622110E001BD83610C2215
:1033D00001608360C36003614261C3610362436251
:1033E0008362C3620363436302F06AB83CA0BDE832
:1033F0000440FFF7B9B84FF4E132344880B5426079
:1034000000233349FFF7E2FF08B17B21EEE701BD5E
:1034100010B52B4B86B001682E482F4A99420CD12B
:10342000146844F48014146012684FF4405402F499
:10343000801200F03AF80E2331E0234B99421FD15D
:1034400090684FF4C06340F010009060916823488A
:1034500001F010010591059A0221009300220191CB
:1034600002926946039207220492FEF77FF9002236
:1034700000212520FEF790FA2520FEF7AAFA12E097
:10348000134B99420FD1146844F4802414601268DD
:103490004FF4406402F4802200F007F807230493FD
:1034A0006946FEF763F906B010BD0592059B02223E
:1034B00000940023019202930393704708070020B1
:1034C000005000408807002000100140080800203C
:1034D0000048004000040258E84402580000025826
:1034E000463A5C6F746865725C626C645C53544D00
:1034F000333248375C70726F6A6563745C73746DE5
:1035000033326837343369695C73746D33324837EA
:1035100034335F74656D705C5372635C7573617294
:10352000742E630010B51C481C4901600024102251
:10353000032302218260C36004618161C46102F0DF
:1035400065FC30B15FF0400117A0BDE81040FFF707
:103550000BB810BD00681149884200D070470021A7
:103560004FF4C05200B585B0022302910C4803917C
:103570000A210491694600920193FEF7F7F8094881
:10358000026842F000620260006800F00060009093
:10359000009905B000BD00001400002000000840A4
:1035A00000000258D8440258463A5C6F746865724D
:1035B0005C626C645C53544D333248375C70726F9C
:1035C0006A6563745C73746D333268373433696968
:1035D0005C73746D3332483734335F74656D705C7F
:1035E0005372635C7573625F6F74672E63000000D3
:1035F0000248416802788A18426070470000002043
:1036000080B51C48016841F002010160006800F0CB
:103610000200009000990320FEF7B1F9002200217A
:103620006FF00B00FEF7B8F9002200216FF00A00DE
:10363000FEF7B2F9002200216FF00900FEF7ACF9A5
:10364000002200216FF00400FEF7A6F900220021FD
:103650006FF00300FEF7A0F9002200216FF00100D7
:10366000FEF79AF9002200214FF0FF30BDE8084034
:10367000FEF792B9F4440258F8B5040001D10120D4
:10368000F2BD04F13505687820B900212046297083
:10369000FFF770F802204FF6FF7C687023681F491F
:1036A000DE68D4F804E06769A068BEF1010F08BFC6
:1036B00026F01E0667451CBF194A16400E40226AB6
:1036C0004EEA06060643616AA06A16430E430643A5
:1036D000BEF1010F03D1E06822691043064367453C
:1036E00004D0A169E0690F4307433E43DE602168CF
:1036F0000C4A91421CBF0C4B994204D1E66A206BE4
:1037000006434E6205E0094A914202D1E06A084947
:103710000860012200206A70F2BD0000FEF119FF6E
:103720003F1FFFFF002400400024005800280058DD
:103730002428005810B504001FD0617F19B9002259
:103740002277FFF7A3F802216177207970B9226808
:10375000154951612068836823F0180383606079FC
:1037600068B922684FF0FF3111610BE0E268A1688F
:10377000204602F077FB0028F1D0012010BD21681F
:103780002069086121688A68606922F0600202434A
:103790008A6021688A68A06922F0800202430020C2
:1037A0008A600121617710BDB71DC10470B50400A6
:1037B0000D46164601D1012070BD04F14401487840
:1037C00020B9002220460A70FFF7B8F9206804F1FA
:1037D000080102F06BFBA2682068294602F0A0FBFA
:1037E000E36AA2686068314602F0C5FBA068216800
:1037F00051F8202042F0010241F8202003480168DE
:1038000041F000410160002070BD00000040005206
:1038100070B504000D46164601D1012070BD94F824
:10382000210028B90021204684F82010FFF787F9ED
:103830002068211D02F0BDFB62682068294602F065
:10384000CDFB62682068314602F0CFFB206801683A
:1038500041F004010160DFF81C00026842F0004200
:10386000026000F001F870BD012084F82100002002
:10387000704700000040005270B504000E4601D1B0
:10388000012070BD04F12C05287820B900212046C4
:103890006970FFF755F90220211D2870206802F099
:1038A000B6FB62682068314602F0ECFB0448016810
:1038B00041F00041016001202870002070BD00002F
:1038C00000400052F0B500F1500400222378012B93
:1038D00001D10220F0BD01252A4E25700368B342B4
:1038E00026D1294F3B685B0740D4254DAE6877074A
:1038F0003CD40B68254E264F13B33B6823F4404C51
:103900004B6843EA0C033B6000F049F802D10068C1
:10391000C30730D4A86800F03EF802D12B68DD0759
:1039200029D4386806400868896806430E431BE0BE
:103930006268002042F02002626020700120F0BD29
:10394000396821F44041396000F029F802D100685B
:10395000C10710D4AB6803F00303012B02D1286820
:10396000C10708D43B681E403E6004E06068012245
:1039700040F020006060002110462170F0BD000082
:10398000002102400020024008200240E0F0FFFF3A
:1039900008230240B06800F0030001287047006867
:1039A000836803F00303012B70470000F8B500267D
:1039B000044600960CB90120F2BD04F13805E8690F
:1039C00020B92046FFF77BF92E622E7620688168A9
:1039D0008A0003D5836823F00053836020688168E0
:1039E000CA0015D48368DFF8D821DFF8D8C10A21CE
:1039F00043F0805383601768B7FBFCFC01FB0CF0BD
:103A0000009002E0009A521E009200980028F9D11E
:103A100020688168CA0008D4EB69012643F01003CE
:103A2000EB61296A41F001012962E969CA0601D402
:103A30008368590700F1BD80EA69DFF88C71B842EC
:103A400042F00202EA61DFF88421836816BF9042E7
:103A5000DFF87C11DFF87C1103F00303012B02D1A6
:103A60000368DB0737D4B842DFF86C310CD100F0C3
:103A7000C1FA02D11268D0072DD49F6807F003075E
:103A8000012F20D118681BE09042B86800F00300B5
:103A90000CD1012802D13F68F8071CD4986800F0C7
:103AA000AAFA08BF186804D0002004E0012803D156
:103AB000386800F0010070B900F09CFA03D110687A
:103AC00000F0010000E0002028B90A68606822F4D4
:103AD0007C1202430A60216B637DA068227F41EA69
:103AE0004331014341EA0241012A03D1226A521EB5
:103AF00041EA4241626A012A1FBFA06A00280243CC
:103B000011432268DFF8D400D36803401943D16021
:103B10002268916811F00C0F37D1D368DFF8C0101C
:103B2000277DE06A0B4043EA87330343D36069781B
:103B3000012911D12368DFF8AC001F69AA68E96880
:103B40000740686847EA0047286917430F4307435F
:103B500047F001071F6104E0206801694908490036
:103B6000016121680A69606B22F0704202430A61B8
:103B700029782068012904D1826842F48072826029
:103B800003E0816821F480718160E0680128206889
:103B9000016B05D1A2690909521E42EA011101E037
:103BA000090909010163E86920F0020040F0010001
:103BB00003E0E869012640F01000E8613046F2BDFC
:103BC0000C00002080841E000020024000210240E2
:103BD00008230240086302580060025803C0F0FF47
:103BE000FCBFFFFF1EF800FC024608462DE9F84323
:103BF000002102F1500400912578012D08BF022018
:103C000000F0D681012323701568AE68770700F1B4
:103C1000C7810346E8691F6801264FF0060C06FAC3
:103C200007F73843E861D3F804E01F2718681568E0
:103C3000BEF1040F0CD80CFB0EFED5F8308007FA4D
:103C40000EF728EA070700FA0EF03843286322E04F
:103C5000BEF1090F09D8AEF1050ED5F834801EFB70
:103C60000CFC00F0BAF9686315E0BEF10F0F09D241
:103C7000AEF10A0ED5F838801EFB0CFC00F0ADF951
:103C8000A86308E0AEF10F09D5F83C8019FB0CFCE5
:103C900000F0A3F9E863D2F800C00727DCF80800B9
:103CA00010F00C0F52D11D68D3F808E0092D0DD982
:103CB0000A3DDCF8180005EB450807FA08F5A843AB
:103CC0000EFA08F52843CCF818000CE005EB450582
:103CD000DCF8148007FA05F00EFA05F528EA000072
:103CE0002843CCF814001068D3F814C0C568D3F882
:103CF00010E0AD086D0005F00E050CFA05F5AEF10B
:103D0000010EBEF1030F00F27980DFE80EF0022011
:103D10003D5AD0F860C0D3F800800CF0004C4CEA5B
:103D2000886C45EA0C0505661068056925F4006C89
:103D30001D7E45EA0C0500F03DF918B1286E40F0F3
:103D4000004002E0286E20F00040286679E0D0F8BC
:103D500064C0D3F800E00CF0004C4CEA8E6C45EAED
:103D60000C05456600F041F925F4805545EA4C05FF
:103D700000F020F918B1686E40F0004002E0686E73
:103D800020F0004068665CE0D0F868C0D3F800E03E
:103D90000CF0004C4CEA8E6C45EA0C05856600F090
:103DA00024F925F4005545EA8C0500F003F918B113
:103DB000A86E40F0004002E0A86E20F00040A86627
:103DC0003FE0D0F86CC0D3F800E00CF0004C4CEAB7
:103DD0008E6C45EA0C05C56600F007F925F48045B0
:103DE00045EACC0500F0E6F818B1E86E40F0004076
:103DF00002E0E86E20F00040E86622E0056E00F088
:103E0000E5F803D1056E25F0004505661068456E9E
:103E100000F0DCF803D1456E25F0004545661068DA
:103E2000856E00F0D3F803D1856E25F000458566D8
:103E30001068C56E00F0CAF803D1C56E25F00045C4
:103E4000C5661568A86800F0D6F802D12868C007D2
:103E500037D418688640D868B0F1804FD5F8C000D4
:103E600004D020EA0606C5F8C06014E00643C5F891
:103E7000C0601E6898681568092E06D3093ED5F8FB
:103E800018C000F09BF8AF6105E0761CD5F814C0AF
:103E900000F094F86F611268DFF86C01DFF86C6174
:103EA0001B68824216BFB242DFF85451DFF86051FE
:103EB000122B02D12F683F0203E0112B03D12F6890
:103EC000FF0172D404E0132B6FD12F687F026CD4F2
:103ED000976807F00307012F02D11768FF075FD427
:103EE0008242DFF820710CD1B06800F084F802D172
:103EF0003668F00754D4B86800F07DF824D13868EB
:103F00001FE0D0F808C0B2420CF0030C0DD1BCF198
:103F1000010F02D10068C00742D4B86800F06BF806
:103F200008BF386805D0002005E0BCF1010F03D1BF
:103F3000006800F0010098BBB06800F05CF803D1A5
:103F4000306800F0010000E0002048BB122B15D1C2
:103F5000BA422AD128682F4B2F4E782240F4000015
:103F600028601D68B5FBF6F65643009600980028B9
:103F70001EBF009A521E0092F8D116E0112B06D1F6
:103F8000BA4212D1286840F0807028600DE0132BEF
:103F900008BFBA4209D12A6842F480022A6004E0CC
:103FA0006068012140F02000606000220846227015
:103FB000BDE8F2830561587E1568704706EB46063A
:103FC000B7402CEA0707B04007437047D3F800C05A
:103FD00005F0F845B5EB8C6F704707FA0CF728EA47
:103FE000070700FA0CF0384370471068056993F82A
:103FF00018C07047906800F0030001287047000067
:1040000008230240006002580020024000210240C4
:10401000086302580C00002080841E0010B50400C4
:1040200001D1012010BD207920B900212046617105
:10403000FEF7E3FE02200021207101222161002011
:10404000227110BD10B50446206801688A0413D59A
:10405000436B990410D504224FF400512271236957
:1040600043F00103236141632068026822F4805217
:104070000260204602F04CF8206801688A0015D5DD
:10408000436B990012D504224FF00051227123692D
:1040900043F00203236141632068026822F08052EA
:1040A00002602046BDE8104002F033B810BDF8B5FC
:1040B00005460E4668791446012801D10220F2BD5A
:1040C00001210220697128713268042A33D16CB948
:1040D000FCF700FF07462868334A416B114215D0B0
:1040E000FCF7F8FEC01B0128F5D907E02868416BF2
:1040F000002912D5FCF7EEFE0128F7D92869032123
:1041000040F00800286103202971F2BD012002F06F
:1041100001F82968B069086405E0012001F0FAFFA0
:104120002968B0694864F2692868A2408264316AEB
:104130002B68A140D9643069012808D128681F2262
:10414000A240816B73699143A340194381632A683C
:104150000727A740D36B3068B1680143F068BB43C1
:104160000843A04003434FF48041D3632868A14033
:1041700040F6FE73A34002688A4302602868016823
:1041800072689943C026A24011430160286806FA6C
:1041900004F40022016821EA04040460012028716B
:1041A00000206A71F2BD000000800020F8B5040014
:1041B00029D02068DFF8105204F19406A84204BF09
:1041C000DFF808126160307820B900212046717054
:1041D000FEF79EFE00F0F0F80746206881690A07A6
:1041E00040F1C580FCF776FEC01B0B28F5D305E037
:1041F000FCF770FEC01B0B28C0F0C080706800F098
:10420000E7F8706031700120F2BD826942F040022F
:104210008261607C0128206881690CBF41F4804183
:1042200021F480418161A07C0128206881690CBF54
:1042300021F4805141F48051816121688A69A0682C
:1042400022F4407202438A61E068012804D12068A8
:10425000816941F0040113E0B8B12168022888693E
:1042600010D040F0800088612068016941F01001A1
:104270000161E068032808D12068816941F02001CC
:10428000816102E040F020008861E069A169626913
:10429000401E0002491E40EA4160216A521E491E2A
:1042A0000843216840EA0240C861A068B0F5407F39
:1042B0000FD1A16AE06A226B491E401E41EA00212B
:1042C000521E606A41EA02112268401E41EA004122
:1042D000D160206E30B12068D0F8C020616E0A43F2
:1042E000C0F8C020E06D216E2EA2081809D0206809
:1042F000D0F8C830A76ED15DDB0841EAC303C0F82F
:10430000C830206C48B12068D0F8BC30676CD15DF3
:10431000DB0841EAC303C0F8BC30A06C50B1206890
:10432000D0F8BC10E36C21F07001D75C41EA0711B2
:10433000C0F8BC10206D50B12068D0F8BC10636D7F
:1043400021F4E061D25C41EA0221C0F8BC1020688F
:10435000A84204D16068816889088900816020468C
:1043600000F03AF80020012170603170F2BD8269DE
:1043700042F001028261FCF7ADFD074620688169C9
:10438000CA077FF535AF836943F002038361207C60
:10439000012820687FF439AF816921F040018161F3
:1043A00037E70000000000000001020304000500E0
:1043B00000000600000007002068816921F010015C
:1043C0008161FCF787BD000000A0004000A1004013
:1043D000032140F00100704770B5416B764AC16619
:1043E0000368D3F88440144044EA8104C3F884404D
:1043F0000168D1F88430846B23F47F0343EA0443DB
:10440000C1F88430C36E816BCB1803670168D1F8A3
:104410008840144044EA8304C1F888400168D1F818
:104420008830C46B23F47F0343EA0443C1F8883027
:10443000016FC36B01EB430141670368D3F8A040F0
:10444000144044EA8104C3F8A0400168D1F8A030C8
:10445000046C23F4FE0343EA0443C1F8A030456F23
:10446000036C416C01FB035383670168D1F8B040D2
:1044700024F0FC0444EA8304C1F8B0400168D1F898
:10448000B030846C23F4FE0343EA0443C1F8B03037
:10449000856F836CC16C01FB0353C3670168D1F85E
:1044A000AC4024F0FC0444EA8304C1F8AC40C56F7E
:1044B000036D416D01FB0353C0F880300168D1F8F2
:1044C000F040224042EA8302C1F8F0200168D1F8AE
:1044D000F020836D22F47C1242EA0342C1F8F020FE
:1044E000D0F88010826D01EB420100F1840211606E
:1044F0000368D3F8C04024F0FC0444EA8104C3F804
:10450000C0400168D1F8C030C46D23F47C1343EA85
:104510000443C1F8C0301368C56D816E01FB0533DB
:1045200053600168D1F8C030046E23F07C5343EA35
:104530000463C1F8C030846B056C416B1F4B03EB07
:104540008103C16BC36603EB8404046704EBC104FD
:10455000416C44674D4304EB8504856CC16C8467F2
:104560004D43416D04EB8504056DC4674D4304EB79
:104570008504856DC0F8804004EBC5041460816E2D
:10458000C66D4E4304EB86045460006E414304EB59
:1045900081040B49D4608C4208D3506940F020005C
:1045A0005061012070BD002143F8041BD068834294
:1045B000F9D3002070BD00000300FFFF00AC0040F5
:1045C000FDB500402DE9F84F04004FF0000A5546B4
:1045D0002E461BD004F13407DFF8CC823878DFF8A0
:1045E000CC92012814D12068484518BF404507D017
:1045F000DFF8BC1288421CBFDFF8B822904205D118
:104600006368012B04BFF868002801D0012027E16E
:10461000206848451ABFDFF8A0128842DFF89CB234
:1046200012D040451ABFDFF898229042DFF894B2CA
:104630000AD0DFF87C1288421BBFDFF88C22904240
:10464000DFF888B2DFF888B204F18C01487820B92D
:1046500084F88C502046FEF7F3FC022004F18C0114
:104660004870204600F0FEF8DBF8440040084000A7
:10467000CBF84400397801290CD17968B868491E13
:1046800040EA0110CBF84400DBF8440040F00100A0
:10469000CBF84400E168012904D0022908BF4FF09B
:1046A000200A01E04FF0100AA1684FF400600129D0
:1046B00005D00AD3032905D038BF064605E04FF4DC
:1046C000806602E006464AF0010ACBF800A0E069E5
:1046D000002853D021680020494519BFDFF8D821B0
:1046E00091424FF48070FCF787F92168414519BF6A
:1046F000DFF8CC2191424FF40070FCF77DF921687E
:10470000DFF8AC21914219BFDFF8BC3199424FF478
:104710000070FCF771F92168DFF89821914204BF1D
:104720004FF48060FCF768F92168DFF8A821914216
:1047300004BF4FF40060FCF75FF90A22616950433F
:10474000B1F5002F05D1E369F9694B43B0FBF3F0F4
:104750000AE0616AE369B1F1806F0CBF02210121B7
:1047600059430902B0FBF1F00A21B0FBF1F102FB61
:1047700011022162092A24BF491C216260684FF49A
:104780000071002818BF022803D1B869012804D09D
:1047900002E0BA69012A00D10D462168DFF838012C
:1047A0000B6803400B60D4F800C0DCF800E06068E0
:1047B000FA683969A36A104322690143786908439A
:1047C0000543354361691D431543236A606A0D4300
:1047D000DFF8081145EA0355054345EA0E05CCF814
:1047E0000050206842680A40426022685368A56908
:1047F000E06A216B0543DFF8E8000D432B4353606B
:1048000021688A6802408A6023689D68FE69FA6AA6
:10481000796AB86A761E16430E433A6A06434FF227
:104820002000521E46EA022635439D602168CA6870
:104830000240CA602168CB683A6B786BBE6BFD6B37
:10484000024304F18C0042EA0542761E42EA062247
:1048500013430122CB6000214160427001700020AF
:10486000BDE8F28F30B51F4907230A6801684FF48D
:104870007A740D68B2FBF3F3B3FBF4F325F48035DF
:104880009B0000220D6019464B1E29B101680C687F
:10489000E503F8D4104630BDD0F89010032241F063
:1048A0004001C0F89010F5E7045C01400458014055
:1048B000046001400454005824580140005801404D
:1048C000245C0140005C0140246001400060014024
:1048D000005400582454005810C005FCF01FFFFF7E
:1048E0000080F8FF0C00002078B5040085B058D097
:1048F00004F13005297819B900222276FEF7DAFB97
:1049000003212046297000F055F8002849D1694656
:10491000204600F067F9002843D19DF810109DF85B
:104920001100AA68012A07D100290ABF00284FF404
:1049300000704FF4807002E00021A96200E0A862DC
:10494000E168204600F0AAF958BBA86AB0F5007FDC
:104950001CBFA96801291CD12068426842F480125A
:104960004260204600F089FCD8B9FCF7B3FA06464D
:10497000204600F030FA042815D0FCF7ABFA00F01E
:1049800020FBF5D14FF00040012168600320297021
:104990000EE0B0F5807FE8D1204600F00EFC002844
:1049A000E3D0012004E0002001226860E0622A7068
:1049B00006B070BD78B587B000210023FA22044606
:1049C000069202911422039104930591206802A992
:1049D000066846F01006066083B0684601F0AEFB3C
:1049E0000EBC206801F0EEFB90B9206801F0FEFBE0
:1049F00070B9204604F1300500F060FA18B920467D
:104A000000F0FCF928B1012129706A681043686040
:104A1000012008B070BD07B0BDE8F08370B500F1AB
:104A20003003DA6A920F0A70DC6AA40E04F00F04F5
:104A30004C70DA6A120E02F003028A70DC6A240CEF
:104A4000CC70DA6A120A0A71DC6A4C711A6B120DA8
:104A5000CA801C6B240C04F00F040C721A6BD20B6E
:104A600002F001024A721C6BA40B04F001048C7268
:104A70001A6B520B02F00102CA721C6B0022240B4B
:104A800004F001040C734FF400744A739A68002A0E
:104A900040F08D80186B40F6FC7202EA80025D6B7C
:104AA00042EA95720A61586BC00E00F00700087563
:104AB0005A6B120E02F007024A75586B400D00F057
:104AC000070088755A6B920C02F00702CA75586B82
:104AD0000122C00B00F0070008760869401C9861AD
:104AE0000D7E05F00705AD1C02FA05F568439861D7
:104AF0000E7A06F00F06B240DA61520A504318628D
:104B0000586B5C62800B00F0010048765A6BD2094A
:104B100002F07F028A7693F8340000F07F00C876B6
:104B20009A6BD20F0A77986B400F00F0030048771A
:104B30009A6B920E02F007028A77986B800D00F054
:104B40000F00C8779A6B01F12100520D02F00102AB
:104B500081F82020002101709A6B120C02F00102F2
:104B60004270996BC90B01F0010181709A6B920B35
:104B700002F00102C270996B490B01F00101017151
:104B80009A6B120B02F001024271996B890A01F0D3
:104B9000030181719A6B120A02F00302C271996BD0
:104BA0000122C1F3460101724272002070BD012A48
:104BB0000DD1186B5A6B000400F47C1040EA1240CF
:104BC00008610869DC61401C8002986197E7006811
:104BD000DFF8781781635A68012042F080525A60EA
:104BE000187070BD38B590B00C460546694600F0A7
:104BF000ECF958B12968DFF854278A6305F13001D0
:104C00004B68184348600120087045E00098C0F3E5
:104C1000811020700099C1F34010607000980099D5
:104C2000000A00F47F4040EA1160608001980202AF
:104C300002F47F0242EA0062030A03F47F431A434C
:104C400042EA1062626002982072029A120A62724C
:104C50000298000D00F00F00A072029B039A1B0C3B
:104C600003F47F4302F0FF000343920AA38102F0A2
:104C70003F02A2730398000A00F00300E073039858
:104C8000C0F3031020749DF80C2002F00F02627430
:104C90000498000EA074002011B030BD2DE9F84139
:104CA000044687B004F1300503200F462870A96838
:104CB000032957D0B7F5004F04D1686840F0805001
:104CC000686053E0B7F5804F4FF080664FF400689E
:104CD0001ED100230021CDE90033206801F0A6FA9F
:104CE000820148BF464634D46946204600F0E8F9C0
:104CF000F8B9019841032CD500F068F8060028D1D6
:104D00002068022101F045FB060022D1002620E0A8
:104D10001FBB00200021CDE90000206801F086FAC9
:104D2000800148BF464614D46946204600F0C8F9C1
:104D300008B106460DE00198C1030AD500F046F817
:104D4000060006D12068002101F023FB060008BF01
:104D50000026686806436E6008E0696841F00061FB
:104D6000696003E06A6842F080526A60686830B146
:104D70002268DFF8D81501209163287023E061686C
:104D80000291A26803920497216905916069042841
:104D900003D2A96AB1F5007F01D1069006E0B1F512
:104DA000807F07BF022106910426069602A983B0E0
:104DB0006846142201F0C2F90EBC2068012401F0FB
:104DC00001FA2C70002008B0BDE8F0816969206804
:104DD000090401F0CDBA38B504460025616C20689D
:104DE000090401F01EFB18B1616B0843606302E027
:104DF00000F051F9450A05F00F0032BD10B58CB036
:104E000001210446ADF80010206801F0F9F910B94D
:104E10004FF080604CE0A06B032837D0206801F091
:104E2000C3FA002844D100F036F9E06600F042F8F9
:104E300020672068082101F0F9F9606720680C21DB
:104E400001F0F4F9A067A06B03281FD02068694621
:104E500001F0CEFA60BBA06B032817D0BDF800109C
:104E600061642068090401F0ADFA08BB00F013F991
:104E7000E06500F01FF820662068082101F0D6F9EF
:104E8000606620680C2101F0D1F9A06600F012F8EC
:104E9000000D01A920642046FFF7C0FD10B14FF0BE
:104EA000805005E0626C20680023120401F0F0F9E4
:104EB0000CB010BD2068042101F0B8B9F8B5054662
:104EC000002000900027FCF705F80646286800241B
:104ED00001F0F1F9002854D1286801F00CFA401EC5
:104EE0008041C00F0021E863286801F041FA50BBFF
:104EF00000994FF6FF70814244D2002C42D12868BD
:104F0000002101F035FA00283BD12868DFF844146D
:104F100001F039FAB8B9286800F0BEF807460098E1
:104F2000FC0F401C0090E3E7FBF7D4FF00F049F8CA
:104F30001DD02868416B4A01F6D54FF0806383632A
:104F4000406BC10202D44FF08050F2BD012001F04D
:104F5000B9FB2868016841F0040101602868426BD0
:104F6000910125D4FBF7B6FF00F02BF8F6D14FF0F6
:104F70000040F2BD13214FF0FF3201608263AC6547
:104F80000020F2BD0099814218D27800F8D50122A4
:104F9000F901AA63F4D54FF40074AC65286802687F
:104FA00042F00802026001F073FA0028C1D0F2BD9D
:104FB0004FF000718163426BD302DBD54FF08070FC
:104FC000F2BD801B10F1010F7047F8B586B00546A1
:104FD0000F46FBF77FFF0646286800F05DF880016A
:104FE00048BF4FF4006054D4286800F043F9B0B9CA
:104FF00000F0DEF898B94FF0FF3240230092022211
:1050000003926021012201930291002105920491F3
:10501000286800F052F8286801F00EFA90B1696B28
:10502000696336E0406B010407D50824286801F065
:10503000DCF8641E47F8040BF8D1FBF74BFFFFF7D1
:10504000C0FF1CD02868416B11F4957FEAD0426BF9
:10505000110748BF08201CD4426B910748BF0220AB
:1050600017D4406B81060DD5202012E001F0BDF869
:1050700047F8040BFBF72EFFFFF7A3FF02D14FF019
:10508000004006E02868416B8A04EFD4B04B83638C
:10509000002007B0F0BD2068002101F0C7B84FF034
:1050A000FF3140220091602302210192029303917B
:1050B0000121CDF8108005912068694601F0B9B84A
:1050C0002DE9F84386B005460E460024FBF702FFA3
:1050D0008046286808210027A14601F0C0F8002872
:1050E00057D100F065F8002853D14FF0FF31082266
:1050F0000091302302210192029303910121049433
:1051000005912868FFF7D9FF286801F044F90028C5
:1051100041D03EE0416B0A0308D43CB901F065F888
:1051200081462868012401F060F80746FBF7D2FEAB
:10513000A0EB080010F1010F2DD14FF0004028E046
:10514000416B8A0748BF022303D4416B8A0603D50B
:105150002023836318461CE07D493A0A81633802A4
:1051600000F47F0002F47F4240EA07604FEA192111
:1051700001F47F41104340EA176030604FEA092094
:1051800000F47F0040EA0960084340EA196070605B
:105190000020FFF740BC286840F22A52416B1142C0
:1051A000B8D0436B1907CBD5082282630820F0E7FB
:1051B000696C2868090401F0DBB82DE9F84F96B056
:1051C00000F0D7F8FBF786FE00F0CCF810B94FF0EE
:1051D000806049E0B0F5807F45D100F048F80500D7
:1051E00041D1FFF75CFF10B14FF480303CE0206804
:1051F00059490DF1180A01F03CF9050033D100F0CE
:10520000C3F815D1406B010408D5002700F0C2F89F
:10521000082F4AF82B00F9D308F10108FBF75AFED2
:10522000A0EB090010F1010FE9D100F0A7F81BE095
:10523000426B110703D508238363002014E0416B00
:105240008A0748BF022303D4416B8A0603D5202373
:105250008363184608E03D4981639DF82500810776
:1052600058BF4FF08055284617B0BDE8F08F216831
:10527000CD622068402100F0F2BF2DE9F84F96B0D2
:1052800000F077F8FBF726FE00F06CF810B94FF04D
:10529000806047E0B0F5007F43D1FFF7E8FF0500ED
:1052A0003FD1FFF7FCFE00284CD120682B490DF1BF
:1052B000180A01F0DEF8050033D100F065F815D1C9
:1052C000406B010408D5002700F064F8082F4AF865
:1052D0002B00F9D308F10108FBF7FCFDA0EB090056
:1052E00010F1010FE9D100F049F81BE0426B110702
:1052F00003D508238363002014E0416B8A0748BF6D
:10530000022303D4416B8A0603D520238363184606
:1053100008E00F4981639DF82500810703D44FF011
:1053200080552846A0E7012001F0CCF920684168AB
:1053300021F4401141F400114160094801F0C4F921
:105340000028EED04FF48030ECE70000FF0FE01FA4
:105350003A0F0018000010C101FFFF80031FFF80FB
:1053600000800052814604F13006B06A0025A8464C
:105370007047044606A8402101F0E0B94FF0004014
:105380000121706031707047206840F22A52416BF1
:1053900011427047206807EBC80B7F1C00F025BF47
:1053A00070B5040000F084800020424BA0622068A9
:1053B000414A424998421CBF9042884202D0E56867
:1053C000102D75D2E568E66B0835ED087609761C78
:1053D000754398421CBF9042884267D0082D67D819
:1053E00004F18005697821B9002028702046FDF776
:1053F0000EFF0221697020680268520852000260A4
:10540000A069B0F1806F04BF6168B1F5800F06D16B
:10541000A06B20B92068016841F480510160E36904
:10542000A26AE16BE068266813430B430343B36051
:10543000636B606AA16BA2692668034320690B4312
:1054400061691343226A034360680B43E16C1343B1
:10545000A2680343A06C0B43A16D134303430B43AA
:10546000F360606868B92068816821F4C05141F434
:10547000006181602068816821F4C06141F480612D
:1054800081602068016D490849000165606841023A
:1054900006D52168CA68606D22F000420243CA60E6
:1054A00000210122696000206A7070BD102D97D91B
:1054B000012070BD0030014000380040003C004039
:1054C00038B5040009D004F17805697809B900F00D
:1054D0001FF800F022F8012801D1012032BD606BD5
:1054E00008B100F02AF800F00BF822F02A028260DE
:1054F00000F01DF8FFE72046BDE8324000F0CEBBCB
:105500002068416821F490414160206882687047BA
:10551000002028702046FDF77BBF24216970206899
:105520000268520852000260204600F0F1B820687C
:10553000016841F0010101607047204600F04ABB5C
:10554000206881684A067047F8B5044604F174057E
:105550002168CA690B688E6812F00F000AD19006A4
:1055600070D59F0601D4F0006CD52046BDE8F2400E
:1055700000F008BCDFF8F005064208BF13F4907F86
:1055800060D0D70707D5DF0505D501270F62A968C9
:1055900041F00101A960970708D5F10706D52768F2
:1055A00002213962A96841F00401A960570708D5B2
:1055B000F10706D5276804213962A96841F0020184
:1055C000A96017070AD5990601D4064206D02768B4
:1055D00008203862A96841F00801A960A86800287D
:1055E0002FD0910606D5980601D4F10002D52046A9
:1055F00000F0C8FBA868010703D422689068410640
:105600001AD5204600F0A7FBFFF79AFF0FD500F050
:1056100079F860B10FF25D710165286801F092F8C8
:1056200000286ED02868016DBDE8F4400847204688
:10563000BDE8F24001F0D6B8204601F0D3F80020D2
:10564000A860F1BDD7020CD570020AD54FF48012C4
:1056500020460A6220216971A971BDE8F24001F07B
:10566000C2B8170636D5180601D4360232D56A7983
:10567000212A46D1B4F8620088B90A68930004D59B
:10568000886820F40000886003E00A6822F0800245
:105690000A602068016841F040010160F1BDA26824
:1056A000B2F5805F04BF2069002808D1E26D13883D
:1056B000C3F308030B85E06D811CE16504E0E06D38
:1056C000421CE26500780885B4F862104A1EA4F80E
:1056D0006220F1BD50060CD55E060AD50A6820206E
:1056E00022F040020A6068712046BDE8F24001F0F5
:1056F0007BB8120205D5580003D50B6823F0804310
:105700000B60F1BD836823F0400383602868704715
:105710002DE9F84386B0DFF85464802504462168FB
:10572000002081460F68A2682369374066691743E5
:10573000E2691F43A36A374317431F430F604E6854
:10574000E26826F440561643DFF824244E60914266
:10575000A769A66A1CBF236A1F43B6F1005F03D185
:10576000E36A266B33431F438E68DFF808340FF279
:10577000846833401F438F60CE6A636ADFF8F87332
:10578000360943EA0616DFF8F4339942CE62DFF8B1
:10579000F06302D167E0042540E0DFF8E833994286
:1057A0000AD100F012FA39D8DFE803F092030414AA
:1057B0002537F0E7402531E0DFF8CC3399420BD1B3
:1057C00000F003FA2AD8DFE803F083040305162863
:1057D000F0E7E0E7082521E0DFF8B03399420CD18B
:1057E00000F0F3F91AD8DFE803F073050403061894
:1057F000F0E7DFE7CFE7102510E0DFF894339942B8
:105800002DD100F0E2F909D8DFE803F062060504C3
:105810000307F0E7DEE7CDE7BDE72025914240F042
:10582000E580022D0DD0042D68D0082D00F06E808B
:10583000102D00F07680202D00F07580402D61D075
:105840008BE1FBF766F9002800F08981626802EBC2
:105850004201884202D31303834267D27DE1DFF81D
:105860003433994210D17B6D13F038030AD0082BE2
:105870001BD0102B9ED0182BACD0202BBBD0282BAC
:10588000CBD0CBE70125C9E7DFF80C3399420DD126
:1058900000F09BF9C2D8DFE803F01B0807060504F7
:1058A000BCE7BAE7A7E795E784E774E7DFF8EC32EF
:1058B00099420FD100F089F9B0D8DFE803F0090868
:1058C00007060504AAE7A8E795E783E772E762E71A
:1058D0000025A3E79142A1D1BB6D03F00703052B7F
:1058E0009CD8DFE803F009080706050496E794E76B
:1058F00081E76FE75EE74EE70225A2E700F062F975
:105900000498A0E700F05BF901989CE738688106ED
:1059100005D53868C0F3C10126FA01F093E7304697
:1059200094E79F4892E74FF400408FE7022D0AD09A
:10593000042D0DD0082D1CD0102D2FD0202D3ED0A1
:10594000402D0BD049E0FBF7E4F8D4F824C00AE07E
:1059500000F038F9D4F824C0049804E000F02FF9DE
:10596000D4F824C00198626838F81C60B0FBF6F6E1
:105970001BE0D4F824C00021002338F81C003D6847
:10598000AD0603D53D68C5F3C107FE40B6FBF0F692
:10599000370E360216EB520079410DE0D4F824C0E0
:1059A0007F4B38F81C60B3FBF6F65008002110EB73
:1059B000062051EB1661002300F018FF0FE0666A25
:1059C0004FF4004138F81600B1FBF0F080B25108F6
:1059D00001EB0021B1FBF2F001E04FF00109A0F56D
:1059E0004072704B9A4272D22168B4E0E269B2F51B
:1059F000004F5FD165B1012D0DD0042D19D0082DB8
:105A000021D0102D32D0202D3DD0402D16D046E093
:105A1000FBF7F2FB01E0FBF7F7FB626A616838F81D
:105A20001230B0FBF3F04E0806EB4006B6FBF1F087
:105A300037E000F0C7F86068049919E000F0BFF89B
:105A40006068019914E0606A616838F810003B688A
:105A50004A089B0603D53B68C3F3C103DE40B6FB8F
:105A6000F0F002EB4002B2FBF1F01AE060684C4942
:105A7000626A38F81230B1FBF3F3410801EB4301DD
:105A8000B1FBF0F00DE0616A606838F81130B2FBEC
:105A9000F3F3420802EB4302B2FBF0F001E04FF0F7
:105AA00001094FF6F0710140C0F342000143206844
:105AB000C16054E065B1012D0DD0042D1BD0082D1F
:105AC00027D0102D37D0202D38D0402D1AD044E0CB
:105AD000FBF792FB01E0FBF797FB626A61682468C1
