:020000040800F2
:1000000068070020310200088F20000885200008C2
:100010008B2000081B080008AF2700080000000024
:10002000000000000000000000000000692200083D
:10003000951C0008000000001D210008CD230008C9
:100040004B0200084B0200084B0200084B0200085C
:100050004B0200084B020008991C0008951D00087F
:10006000CD1D00084B020008051E00084B020008C9
:100070004B0200084B0200084B0200084B0200082C
:100080004B0200084B0200084B0200084B0200081C
:100090004B0200084B0200084B0200083D1E0008FE
:1000A0004B0200084B0200084B0200084B020008FC
:1000B00039240008592400087D2400084B02000858
:1000C0004B0200084B0200084B0200084B020008DC
:1000D0004B0200084B0200084B0200089D25000857
:1000E000D11C00084B0200084B0200084B0200081C
:1000F0004B0200084B0200084B0200084B020008AC
:100100004B0200084B020008A12400084B02000823
:100110004B0200084B0200084B0200084B0200088B
:100120004B0200084B0200084B0200084B0200087B
:100130004B0200084B0200084B0200084B0200086B
:100140004B0200084B0200084B0200084B0200085B
:100150004B0200084B0200084B0200084B0200084B
:100160004B0200084B0200084B0200084B0200083B
:100170004B0200084B0200084B0200084B0200082B
:100180004B0200084B02000800F002F800F041F8B2
:100190000AA090E8000C82448344AAF10107DA45E2
:1001A00001D100F036F8AFF2090EBAE80F0013F0F3
:1001B000010F18BFFB1A43F00103184798270000EE
:1001C000B8270000103A24BF78C878C1FAD852077F
:1001D00024BF30C830C144BF04680C6070470000C1
:1001E0000023002400250026103A28BF78C1FBD840
:1001F000520728BF30C148BF0B607047642900F028
:100200007F80002070471FB502F06AFB1FBD10B54C
:1002100010BD00F0C8FA1146FFF7F5FF02F0E8FA4A
:1002200000F0E6FA03B4FFF7F2FF03BC00F0EEFAC9
:100230000948804709480047FEE7FEE7FEE7FEE77A
:10024000FEE7FEE7FEE7FEE7FEE7FEE704480549B6
:10025000054A064B70470000D123000889010008B9
:100260006801002068070020680300206803002060
:100270000FB41CB5074B06AA7B446946009005984D
:1002800000F0F7F90020694600F006FA1CBC5DF8A2
:1002900014FB00001D0400002DE9F0410E46044649
:1002A000002020622046E168884730B3252805D029
:1002B000D4E901219047206A401CF2E7E16820461A
:1002C00000278847050018D0A5F14100192802D859
:1002D00020354FF400673246294620462760FFF755
:1002E0008DFF40B1012804D0F61D26F00706083620
:1002F000D8E7361DD6E72846DAE7206ABDE8F08160
:100300002DE9F0410646002410687529314616A5EE
:1003100010D0AFF30080002802DA404213A507E0B6
:1003200031688A0701D512A502E0490704D511A555
:10033000012401E0AFF3008000210A2206F1240726
:1003400009E0B0FBF2FCB0FBF2F302FB1C00303022
:1003500078541846491C0028F3D123462A463046D3
:10036000BDE8F04100F027B9000000002D000000BA
:100370002B0000002000000010B5431C02E010F824
:10038000011B71B18107FAD14FF0013202C88C1AFA
:100390008C4314EAC211F9D0C01A0A0603D0C01E59
:1003A00010BDC01A10BD0A0401D0801E10BD090284
:1003B000FCD0401E10BD431A28BF9A4240F2718102
:1003C000032A1044114440F2268010F0030F1EBF90
:1003D00011F8013D521E00F8013D10F0030F7FF4AB
:1003E000F6AF11F0030300F0B481083AC0F00B80BF
:1003F00051F8043D083A51F804CD40F8043D40F866
:1004000004CDFFF7F3BF121D5CBF51F8043D40F867
:10041000043DAFF30080D20724BF11F8013D11F86D
:1004200001CD48BF11F8012C24BF00F8013D00F8B0
:1004300001CD48BF00F8012C704710B5203AC0F03C
:100440000B80B1E81850203AA0E81850B1E81850D5
:10045000A0E81850BFF4F5AF5FEA027C24BFB1E812
:100460001850A0E8185044BF18C918C0BDE8104083
:100470005FEA827C24BF51F8043B40F8043B08BF8C
:100480007047D20728BF31F8023B48BF11F8012B53
:1004900028BF20F8023B48BF00F8012B70474FF0FF
:1004A00000020429C0F0128010F0030C00F01B8041
:1004B000CCF1040CBCF1020F18BF00F8012BA8BF4F
:1004C00020F8022BA1EB0C0100F00DB85FEAC17C13
:1004D00024BF00F8012B00F8012B48BF00F8012BC6
:1004E00070474FF0000200B51346944696462039F7
:1004F00022BFA0E80C50A0E80C50B1F12001BFF4DD
:10050000F7AF090728BFA0E80C5048BF0CC05DF842
:1005100004EB890028BF40F8042B08BF704748BF90
:1005200020F8022B11F0804F18BF00F8012B704704
:100530004FF0013C50F8042B51F8043B9A4221D172
:10054000A2EB0C03934313EACC1317D150F8042BFE
:1005500051F8043B9A4215D1A2EB0C03934313EAE2
:10056000CC130BD150F8042B51F8043B9A4209D11B
:10057000A2EB0C03934313EACC13DBD04FF0000043
:10058000704700BFD01A01BAB1FA81F101F0180129
:1005900022FA01F0CB40C1F12001DBB2C0B2C01A97
:1005A0002CFA01F3D11A914311EAC311E6D1704735
:1005B0007047704770472DE9F0470D4699469246BF
:1005C000044600F124080168880604D5E06921F09A
:1005D0001001216000E00120A84201DD471B00E07E
:1005E0000027A1697A1902EB0900081AA061207896
:1005F000C00602D42046AFF30080002608E0D4E90C
:1006000001211AF806009047206A401C761C2062DF
:100610004E45F4DB2078C0060AD52046AFF30080B3
:1006200006E0D4E9012130209047206A401C206276
:10063000381EA7F10107F4DC07E0D4E9012118F81E
:1006400005009047206A401C2062281EA5F1010584
:10065000F3DC2046AFF300802078000602D50220AC
:10066000BDE8F0870120FBE701694A1C02610878B8
:10067000704700B58FB0CDE90131002105910549E2
:100680007944CDE9031011466846FFF705FE0FB027
:1006900000BD0000E5FFFFFF0A6802F8010B0A60D9
:1006A0007047032A40F2308010F0030C00F01580F0
:1006B00011F8013BBCF1020F624498BF11F801CB65
:1006C00000F8013B38BF11F8013BA2F1040298BFCA
:1006D00000F801CB38BF00F8013B11F003033FF4F1
:1006E000ACAE083AC0F0088051F8043B083A51F823
:1006F00004CBA0E80810F5E7121D5CBF51F8043BDD
:1007000040F8043BAFF30080D20724BF11F8013B4F
:1007100011F801CB48BF11F8012B24BF00F8013BB1
:1007200000F801CB48BF00F8012B7047431A28BFDF
:100730009A427FF682AE104410F0030F11441EBFA0
:1007400011F8013D521E00F8013D10F0030F7FF437
:10075000F6AF103AC0F00A8010B531E91850103ADF
:1007600020E91850BFF4F9AFBDE81040530724BF8B
:1007700031E9081020E9081044BF51F8043D40F861
:10078000043D12F0030F08BF7047D20728BF31F8AD
:10079000023D48BF11F8012C28BF20F8023D48BF98
:1007A00000F8012C7047754600F02CF8AE460500A5
:1007B0006946534620F00700854618B020B5FFF77C
:1007C00045FDBDE820404FF000064FF000074FF018
:1007D00000084FF0000B21F00701AC46ACE8C0095F
:1007E000ACE8C009ACE8C009ACE8C0098D46704768
:1007F00010B50446AFF300802046BDE81040FFF777
:1008000011BD000000487047080100200149182070
:10081000ABBEFEE726000200704700BFFEE7000007
:1008200010B511480068E8B91048407828B90F4859
:100830000069401C0D49086107E00C48006920B1BF
:100840000A480069401E094908610848806848B1A3
:1008500006488068401E054988600846806808B9D7
:1008600000F07EFB10BD0000308241426C00002091
:1008700010B511480068E8B91048407828B90F4809
:100880000069401C0D49086107E00C48006920B16F
:100890000A480069401E094908610848806848B153
:1008A00006488068401E054988600846806808B987
:1008B00000F094FB10BD0000040240422400002020
:1008C00010B511480068E8B91048407828B90F48B9
:1008D0000069401C0D49086107E00C48006920B11F
:1008E0000A480069401E094908610848806848B103
:1008F00006488068401E054988600846806808B937
:1009000000F0A8FB10BD00001C0240423C0000208B
:1009100010B511480068E8B91048407828B90F4868
:100920000069401C0D49086107E00C48006920B1CE
:100930000A480069401E094908610848806848B1B2
:1009400006488068401E054988600846806808B9E6
:1009500000F0BEFB10BD0000080240425400002021
:1009600030B587B004461822214601A8FFF765FD7F
:10097000204601F045F9054694ED010AB5EEC00A9E
:10098000F1EE10FA12D09DF8050008B9042D04D13B
:100990009DF80500012807D135B101208DF811001F
:1009A000204600F0E1FE04E007B030BD204600F034
:1009B000B3FF00BFF8E700001CB50121084601F0B5
:1009C000AFFB0121042001F0ABFB0121082001F065
:1009D000A7FB0F20009001208DF8040000208DF867
:1009E000060003208DF8050001208DF807006946F8
:1009F0002E4801F0CFFA08212C4801F041FB0421D8
:100A00002A4801F03DFB0221284801F039FB012171
:100A1000264801F035FB8620009001208DF8040067
:100A200000208DF8060003208DF8050001208DF8C8
:100A3000070069461E4801F0ADFA4FF4805000905F
:100A400001208DF8040000208DF8060003208DF8A9
:100A5000050001208DF807006946164801F09AFA52
:100A60000221134801F00CFB8021114801F008FB22
:100A700004210F4801F004FB4FF480510D4801F0B0
:100A8000FFFA00200C49086001200C49C1F89C02C3
:100A900000200949086008491439086001200860ED
:100AA00000200649C1F888021CBD00000008024071
:100AB00000000240000C02409C0240420000404204
:100AC000014601B938493948086039484860394811
:100AD00088603948C86000200A6850700A68107041
:100AE00001200A6890709FED350A086880ED010AC0
:100AF00000200A6890600A6810610A6810730A682A
:100B000010750A6850750A6850754A68507002205E
:100B10004A68107001204A6890709FED280A486862
:100B200080ED010A00204A6890604A6810614A68B6
:100B300010734A6810754A6850754A6850758A681B
:100B4000507001208A6810708A6890709FED1B0AAF
:100B5000886880ED010A00208A6890608A681061C8
:100B60008A6810738A6810758A6850758A6850752B
:100B7000CA6850700320CA6810700120CA6890705B
:100B80009FED0E0AC86880ED010A0020CA689060D7
:100B9000CA681061CA681073CA681075CA6850754F
:100BA000CA685075004870471400002024000020D7
:100BB0003C000020540000206C00002000000000D9
:100BC0000648006820B9012004498031086003E02C
:100BD00000200249803108607047000030824142A5
:100BE0000648006820B9012004498031086003E00C
:100BF0000020024980310860704700000402404232
:100C00000648006820B9012004498031086003E0EB
:100C10000020024980310860704700001C024042F9
:100C20000648006820B9012004498031086003E0CB
:100C300000200249803108607047000008024042ED
:100C4000DFED150AB0EE600A072823D2DFE800F0D6
:100C50002204090E13181D00DFED100AB0EE600A21
:100C600018E0DFED0F0AB0EE600A13E0DFED0D0AC9
:100C7000B0EE600A0EE0DFED0C0AB0EE600A09E0AB
:100C8000DFED0A0AB0EE600A04E0DFED090AB0EE1B
:100C9000600A00BF00BF704700000000333373409C
:100CA00033336F429A999F429A99B7429A99BF42B9
:100CB0006666C44200B585B00121022001F030FA19
:100CC0000121082001F02CFA0121880301F048FAE3
:100CD0004FF47040039001208DF8100000208DF833
:100CE000120003208DF8110001208DF8130003A9D4
:100CF000394801F04FF94FF48051374801F0BEF9FF
:100D00004FF40051344801F0B9F94FF480413248B2
:100D100001F0B4F94FF400412F4801F0AFF9B020D1
:100D2000039000208DF8100001208DF812000020A3
:100D30008DF8110001208DF8130003A9274801F058
:100D400029F94020039000208DF810008DF8120042
:100D500002208DF8110001208DF8130003A91F480F
:100D600001F018F90421032001F080FA0521032085
:100D700001F07CFA0721032001F078FAB0200190FD
:100D800000208DF808000C208DF8090001208DF856
:100D90000A0001A801F0B4F80A208DF80000032031
:100DA0008DF8010002208DF8020001208DF803006B
:100DB000684601F06DF917208DF8000003208DF8CA
:100DC000010002208DF8020001208DF80300684622
:100DD00001F05EF905B000BD00040240000C0240C5
:100DE00000B585B00121082001F09AF9012188039E
:100DF00001F0B6F90320039000208DF810000120C7
:100E00008DF8120000208DF8110001208DF81300DC
:100E100003A9254801F0BEF80420039000208DF8B6
:100E2000100001208DF8120000208DF81100012023
:100E30008DF8130003A91C4801F0ACF80021032031
:100E400001F014FA0121032001F010FA03200190AF
:100E500000208DF808000C208DF8090001208DF885
:100E60000A0001A801F04CF806208DF800000320CC
:100E70008DF8010002208DF8020001208DF803009A
:100E8000684601F005F907208DF8000002208DF872
:100E900001008DF8020001208DF80300684601F082
:100EA000F7F805B000BD0000000C024000B585B0A9
:100EB0000121102001F034F90121880301F050F9DB
:100EC0004FF44050039000208DF8100001208DF861
:100ED000120000208DF8110001208DF8130003A9E5
:100EE0001E4801F057F84FF48040039000208DF821
:100EF000100001208DF8120000208DF81100012053
:100F00008DF8130003A9154801F044F80C210420C2
:100F100001F0ACF90D21042001F0A8F94FF4405084
:100F2000019000208DF808000C208DF809000120A8
:100F30008DF80A0001A800F0E3FF28208DF80000DA
:100F400003208DF8010002208DF8020001208DF8A9
:100F50000300684601F09CF805B000BD0010024097
:100F600010B504A001F0A2F90021044801F0ADFA87
:100F700010BD0000343A4F4B00000000000C004050
:100F80007FB505460C460121082001F0D9F80295ED
:100F9000ADF804400020ADF80600ADF80C0001A942
:100FA0000D4801F0B9FA012211460B4801F0AAFAE6
:100FB0000121094801F089FA32208DF80000022051
:100FC0008DF8010003208DF8020001208DF8030048
:100FD000684601F05DF87FBD000C004010B504A02C
:100FE00001F064F900214FF0804001F06EFA10BD6D
:100FF000313A4F4B000000007FB505460C460121F9
:10100000084601F09DF80295ADF804400020ADF8C7
:101010000600ADF80C0001A94FF0804001F07CFA09
:1010200001221146900701F06DFA0121880701F0B5
:101030004CFA1C208DF8000002208DF801000320DE
:101040008DF8020001208DF80300684601F020F8B9
:101050007FBD000010B504A001F028F9002104486C
:1010600001F033FA10BD0000323A4F4B000000008F
:10107000000400407FB505460C460121022001F026
:101080005FF80295ADF804400020ADF80600ADF819
:101090000C0001A90D4801F03FFA012211460B484E
:1010A00001F030FA0121094801F00FFA1D208DF8F6
:1010B000000002208DF8010003208DF802000120BD
:1010C0008DF80300684600F0E3FF7FBD0004004098
:1010D00010B504A001F0EAF80021044801F0F5F988
:1010E00010BD0000333A4F4B0000000000080040E4
:1010F0007FB505460C460121042001F021F8029538
:10110000ADF804400020ADF80600ADF80C0001A9D0
:101110000D4801F001FA012211460B4801F0F2F9E5
:101120000121094801F0D1F91E208DF800000220AC
:101130008DF8010003208DF8020001208DF80300D6
:10114000684600F0A5FF7FBD000800402DE9F04390
:101150009FB00446342112A8FFF7C3F900270025E9
:101160003422FE4905A8FFF768F914216846FFF705
:10117000B8F9002600F0FCFB00286ED000BF12A9D1
:10118000C81900F009FC20B900F0F8FB1FB0BDE859
:10119000F0833846791CCFB212A9085C3B28EED107
:1011A00000F0ECFB9DF84800472870D006DC3F2893
:1011B0006ED041286DD044280ED10EE0482869D069
:1011C000502868D05428F7D1E5A112A8FFF7B0F94C
:1011D00010B905A801F06AF86EE205A801F066F8FA
:1011E0009DF84900542857D0582804D059281BD0BE
:1011F0005A286AD132E0032512A9481900F024FCCC
:1012000000EE100AB8EEC00A206880ED010A12A9AB
:10121000481900F019FC2168487012A9481900F01B
:1012200013FC2168886050E0032512A9481900F0DA
:101230000BFC00EE100AB8EEC00A606880ED010AEF
:1012400012A9481900F000FC6168487012A94819F9
:1012500000F0FAFB6168886037E02EE2032512A9EE
:10126000481900F0F1FB00EE100AB8EEC00AA068C1
:1012700080ED010A12A9481900F0E6FBA168487048
:1012800012A9481900F0E0FBA16888601DE050E059
:1012900076E11CE0E1E082E0032512A9481900F0A4
:1012A000D3FB00EE100AB8EEC00AE06880ED010A38
:1012B00012A9481900F0C8FBE168487012A9481942
:1012C00000F0C2FBE168886000BF00BFF4E105A840
:1012D00000F0ECFF9DF84B0047280CD0482808D0C0
:1012E0004C2802D04D2808D101E0042607E003264F
:1012F00005E0022603E0012601E0012600BF00BF51
:101300009DF8490054280FD0582804D0592805D0FA
:101310005A280CD105E02068867008E06068867065
:1013200005E0A068867002E0E068867000BF00BF3C
:10133000C2E105A800F0BAFF01252BE012A8405D2C
:1013400058280AD004DC4F2817D054281FD110E0A9
:10135000592806D05A281AD107E0012021680873BD
:1013600015E001206168087311E00120A16808738D
:101370000DE00120E168087309E00120216808738D
:1013800061680873A1680873E168087300BF00BF53
:10139000681CC5B212A8405D3B28CFD18CE105A8DE
:1013A00000F084FF012553E012A8405D58280AD0C0
:1013B00004DC41282BD0542847D11FE059280BD0FA
:1013C0005A2842D111E09FED670A206880ED010A9A
:1013D00001202168087338E09FED620A606880EDA3
:1013E000010A0120616808732FE09FED5E0AA06882
:1013F00080ED010A0120A168087326E09FED590ADB
:10140000E06880ED010A0120E16808731DE09FEDAE
:10141000550A206880ED010A9FED520A606880ED50
:10142000010A9FED500AA06880ED010A9FED4D0A68
:10143000E06880ED010A0120216808736168087383
:10144000A1680873E168087300BF00BF681CC5B2DB
:1014500012A8405D3B28A7D12EE105A800F026FF89
:101460009DF8490058280AD004DC41284FD0522862
:1014700016D13AE0592814D05A287FD123E00DF133
:101480004B0000F0E1FA00F0FF084046FFF7D8FB00
:10149000206880ED010A01202168487021680873E6
:1014A0006CE00DF14B0000F0CFFA00F0FF08404671
:1014B000FFF7C6FB606880ED010A01206168487093
:1014C000616808735AE00DF14B0000F0BDFA00F0BE
:1014D000FF084046FFF7B4FBA06880ED010A012039
:1014E000A1684870A168087348E00DF14B0000F056
:1014F000ABFA00F0FF084046FFF7A2FBE06880ED82
:10150000010A0120E1684870E168087336E00DF1D6
:101510004B0000F099FA00F0FF084046FFF790FBFF
:10152000206880ED010A206890ED010A606880ED76
:10153000010A206890ED010AA06880ED010A206888
:1015400090ED010AE06880ED010A012021684870F1
:1015500061684870A1684870E16805E0EC280008FF
:10156000543F3B0000000000487021680873616828
:101570000873A1680873E168087300BF00BF9BE0AF
:101580009DF8490058280AD004DC41282FD054285F
:101590007ED122E059280CD05A2879D113E0206856
:1015A00047A1026905A8FEF763FE05A800F07EFECC
:1015B00080E0606844A1026905A8FEF759FE05A80D
:1015C00000F074FE76E0A06841A1026905A8FEF76C
:1015D0004FFE05A800F06AFE6CE0E0683EA10269DB
:1015E00005A8FEF745FE05A800F060FE62E03CA1FC
:1015F00005A8FEF73DFE206844A102696846FEF793
:1016000037FE6846FEF7B8FE81466846FEF7B4FE30
:101610000DF11D01A1EB00084A4669464046FEF760
:10162000CAFE606839A102696846FEF721FE684675
:10163000FEF7A2FE81466846FEF79EFE0DF12701E9
:10164000A1EB00084A4669464046FEF7B4FEA06892
:101650002EA102696846FEF70BFE6846FEF78CFE77
:1016600081466846FEF788FE0DF13101A1EB0008C6
:101670004A4669464046FEF79EFEE06823A102699D
:101680006846FEF7F5FD6846FEF776FE814600E007
:101690000FE06846FEF770FE0DF13B01A1EB00087C
:1016A0004A4669464046FEF786FE05A800F0FEFD64
:1016B00000E000BF00BF00BF00BF00BF66E5000044
:1016C000583A256400000000593A256400000000E3
:1016D0005A3A256400000000543A256400000000D6
:1016E000313A3030303030302020323A3030303003
:1016F00030302020333A3030303030302020343A0F
:1017000030303030303020200000000025642000D0
:1017100010B504462068007B012805D1002021680F
:1017200008732068FFF71CF96068007B012805D169
:101730000020616808736068FFF712F9A068007BF9
:10174000012805D10020A1680873A068FFF708F9F7
:10175000E068007B012805D10020E1680873E0689B
:10176000FFF7FEF810BD000070B504460026002506
:101770004FF45275D4ED010A9FED260AB3EE091A13
:1017800000EEC10ADFED240A60EE200A00EE105AD6
:10179000B8EE401A80EE810AB3EE031AC0EE010AD9
:1017A000B7EE000A30EEC00ABCEEC00A10EE100A16
:1017B00086B2681E85B2207838B96078174908600B
:1017C00029463046FFF718FC22E02078022808D18D
:1017D00060781249091F086029463046FFF74AFC25
:1017E00016E02078012808D160780C490839086093
:1017F00029463046FFF77CFC0AE02078032807D111
:10180000607806490C39086029463046FFF7B8FB76
:1018100070BD000000F01B45000052448C024142A4
:101820000FB49DF8000030B1012836D002281BD03B
:10183000032864D14AE09DF81400012802D13249FE
:10184000087510E09DF81500012802D12E49487551
:1018500009E09DF81600012802D12B49887502E0A5
:101860000120294988754BE09DF81400012802D118
:101870002649087510E09DF81500012802D123497A
:10188000487509E09DF81600012802D11F498875A6
:1018900002E001201D49887532E09DF814000128FE
:1018A00002D11B49087510E09DF81500012802D1EE
:1018B0001749487509E09DF81600012802D114491E
:1018C000887502E001201249887519E09DF814001E
:1018D000012802D10F49087510E09DF81500012874
:1018E00002D10C49487509E09DF81600012802D183
:1018F0000849887502E001200649887500E000BFAC
:1019000000BF04B070470000240000203C0000200D
:10191000540000206C00002010B50446207810B957
:10192000FFF75CFB10E02078022802D1FFF792FB62
:101930000AE02078012802D1FFF7CAFB04E02078F2
:10194000032801D1FFF70CFB10BD000010B50020EB
:10195000064908804880888064210448801DFEF77D
:101960009EFD0020014981F86A0010BD9C00002006
:10197000014890F86A0070479C000020054890F8E4
:101980006A0030B1034890F86A00401E014981F8AE
:101990006A0070479C00002001461048808808B902
:1019A000002070470D480288801D805C087000226E
:1019B0000A480388801DC254801F0088401C074AC3
:1019C000108010460088642801D100201080034850
:1019D0008088401E014A90800120E2E79C000020A0
:1019E0001849898864290AD116490988491C154A69
:1019F000118011460988642901D100211180114903
:101A00008988642904D00F498988491C0D4A91802E
:101A10000C494A884988491C0A4B5980991D8854A9
:101A2000891F4988642902D100211A4651803B2828
:101A300006D1044991F86A10491C024A82F86A10DA
:101A4000704700009C00002010B5024600210023D2
:101A5000002000E0491C545C2C2C02D0545C3B2C30
:101A6000F8D10B46002110E0545C302C02DB545CB2
:101A7000392C01DD3024545400EB80046000545CA8
:101A8000303C204430245454491C9942ECDB30242F
:101A9000545410BD10B5FFF70DF9FFF7A1F9FFF78A
:101AA00005FA10BD10B504462068007D01280FD14D
:101AB0000020216808752068407870B303202168F1
:101AC00048730020216808612068FFF725FF24E0A3
:101AD0002068407D01280DD10020216848752068CC
:101AE0004078012819D00320216848732068FFF747
:101AF00013FF12E02068807D01280ED100202168AC
:101B000088752068407840B1032021684873002020
:101B1000216808612068FFF7FFFE6068007D0128EA
:101B20000FD10020616808756068407870B30320A9
:101B3000616848730020616808616068FFF7ECFE27
:101B400024E06068407D01280DD10020616848755F
:101B500060684078012819D0032061684873606884
:101B6000FFF7DAFE12E06068807D01280ED10020C8
:101B7000616888756068407840B103206168487387
:101B80000020616808616068FFF7C6FEA068007DFC
:101B900001280FD10020A1680875A068407870B3B3
:101BA0000320A16848730020A1680861A068FFF7BE
:101BB000B3FE24E0A068407D01280DD10020A1687B
:101BC0004875A0684078012819D00320A16848739F
:101BD000A068FFF7A1FE12E0A068807D01280ED169
:101BE0000020A1688875A068407840B10320A168F2
:101BF00048730020A1680861A068FFF78DFE10BD42
:101C000070B504460325207830B1012824D002287D
:101C100012D0032834D131E010211C4800F025FAFD
:101C200008B9042507E02021184800F01EFA08B979
:101C3000002500E0032525E00121144800F015FAF5
:101C400008B9042507E00221104800F00EFA08B98F
:101C5000002500E0032515E04FF480510C4800F00A
:101C600004FA08B9042508E04FF40051084800F0D0
:101C7000FCF908B9002500E0032503E0032501E095
:101C8000052500BF00BF284670BD0000000C0240C3
:101C900000100240704700001CB5012000F024F93C
:101CA00078B102200949087001204875D1E9040182
:101CB000CDE9000105480FC8FFF7B2FD0020034938
:101CC0004875012000F00AF91CBD000084000020C6
:101CD0001CB54FF4806000F007F920B14FF480602C
:101CE00000F0FCF853E04FF4006000F0FDF820B184
:101CF0004FF4006000F0F2F849E04FF4805000F03B
:101D0000F3F898B10120224908704875D1E904011F
:101D1000CDE900011E480FC8FFF782FD00201C49D5
:101D200048754FF4805000F0D9F830E04FF400507F
:101D300000F0DAF898B10120154908700875D1E96A
:101D40000401CDE9000112480FC8FFF769FD00202A
:101D50000F4908754FF4005000F0C0F817E04FF439
:101D6000804000F0C1F890B10120094908708875E1
:101D7000D1E90401CDE9000105480FC8FFF750FD86
:101D80000020034988754FF4804000F0A7F81CBD7F
:101D9000840000201CB5022000F0A6F878B10220D3
:101DA0000949087001200875D1E90401CDE9000155
:101DB00005480FC8FFF734FD0020034908750220CD
:101DC00000F08CF81CBD0000840000201CB504202D
:101DD00000F08AF878B1022009490870012088755E
:101DE000D1E90401CDE9000105480FC8FFF718FD4E
:101DF000002003498875042000F070F81CBD000025
:101E0000840000201CB5102000F06EF878B100208E
:101E10000949087001204875D1E90401CDE90001A4
:101E200005480FC8FFF7FCFC002003494875102047
:101E300000F054F81CBD0000840000201CB52020D8
:101E400000F052F898B1002023490870012008756D
:101E5000D1E90401CDE900011F480FC8FFF7E0FCFC
:101E600000201D490875202000F038F832E040209D
:101E700000F03AF898B100201749087001208875E1
:101E8000D1E90401CDE9000113480FC8FFF7C8FCF0
:101E9000002011498875402000F020F81AE08020C9
:101EA00000F022F818B1802000F018F812E04FF48A
:101EB000807000F019F820B14FF4807000F00EF837
:101EC00008E04FF4007000F00FF818B14FF4007004
:101ED00000F004F81CBD00008400002001490860E7
:101EE00070470000143C014001460020034A12687C
:101EF0000A400AB1012000E000207047143C014074
:101F0000002123498279002A3AD00A4612680368E0
:101F10009A430B461A600A1D126803689A430B1D08
:101F20001A60027911440A6803681A430A60184A61
:101F30000832126803689A43154B08331A601A1D59
:101F4000126803689A43124B0C331A604279102AC4
:101F50000ED11A1F126803681A430D4B08331A601A
:101F60001A1D126803681A43094B0C331A600DE0FE
:101F70000749427911440A6803681A430A6005E078
:101F8000027911440A6803689A430A6070470000A6
:101F9000003C0140F0B50A4600210023002400BFA8
:101FA0003DE0012505FA01F3156805EA03049C42AA
:101FB00034D105684F000326BE40B543056015794E
:101FC0004E00B5400668354305601579012D02D0F5
:101FD0001579022D16D185684F000326BE40B54302
:101FE000856055794E00B540866835438560456803
:101FF00001268E40B5434560456896798E40B6B25D
:1020000035434560C5684F000326BE40B543C560F3
:10201000D5794E00B540C6683543C560491C1029C6
:10202000BFD3F0BDF0B5002300244D07ED0E02FA3A
:1020300005F3CE1000F1200555F826504E07F70E97
:102040000F26BE40B543CF1000F1200646F82750BA
:10205000CE1000F1200555F8265045EA0304CE10B5
:1020600000F1200545F82640F0BD02460020136926
:102070000B400BB1012000E0002070474183704706
:102080000183704700E07047FDE700BFFEE770473F
:1020900070B5002100230F22C4781CB3174C2468AC
:1020A00004F4E064C4F5E064C4F30721C1F104045E
:1020B000E3B20A4144789C40E1B284781440214361
:1020C0000C07210E0E4C05786155047804F01F05AD
:1020D0000124AC4005786D11AD0005F1E025C5F88F
:1020E000004109E0047804F01F050124AC40054DCF
:1020F0000678761145F8264070BD00000CED00E032
:1021000000E400E080E100E002490143024A11607E
:10211000704700000000FA050CED00E07047000079
:1021200029B1064A12680243044B1A6004E0034ACC
:1021300012688243014B1A60704700003038024039
:1021400029B1064A12680243044B1A6004E0034AAC
:1021500012688243014B1A60704700004038024009
:1021600029B1064A12680243044B1A6004E0034A8C
:1021700012688243014B1A607047000044380240E5
:10218000F0B5002100220024022500260223324F50
:102190003F6807F00C0121B1042905D0082937D187
:1021A00005E02E4F076036E02D4F076033E02A4FE1
:1021B0003F1F3F68C7F38056274F3F1F3F6807F018
:1021C0003F036EB1264FB7FBF3F7DFF88CC0ACF1DD
:1021D000040CDCF800C0CCF3881C07FB0CF40CE00A
:1021E0001E4FB7FBF3F7DFF870C0ACF1040CDCF85E
:1021F00000C0CCF3881C07FB0CF4174F3F1F3F684F
:10220000C7F301477F1C7D00B4FBF5F7076002E0D0
:10221000124F076000BF00BF0F4F3F6807F0F0018B
:102220000909104F7A5C0768D74047600A4F3F683A
:1022300007F4E051890A0B4F7A5C4768D740876002
:10224000054F3F6807F46041490B064F7A5C4768C9
:10225000D740C760F0BD0000083802400024F400F9
:1022600000127A00040000207047000030B5002200
:102270008B071C0F0F2303FA04F20B4B8C1053F83F
:1022800024309343084C8D1044F8253023468C109D
:1022900053F824308C07240F00FA04F42343024C33
:1022A0008D1044F8253030BD0838014010B5044683
:1022B000204600F095F910BD0CB50020019000906B
:1022C0003448006840F480303249086000BF31482B
:1022D000006800F4003000900198401C01900098C4
:1022E00018B90198B0F5A04FF1D12A48006800F460
:1022F000003010B10120009001E000200090009813
:10230000012846D123484030006840F080502149E0
:10231000403108602048006840F440401E49086091
:102320001C48083000681B490831086008460068EE
:1023300040F4004008600846006840F4A05008607F
:102340001648091F0860081F006840F08070091FC8
:10235000086000BF0F48006800F000700028F9D046
:1023600040F205700E4908600A480830006820F005
:1023700003000849083108600846006840F0020080
:10238000086000BF03480830006800F00C0008280F
:10239000F8D10CBD003802400070004008544007DE
:1023A000003C0240042808D14FF0E021096941F0C7
:1023B00004014FF0E022116107E04FF0E0210969CC
:1023C00021F004014FF0E0221161704770470000D6
:1023D00010B51548006840F47000134908601348B0
:1023E000006840F001001149086000200F490831E1
:1023F00008600E4800680E4908400C4908600D4806
:10240000091D0860081F006820F48020091F08606B
:10241000002006490C310860FFF74EFF4FF00060C6
:1024200001498039086010BD88ED00E000380240A5
:10243000FFFFF6FE1030002410B50121880700F0E0
:1024400050F8012803D1FEF7CBFBFEF711FA01216A
:10245000880700F037F810BD10B50121064800F0DC
:1024600040F8012803D1FEF7CBFBFEF729FA012142
:10247000014800F027F810BD0004004010B501210C
:10248000064800F02EF8012803D1FEF7C9FBFEF73D
:102490003FFA0121014800F015F810BD0008004086
:1024A00010B50121064800F01CF8012803D1FEF701
:1024B00087FBFEF7B5F90121014800F003F810BDD4
:1024C000000C0040CA430282704721B1028842F0EA
:1024D0000102028004E002884FF6FE731A40028077
:1024E000704730B50246002000230024158A05EA13
:1024F0000103958905EA010413B10CB1012000E044
:10250000002030BD1AB183890B43838102E08389A7
:102510008B4383817047000000220288184B984249
:102520000ED0184B98420BD0B0F1804F08D0164B0C
:10253000984205D0154B984202D0154B984204D1D1
:102540004FF68F731A404B881A43124B984207D0AC
:10255000114B984204D04FF6FF431A400B891A439F
:1025600002804B68C3620B880385054B984202D0FA
:10257000044B984201D18B7A0386012383827047F2
:102580000000014000040140000400400008004039
:10259000000C0040001000400014004010B540F254
:1025A0002551064800F040F830B1044800F0F6F834
:1025B000C4B22046FFF714FA10BD000000480040E6
:1025C00010B504462146054800F0EDF800BF802113
:1025D000024800F01CF80028F9D010BD0048004067
:1025E00010B5044603E014F8010BFFF7E9FF20786B
:1025F0000028F8D110BD21B1828942F400528281B5
:1026000004E082894DF6FF731A40828170470246CA
:102610000020B1F5007F00D100BF13880B400BB143
:10262000012000E00020704770B50246002400231E
:102630000025002040F66A16B14200D100BFC1F368
:10264000421501F01F03012606FA03F3012D02D102
:102650009689334006E0022D02D1168A334001E00C
:10266000968A33400C12012606FA04F41688344088
:1026700013B10CB1012000E0002070BDF0B503469D
:10268000002400260025002040F66A17B94200D138
:1026900000BF1846C1F3421401F01F06012707FAD4
:1026A00006F5012C01D10C3004E0022C01D11030D0
:1026B00000E014301AB107682F43076002E0076892
:1026C000AF430760F0BD00002DE9FF4705460E4609
:1026D0000024A14600BFA046B08900B100BF2C8AEB
:1026E00024F44054F08804432C82AC8941F20C60FD
:1026F0008443B08831890843718908430443AC811D
:10270000AC8A24F44074B0890443AC826846FFF775
:1027100037FD2048854202D01F48854202D1DDF8AE
:102720000C9001E0DDF80890A88900F4004040B169
:1027300009EBC90000EB091031684900B0FBF1F763
:1027400007E009EBC90000EB091031688900B0FB14
:10275000F1F76420B7FBF0F004012009642101FBCC
:102760001078A88900F4004040B1322000EBC80086
:10277000B0FBF1F000F00700044308E0322000EB6A
:1027800008106421B0FBF1F000F00F0004432C812D
:10279000BDE8FF8700100140001401400146888811
:1027A000C0F308007047C1F308028280704700BF81
:1027B000FEE7000010B504466FF00400FFF7F2FDDD
:1027C000E11704EB5171C1F3C701074A11701046BC
:1027D000007800EB4001C1EBC0104FF6FF7101EA39
:1027E000C0000249088010BD000000200200002047
:1027F000A820FFF7DFFF4FF4A060FFF785FC4FF440
:10280000E13000F015F80020FEF75AF90446FFF712
:102810009DF8FEF7D1F8FFF73DF908E02046FEF7F6
:1028200095FC2046FEF774FF2046FFF73BF9F5E7DD
:1028300010B588B0044601210220FFF771FC012188
:102840008804FFF77DFC07220A212348FFF7EAFBF3
:1028500007220B212048FFF7E5FB4FF4406006906C
:1028600002208DF81C0003208DF81D0000208DF83B
:102870001E0001208DF81F0006A91748FFF78AFBEC
:1028800002940020ADF80C00ADF80E00ADF8100079
:10289000ADF814000C20ADF8120002A90F48FFF7A4
:1028A00013FF27208DF8040001208DF8050000207B
:1028B0008DF8060001208DF8070001A8FFF7E8FB5E
:1028C00001210648FFF797FE012240F225510348F7
:1028D000FFF7D4FE08B010BD0004024000480040DD
:1028E0004FF04070E1EE100A704700004F4B0000BF
:1028F00000000000000000000000000000000000D8
:1029000000000000000000000000000000000000C7
:1029100000000000000000000000000000000000B7
:102920004F4B3B00000000000000000000000000D2
:102930000000000000000000000000000000000097
:102940000000000000000000000000000000000087
:10295000000000007429000800000020140000009E
:10296000C401000888290008140000205407000052
:10297000E001000800000000000000000102030464
:08298000010203040607080927
:040000050800018965
:00000001FF
